{
	"contracts/ExampleWrapAround.sol": {
		"ExampleWrapAround": {
			"abi": [
				{
					"inputs": [],
					"name": "decrementUInt",
					"outputs": [],
					"stateMutability": "nonpayable",
					"type": "function"
				},
				{
					"inputs": [],
					"name": "incrementUint8",
					"outputs": [],
					"stateMutability": "nonpayable",
					"type": "function"
				},
				{
					"inputs": [],
					"name": "myUint",
					"outputs": [
						{
							"internalType": "uint256",
							"name": "",
							"type": "uint256"
						}
					],
					"stateMutability": "view",
					"type": "function"
				},
				{
					"inputs": [],
					"name": "myUint8",
					"outputs": [
						{
							"internalType": "uint8",
							"name": "",
							"type": "uint8"
						}
					],
					"stateMutability": "view",
					"type": "function"
				},
				{
					"inputs": [
						{
							"internalType": "uint256",
							"name": "_myUint",
							"type": "uint256"
						}
					],
					"name": "setMyUint",
					"outputs": [],
					"stateMutability": "nonpayable",
					"type": "function"
				}
			],
			"devdoc": {
				"kind": "dev",
				"methods": {},
				"version": 1
			},
			"evm": {
				"assembly": "    /* \"contracts/ExampleWrapAround.sol\":115:480  contract ExampleWrapAround {\r... */\n  mstore(0x40, 0x80)\n    /* \"contracts/ExampleWrapAround.sol\":204:207  250 */\n  0xfa\n    /* \"contracts/ExampleWrapAround.sol\":181:207  uint8 public myUint8 = 250 */\n  0x01\n  exp(0x0100, 0x00)\n  dup2\n  sload\n  dup2\n  0xff\n  mul\n  not\n  and\n  swap1\n  dup4\n  0xff\n  and\n  mul\n  or\n  swap1\n  sstore\n  pop\n    /* \"contracts/ExampleWrapAround.sol\":115:480  contract ExampleWrapAround {\r... */\n  callvalue\n  dup1\n  iszero\n  tag_1\n  jumpi\n  0x00\n  dup1\n  revert\ntag_1:\n  pop\n  dataSize(sub_0)\n  dup1\n  dataOffset(sub_0)\n  0x00\n  codecopy\n  0x00\n  return\nstop\n\nsub_0: assembly {\n        /* \"contracts/ExampleWrapAround.sol\":115:480  contract ExampleWrapAround {\r... */\n      mstore(0x40, 0x80)\n      callvalue\n      dup1\n      iszero\n      tag_1\n      jumpi\n      0x00\n      dup1\n      revert\n    tag_1:\n      pop\n      jumpi(tag_2, lt(calldatasize, 0x04))\n      shr(0xe0, calldataload(0x00))\n      dup1\n      0x06540f7e\n      eq\n      tag_3\n      jumpi\n      dup1\n      0x4bbfd727\n      eq\n      tag_4\n      jumpi\n      dup1\n      0x84ea3606\n      eq\n      tag_5\n      jumpi\n      dup1\n      0xe2a4b2af\n      eq\n      tag_6\n      jumpi\n      dup1\n      0xe492fd84\n      eq\n      tag_7\n      jumpi\n    tag_2:\n      0x00\n      dup1\n      revert\n        /* \"contracts/ExampleWrapAround.sol\":151:172  uint256 public myUint */\n    tag_3:\n      tag_8\n      tag_9\n      jump\t// in\n    tag_8:\n      mload(0x40)\n      tag_10\n      swap2\n      swap1\n      tag_11\n      jump\t// in\n    tag_10:\n      mload(0x40)\n      dup1\n      swap2\n      sub\n      swap1\n      return\n        /* \"contracts/ExampleWrapAround.sol\":372:477  function decrementUInt() public {\r... */\n    tag_4:\n      tag_12\n      tag_13\n      jump\t// in\n    tag_12:\n      stop\n        /* \"contracts/ExampleWrapAround.sol\":303:364  function incrementUint8() public {\r... */\n    tag_5:\n      tag_14\n      tag_15\n      jump\t// in\n    tag_14:\n      stop\n        /* \"contracts/ExampleWrapAround.sol\":181:207  uint8 public myUint8 = 250 */\n    tag_6:\n      tag_16\n      tag_17\n      jump\t// in\n    tag_16:\n      mload(0x40)\n      tag_18\n      swap2\n      swap1\n      tag_19\n      jump\t// in\n    tag_18:\n      mload(0x40)\n      dup1\n      swap2\n      sub\n      swap1\n      return\n        /* \"contracts/ExampleWrapAround.sol\":220:295  function setMyUint(uint _myUint) public {\r... */\n    tag_7:\n      tag_20\n      0x04\n      dup1\n      calldatasize\n      sub\n      dup2\n      add\n      swap1\n      tag_21\n      swap2\n      swap1\n      tag_22\n      jump\t// in\n    tag_21:\n      tag_23\n      jump\t// in\n    tag_20:\n      stop\n        /* \"contracts/ExampleWrapAround.sol\":151:172  uint256 public myUint */\n    tag_9:\n      sload(0x00)\n      dup2\n      jump\t// out\n        /* \"contracts/ExampleWrapAround.sol\":372:477  function decrementUInt() public {\r... */\n    tag_13:\n        /* \"contracts/ExampleWrapAround.sol\":440:446  myUint */\n      0x00\n      dup1\n        /* \"contracts/ExampleWrapAround.sol\":440:448  myUint-- */\n      dup2\n      sload\n      dup1\n      swap3\n      swap2\n      swap1\n      0x01\n      swap1\n      sub\n      swap2\n      swap1\n      pop\n      sstore\n      pop\n        /* \"contracts/ExampleWrapAround.sol\":372:477  function decrementUInt() public {\r... */\n      jump\t// out\n        /* \"contracts/ExampleWrapAround.sol\":303:364  function incrementUint8() public {\r... */\n    tag_15:\n        /* \"contracts/ExampleWrapAround.sol\":347:354  myUint8 */\n      0x01\n      0x00\n        /* \"contracts/ExampleWrapAround.sol\":347:356  myUint8++ */\n      dup2\n      dup2\n      swap1\n      sload\n      swap1\n      0x0100\n      exp\n      swap1\n      div\n      0xff\n      and\n      dup1\n      swap3\n      swap2\n      swap1\n      tag_26\n      swap1\n      tag_27\n      jump\t// in\n    tag_26:\n      swap2\n      swap1\n      0x0100\n      exp\n      dup2\n      sload\n      dup2\n      0xff\n      mul\n      not\n      and\n      swap1\n      dup4\n      0xff\n      and\n      mul\n      or\n      swap1\n      sstore\n      pop\n      pop\n        /* \"contracts/ExampleWrapAround.sol\":303:364  function incrementUint8() public {\r... */\n      jump\t// out\n        /* \"contracts/ExampleWrapAround.sol\":181:207  uint8 public myUint8 = 250 */\n    tag_17:\n      0x01\n      0x00\n      swap1\n      sload\n      swap1\n      0x0100\n      exp\n      swap1\n      div\n      0xff\n      and\n      dup2\n      jump\t// out\n        /* \"contracts/ExampleWrapAround.sol\":220:295  function setMyUint(uint _myUint) public {\r... */\n    tag_23:\n        /* \"contracts/ExampleWrapAround.sol\":280:287  _myUint */\n      dup1\n        /* \"contracts/ExampleWrapAround.sol\":271:277  myUint */\n      0x00\n        /* \"contracts/ExampleWrapAround.sol\":271:287  myUint = _myUint */\n      dup2\n      swap1\n      sstore\n      pop\n        /* \"contracts/ExampleWrapAround.sol\":220:295  function setMyUint(uint _myUint) public {\r... */\n      pop\n      jump\t// out\n        /* \"#utility.yul\":7:146   */\n    tag_30:\n        /* \"#utility.yul\":53:58   */\n      0x00\n        /* \"#utility.yul\":91:97   */\n      dup2\n        /* \"#utility.yul\":78:98   */\n      calldataload\n        /* \"#utility.yul\":69:98   */\n      swap1\n      pop\n        /* \"#utility.yul\":107:140   */\n      tag_32\n        /* \"#utility.yul\":134:139   */\n      dup2\n        /* \"#utility.yul\":107:140   */\n      tag_33\n      jump\t// in\n    tag_32:\n        /* \"#utility.yul\":7:146   */\n      swap3\n      swap2\n      pop\n      pop\n      jump\t// out\n        /* \"#utility.yul\":152:481   */\n    tag_22:\n        /* \"#utility.yul\":211:217   */\n      0x00\n        /* \"#utility.yul\":260:262   */\n      0x20\n        /* \"#utility.yul\":248:257   */\n      dup3\n        /* \"#utility.yul\":239:246   */\n      dup5\n        /* \"#utility.yul\":235:258   */\n      sub\n        /* \"#utility.yul\":231:263   */\n      slt\n        /* \"#utility.yul\":228:347   */\n      iszero\n      tag_35\n      jumpi\n        /* \"#utility.yul\":266:345   */\n      tag_36\n      tag_37\n      jump\t// in\n    tag_36:\n        /* \"#utility.yul\":228:347   */\n    tag_35:\n        /* \"#utility.yul\":386:387   */\n      0x00\n        /* \"#utility.yul\":411:464   */\n      tag_38\n        /* \"#utility.yul\":456:463   */\n      dup5\n        /* \"#utility.yul\":447:453   */\n      dup3\n        /* \"#utility.yul\":436:445   */\n      dup6\n        /* \"#utility.yul\":432:454   */\n      add\n        /* \"#utility.yul\":411:464   */\n      tag_30\n      jump\t// in\n    tag_38:\n        /* \"#utility.yul\":401:464   */\n      swap2\n      pop\n        /* \"#utility.yul\":357:474   */\n      pop\n        /* \"#utility.yul\":152:481   */\n      swap3\n      swap2\n      pop\n      pop\n      jump\t// out\n        /* \"#utility.yul\":487:605   */\n    tag_39:\n        /* \"#utility.yul\":574:598   */\n      tag_41\n        /* \"#utility.yul\":592:597   */\n      dup2\n        /* \"#utility.yul\":574:598   */\n      tag_42\n      jump\t// in\n    tag_41:\n        /* \"#utility.yul\":569:572   */\n      dup3\n        /* \"#utility.yul\":562:599   */\n      mstore\n        /* \"#utility.yul\":487:605   */\n      pop\n      pop\n      jump\t// out\n        /* \"#utility.yul\":611:723   */\n    tag_43:\n        /* \"#utility.yul\":694:716   */\n      tag_45\n        /* \"#utility.yul\":710:715   */\n      dup2\n        /* \"#utility.yul\":694:716   */\n      tag_46\n      jump\t// in\n    tag_45:\n        /* \"#utility.yul\":689:692   */\n      dup3\n        /* \"#utility.yul\":682:717   */\n      mstore\n        /* \"#utility.yul\":611:723   */\n      pop\n      pop\n      jump\t// out\n        /* \"#utility.yul\":729:951   */\n    tag_11:\n        /* \"#utility.yul\":822:826   */\n      0x00\n        /* \"#utility.yul\":860:862   */\n      0x20\n        /* \"#utility.yul\":849:858   */\n      dup3\n        /* \"#utility.yul\":845:863   */\n      add\n        /* \"#utility.yul\":837:863   */\n      swap1\n      pop\n        /* \"#utility.yul\":873:944   */\n      tag_48\n        /* \"#utility.yul\":941:942   */\n      0x00\n        /* \"#utility.yul\":930:939   */\n      dup4\n        /* \"#utility.yul\":926:943   */\n      add\n        /* \"#utility.yul\":917:923   */\n      dup5\n        /* \"#utility.yul\":873:944   */\n      tag_39\n      jump\t// in\n    tag_48:\n        /* \"#utility.yul\":729:951   */\n      swap3\n      swap2\n      pop\n      pop\n      jump\t// out\n        /* \"#utility.yul\":957:1171   */\n    tag_19:\n        /* \"#utility.yul\":1046:1050   */\n      0x00\n        /* \"#utility.yul\":1084:1086   */\n      0x20\n        /* \"#utility.yul\":1073:1082   */\n      dup3\n        /* \"#utility.yul\":1069:1087   */\n      add\n        /* \"#utility.yul\":1061:1087   */\n      swap1\n      pop\n        /* \"#utility.yul\":1097:1164   */\n      tag_50\n        /* \"#utility.yul\":1161:1162   */\n      0x00\n        /* \"#utility.yul\":1150:1159   */\n      dup4\n        /* \"#utility.yul\":1146:1163   */\n      add\n        /* \"#utility.yul\":1137:1143   */\n      dup5\n        /* \"#utility.yul\":1097:1164   */\n      tag_43\n      jump\t// in\n    tag_50:\n        /* \"#utility.yul\":957:1171   */\n      swap3\n      swap2\n      pop\n      pop\n      jump\t// out\n        /* \"#utility.yul\":1258:1335   */\n    tag_42:\n        /* \"#utility.yul\":1295:1302   */\n      0x00\n        /* \"#utility.yul\":1324:1329   */\n      dup2\n        /* \"#utility.yul\":1313:1329   */\n      swap1\n      pop\n        /* \"#utility.yul\":1258:1335   */\n      swap2\n      swap1\n      pop\n      jump\t// out\n        /* \"#utility.yul\":1341:1427   */\n    tag_46:\n        /* \"#utility.yul\":1376:1383   */\n      0x00\n        /* \"#utility.yul\":1416:1420   */\n      0xff\n        /* \"#utility.yul\":1409:1414   */\n      dup3\n        /* \"#utility.yul\":1405:1421   */\n      and\n        /* \"#utility.yul\":1394:1421   */\n      swap1\n      pop\n        /* \"#utility.yul\":1341:1427   */\n      swap2\n      swap1\n      pop\n      jump\t// out\n        /* \"#utility.yul\":1433:1600   */\n    tag_27:\n        /* \"#utility.yul\":1470:1473   */\n      0x00\n        /* \"#utility.yul\":1493:1515   */\n      tag_56\n        /* \"#utility.yul\":1509:1514   */\n      dup3\n        /* \"#utility.yul\":1493:1515   */\n      tag_46\n      jump\t// in\n    tag_56:\n        /* \"#utility.yul\":1484:1515   */\n      swap2\n      pop\n        /* \"#utility.yul\":1537:1541   */\n      0xff\n        /* \"#utility.yul\":1530:1535   */\n      dup3\n        /* \"#utility.yul\":1527:1542   */\n      eq\n        /* \"#utility.yul\":1524:1565   */\n      iszero\n      tag_57\n      jumpi\n        /* \"#utility.yul\":1545:1563   */\n      tag_58\n      tag_59\n      jump\t// in\n    tag_58:\n        /* \"#utility.yul\":1524:1565   */\n    tag_57:\n        /* \"#utility.yul\":1592:1593   */\n      0x01\n        /* \"#utility.yul\":1585:1590   */\n      dup3\n        /* \"#utility.yul\":1581:1594   */\n      add\n        /* \"#utility.yul\":1574:1594   */\n      swap1\n      pop\n        /* \"#utility.yul\":1433:1600   */\n      swap2\n      swap1\n      pop\n      jump\t// out\n        /* \"#utility.yul\":1606:1786   */\n    tag_59:\n        /* \"#utility.yul\":1654:1731   */\n      0x4e487b7100000000000000000000000000000000000000000000000000000000\n        /* \"#utility.yul\":1651:1652   */\n      0x00\n        /* \"#utility.yul\":1644:1732   */\n      mstore\n        /* \"#utility.yul\":1751:1755   */\n      0x11\n        /* \"#utility.yul\":1748:1749   */\n      0x04\n        /* \"#utility.yul\":1741:1756   */\n      mstore\n        /* \"#utility.yul\":1775:1779   */\n      0x24\n        /* \"#utility.yul\":1772:1773   */\n      0x00\n        /* \"#utility.yul\":1765:1780   */\n      revert\n        /* \"#utility.yul\":1915:2032   */\n    tag_37:\n        /* \"#utility.yul\":2024:2025   */\n      0x00\n        /* \"#utility.yul\":2021:2022   */\n      dup1\n        /* \"#utility.yul\":2014:2026   */\n      revert\n        /* \"#utility.yul\":2038:2160   */\n    tag_33:\n        /* \"#utility.yul\":2111:2135   */\n      tag_65\n        /* \"#utility.yul\":2129:2134   */\n      dup2\n        /* \"#utility.yul\":2111:2135   */\n      tag_42\n      jump\t// in\n    tag_65:\n        /* \"#utility.yul\":2104:2109   */\n      dup2\n        /* \"#utility.yul\":2101:2136   */\n      eq\n        /* \"#utility.yul\":2091:2154   */\n      tag_66\n      jumpi\n        /* \"#utility.yul\":2150:2151   */\n      0x00\n        /* \"#utility.yul\":2147:2148   */\n      dup1\n        /* \"#utility.yul\":2140:2152   */\n      revert\n        /* \"#utility.yul\":2091:2154   */\n    tag_66:\n        /* \"#utility.yul\":2038:2160   */\n      pop\n      jump\t// out\n\n    auxdata: 0xa264697066735822122061a25f14cd5c9c958c8513800e1fd77ecd1c016886c8386379f4ca585b82b0b464736f6c63430008070033\n}\n",
				"bytecode": {
					"linkReferences": {},
					"object": "608060405260fa600160006101000a81548160ff021916908360ff16021790555034801561002c57600080fd5b506102918061003c6000396000f3fe608060405234801561001057600080fd5b50600436106100575760003560e01c806306540f7e1461005c5780634bbfd7271461007a57806384ea360614610084578063e2a4b2af1461008e578063e492fd84146100ac575b600080fd5b6100646100c8565b6040516100719190610199565b60405180910390f35b6100826100ce565b005b61008c6100e2565b005b61009661011c565b6040516100a391906101b4565b60405180910390f35b6100c660048036038101906100c1919061014e565b61012f565b005b60005481565b600080815480929190600190039190505550565b6001600081819054906101000a900460ff1680929190610101906101e6565b91906101000a81548160ff021916908360ff16021790555050565b600160009054906101000a900460ff1681565b8060008190555050565b60008135905061014881610244565b92915050565b6000602082840312156101645761016361023f565b5b600061017284828501610139565b91505092915050565b610184816101cf565b82525050565b610193816101d9565b82525050565b60006020820190506101ae600083018461017b565b92915050565b60006020820190506101c9600083018461018a565b92915050565b6000819050919050565b600060ff82169050919050565b60006101f1826101d9565b915060ff82141561020557610204610210565b5b600182019050919050565b7f4e487b7100000000000000000000000000000000000000000000000000000000600052601160045260246000fd5b600080fd5b61024d816101cf565b811461025857600080fd5b5056fea264697066735822122061a25f14cd5c9c958c8513800e1fd77ecd1c016886c8386379f4ca585b82b0b464736f6c63430008070033",
					"opcodes": "PUSH1 0x80 PUSH1 0x40 MSTORE PUSH1 0xFA PUSH1 0x1 PUSH1 0x0 PUSH2 0x100 EXP DUP2 SLOAD DUP2 PUSH1 0xFF MUL NOT AND SWAP1 DUP4 PUSH1 0xFF AND MUL OR SWAP1 SSTORE POP CALLVALUE DUP1 ISZERO PUSH2 0x2C JUMPI PUSH1 0x0 DUP1 REVERT JUMPDEST POP PUSH2 0x291 DUP1 PUSH2 0x3C PUSH1 0x0 CODECOPY PUSH1 0x0 RETURN INVALID PUSH1 0x80 PUSH1 0x40 MSTORE CALLVALUE DUP1 ISZERO PUSH2 0x10 JUMPI PUSH1 0x0 DUP1 REVERT JUMPDEST POP PUSH1 0x4 CALLDATASIZE LT PUSH2 0x57 JUMPI PUSH1 0x0 CALLDATALOAD PUSH1 0xE0 SHR DUP1 PUSH4 0x6540F7E EQ PUSH2 0x5C JUMPI DUP1 PUSH4 0x4BBFD727 EQ PUSH2 0x7A JUMPI DUP1 PUSH4 0x84EA3606 EQ PUSH2 0x84 JUMPI DUP1 PUSH4 0xE2A4B2AF EQ PUSH2 0x8E JUMPI DUP1 PUSH4 0xE492FD84 EQ PUSH2 0xAC JUMPI JUMPDEST PUSH1 0x0 DUP1 REVERT JUMPDEST PUSH2 0x64 PUSH2 0xC8 JUMP JUMPDEST PUSH1 0x40 MLOAD PUSH2 0x71 SWAP2 SWAP1 PUSH2 0x199 JUMP JUMPDEST PUSH1 0x40 MLOAD DUP1 SWAP2 SUB SWAP1 RETURN JUMPDEST PUSH2 0x82 PUSH2 0xCE JUMP JUMPDEST STOP JUMPDEST PUSH2 0x8C PUSH2 0xE2 JUMP JUMPDEST STOP JUMPDEST PUSH2 0x96 PUSH2 0x11C JUMP JUMPDEST PUSH1 0x40 MLOAD PUSH2 0xA3 SWAP2 SWAP1 PUSH2 0x1B4 JUMP JUMPDEST PUSH1 0x40 MLOAD DUP1 SWAP2 SUB SWAP1 RETURN JUMPDEST PUSH2 0xC6 PUSH1 0x4 DUP1 CALLDATASIZE SUB DUP2 ADD SWAP1 PUSH2 0xC1 SWAP2 SWAP1 PUSH2 0x14E JUMP JUMPDEST PUSH2 0x12F JUMP JUMPDEST STOP JUMPDEST PUSH1 0x0 SLOAD DUP2 JUMP JUMPDEST PUSH1 0x0 DUP1 DUP2 SLOAD DUP1 SWAP3 SWAP2 SWAP1 PUSH1 0x1 SWAP1 SUB SWAP2 SWAP1 POP SSTORE POP JUMP JUMPDEST PUSH1 0x1 PUSH1 0x0 DUP2 DUP2 SWAP1 SLOAD SWAP1 PUSH2 0x100 EXP SWAP1 DIV PUSH1 0xFF AND DUP1 SWAP3 SWAP2 SWAP1 PUSH2 0x101 SWAP1 PUSH2 0x1E6 JUMP JUMPDEST SWAP2 SWAP1 PUSH2 0x100 EXP DUP2 SLOAD DUP2 PUSH1 0xFF MUL NOT AND SWAP1 DUP4 PUSH1 0xFF AND MUL OR SWAP1 SSTORE POP POP JUMP JUMPDEST PUSH1 0x1 PUSH1 0x0 SWAP1 SLOAD SWAP1 PUSH2 0x100 EXP SWAP1 DIV PUSH1 0xFF AND DUP2 JUMP JUMPDEST DUP1 PUSH1 0x0 DUP2 SWAP1 SSTORE POP POP JUMP JUMPDEST PUSH1 0x0 DUP2 CALLDATALOAD SWAP1 POP PUSH2 0x148 DUP2 PUSH2 0x244 JUMP JUMPDEST SWAP3 SWAP2 POP POP JUMP JUMPDEST PUSH1 0x0 PUSH1 0x20 DUP3 DUP5 SUB SLT ISZERO PUSH2 0x164 JUMPI PUSH2 0x163 PUSH2 0x23F JUMP JUMPDEST JUMPDEST PUSH1 0x0 PUSH2 0x172 DUP5 DUP3 DUP6 ADD PUSH2 0x139 JUMP JUMPDEST SWAP2 POP POP SWAP3 SWAP2 POP POP JUMP JUMPDEST PUSH2 0x184 DUP2 PUSH2 0x1CF JUMP JUMPDEST DUP3 MSTORE POP POP JUMP JUMPDEST PUSH2 0x193 DUP2 PUSH2 0x1D9 JUMP JUMPDEST DUP3 MSTORE POP POP JUMP JUMPDEST PUSH1 0x0 PUSH1 0x20 DUP3 ADD SWAP1 POP PUSH2 0x1AE PUSH1 0x0 DUP4 ADD DUP5 PUSH2 0x17B JUMP JUMPDEST SWAP3 SWAP2 POP POP JUMP JUMPDEST PUSH1 0x0 PUSH1 0x20 DUP3 ADD SWAP1 POP PUSH2 0x1C9 PUSH1 0x0 DUP4 ADD DUP5 PUSH2 0x18A JUMP JUMPDEST SWAP3 SWAP2 POP POP JUMP JUMPDEST PUSH1 0x0 DUP2 SWAP1 POP SWAP2 SWAP1 POP JUMP JUMPDEST PUSH1 0x0 PUSH1 0xFF DUP3 AND SWAP1 POP SWAP2 SWAP1 POP JUMP JUMPDEST PUSH1 0x0 PUSH2 0x1F1 DUP3 PUSH2 0x1D9 JUMP JUMPDEST SWAP2 POP PUSH1 0xFF DUP3 EQ ISZERO PUSH2 0x205 JUMPI PUSH2 0x204 PUSH2 0x210 JUMP JUMPDEST JUMPDEST PUSH1 0x1 DUP3 ADD SWAP1 POP SWAP2 SWAP1 POP JUMP JUMPDEST PUSH32 0x4E487B7100000000000000000000000000000000000000000000000000000000 PUSH1 0x0 MSTORE PUSH1 0x11 PUSH1 0x4 MSTORE PUSH1 0x24 PUSH1 0x0 REVERT JUMPDEST PUSH1 0x0 DUP1 REVERT JUMPDEST PUSH2 0x24D DUP2 PUSH2 0x1CF JUMP JUMPDEST DUP2 EQ PUSH2 0x258 JUMPI PUSH1 0x0 DUP1 REVERT JUMPDEST POP JUMP INVALID LOG2 PUSH5 0x6970667358 0x22 SLT KECCAK256 PUSH2 0xA25F EQ 0xCD 0x5C SWAP13 SWAP6 DUP13 DUP6 SGT DUP1 0xE 0x1F 0xD7 PUSH31 0xCD1C016886C8386379F4CA585B82B0B464736F6C6343000807003300000000 "
				},
				"gasEstimates": {
					"creation": {
						"codeDepositCost": "131400",
						"executionCost": "24444",
						"totalCost": "155844"
					},
					"external": {
						"decrementUInt()": "24384",
						"incrementUint8()": "26724",
						"myUint()": "2407",
						"myUint8()": "2515",
						"setMyUint(uint256)": "22586"
					}
				},
				"methodIdentifiers": {
					"decrementUInt()": "4bbfd727",
					"incrementUint8()": "84ea3606",
					"myUint()": "06540f7e",
					"myUint8()": "e2a4b2af",
					"setMyUint(uint256)": "e492fd84"
				}
			},
			"storageLayout": {
				"storage": [
					{
						"astId": 3,
						"contract": "contracts/ExampleWrapAround.sol:ExampleWrapAround",
						"label": "myUint",
						"offset": 0,
						"slot": "0",
						"type": "t_uint256"
					},
					{
						"astId": 6,
						"contract": "contracts/ExampleWrapAround.sol:ExampleWrapAround",
						"label": "myUint8",
						"offset": 0,
						"slot": "1",
						"type": "t_uint8"
					}
				],
				"types": {
					"t_uint256": {
						"encoding": "inplace",
						"label": "uint256",
						"numberOfBytes": "32"
					},
					"t_uint8": {
						"encoding": "inplace",
						"label": "uint8",
						"numberOfBytes": "1"
					}
				}
			},
			"userdoc": {
				"kind": "user",
				"methods": {},
				"version": 1
			}
		}
	}
}