{
	"contracts/ExampleUint.sol": {
		"ExampleUint": {
			"abi": [
				{
					"inputs": [],
					"name": "decrementUInt",
					"outputs": [],
					"stateMutability": "nonpayable",
					"type": "function"
				},
				{
					"inputs": [],
					"name": "incrementInt",
					"outputs": [],
					"stateMutability": "nonpayable",
					"type": "function"
				},
				{
					"inputs": [],
					"name": "incrementUint8",
					"outputs": [],
					"stateMutability": "nonpayable",
					"type": "function"
				},
				{
					"inputs": [],
					"name": "myInt",
					"outputs": [
						{
							"internalType": "int256",
							"name": "",
							"type": "int256"
						}
					],
					"stateMutability": "view",
					"type": "function"
				},
				{
					"inputs": [],
					"name": "myUint",
					"outputs": [
						{
							"internalType": "uint256",
							"name": "",
							"type": "uint256"
						}
					],
					"stateMutability": "view",
					"type": "function"
				},
				{
					"inputs": [],
					"name": "myUint16",
					"outputs": [
						{
							"internalType": "uint16",
							"name": "",
							"type": "uint16"
						}
					],
					"stateMutability": "view",
					"type": "function"
				},
				{
					"inputs": [],
					"name": "myUint2",
					"outputs": [
						{
							"internalType": "uint256",
							"name": "",
							"type": "uint256"
						}
					],
					"stateMutability": "view",
					"type": "function"
				},
				{
					"inputs": [],
					"name": "myUint8",
					"outputs": [
						{
							"internalType": "uint8",
							"name": "",
							"type": "uint8"
						}
					],
					"stateMutability": "view",
					"type": "function"
				},
				{
					"inputs": [
						{
							"internalType": "uint256",
							"name": "_myUint",
							"type": "uint256"
						}
					],
					"name": "setMyUint",
					"outputs": [],
					"stateMutability": "nonpayable",
					"type": "function"
				}
			],
			"devdoc": {
				"kind": "dev",
				"methods": {},
				"version": 1
			},
			"evm": {
				"assembly": "    /* \"contracts/ExampleUint.sol\":60:1921  contract ExampleUint {\r... */\n  mstore(0x40, 0x80)\n    /* \"contracts/ExampleUint.sol\":287:294  2141253 */\n  0x20ac45\n    /* \"contracts/ExampleUint.sol\":265:294  uint public myUint2 = 2141253 */\n  0x01\n  sstore\n    /* \"contracts/ExampleUint.sol\":326:329  250 */\n  0xfa\n    /* \"contracts/ExampleUint.sol\":303:329  uint8 public myUint8 = 250 */\n  0x02\n  exp(0x0100, 0x00)\n  dup2\n  sload\n  dup2\n  0xff\n  mul\n  not\n  and\n  swap1\n  dup4\n  0xff\n  and\n  mul\n  or\n  swap1\n  sstore\n  pop\n    /* \"contracts/ExampleUint.sol\":1065:1068  -10 */\n  0xfffffffffffffffffffffffffffffffffffffffffffffffffffffffffffffff6\n    /* \"contracts/ExampleUint.sol\":1046:1068  int public myInt = -10 */\n  0x03\n  sstore\n    /* \"contracts/ExampleUint.sol\":60:1921  contract ExampleUint {\r... */\n  callvalue\n  dup1\n  iszero\n  tag_1\n  jumpi\n  0x00\n  dup1\n  revert\ntag_1:\n  pop\n  dataSize(sub_0)\n  dup1\n  dataOffset(sub_0)\n  0x00\n  codecopy\n  0x00\n  return\nstop\n\nsub_0: assembly {\n        /* \"contracts/ExampleUint.sol\":60:1921  contract ExampleUint {\r... */\n      mstore(0x40, 0x80)\n      callvalue\n      dup1\n      iszero\n      tag_1\n      jumpi\n      0x00\n      dup1\n      revert\n    tag_1:\n      pop\n      jumpi(tag_2, lt(calldatasize, 0x04))\n      shr(0xe0, calldataload(0x00))\n      dup1\n      0x8e2dc2cb\n      gt\n      tag_12\n      jumpi\n      dup1\n      0x8e2dc2cb\n      eq\n      tag_7\n      jumpi\n      dup1\n      0xaa9cc775\n      eq\n      tag_8\n      jumpi\n      dup1\n      0xe2a4b2af\n      eq\n      tag_9\n      jumpi\n      dup1\n      0xe492fd84\n      eq\n      tag_10\n      jumpi\n      dup1\n      0xf102a71d\n      eq\n      tag_11\n      jumpi\n      jump(tag_2)\n    tag_12:\n      dup1\n      0x06540f7e\n      eq\n      tag_3\n      jumpi\n      dup1\n      0x2cb777a6\n      eq\n      tag_4\n      jumpi\n      dup1\n      0x4bbfd727\n      eq\n      tag_5\n      jumpi\n      dup1\n      0x84ea3606\n      eq\n      tag_6\n      jumpi\n    tag_2:\n      0x00\n      dup1\n      revert\n        /* \"contracts/ExampleUint.sol\":199:220  uint256 public myUint */\n    tag_3:\n      tag_13\n      tag_14\n      jump\t// in\n    tag_13:\n      mload(0x40)\n      tag_15\n      swap2\n      swap1\n      tag_16\n      jump\t// in\n    tag_15:\n      mload(0x40)\n      dup1\n      swap2\n      sub\n      swap1\n      return\n        /* \"contracts/ExampleUint.sol\":1046:1068  int public myInt = -10 */\n    tag_4:\n      tag_17\n      tag_18\n      jump\t// in\n    tag_17:\n      mload(0x40)\n      tag_19\n      swap2\n      swap1\n      tag_20\n      jump\t// in\n    tag_19:\n      mload(0x40)\n      dup1\n      swap2\n      sub\n      swap1\n      return\n        /* \"contracts/ExampleUint.sol\":1254:1313  function decrementUInt() public {\r... */\n    tag_5:\n      tag_21\n      tag_22\n      jump\t// in\n    tag_21:\n      stop\n        /* \"contracts/ExampleUint.sol\":1185:1246  function incrementUint8() public {\r... */\n    tag_6:\n      tag_23\n      tag_24\n      jump\t// in\n    tag_23:\n      stop\n        /* \"contracts/ExampleUint.sol\":998:1020  uint16 public myUint16 */\n    tag_7:\n      tag_25\n      tag_26\n      jump\t// in\n    tag_25:\n      mload(0x40)\n      tag_27\n      swap2\n      swap1\n      tag_28\n      jump\t// in\n    tag_27:\n      mload(0x40)\n      dup1\n      swap2\n      sub\n      swap1\n      return\n        /* \"contracts/ExampleUint.sol\":265:294  uint public myUint2 = 2141253 */\n    tag_8:\n      tag_29\n      tag_30\n      jump\t// in\n    tag_29:\n      mload(0x40)\n      tag_31\n      swap2\n      swap1\n      tag_16\n      jump\t// in\n    tag_31:\n      mload(0x40)\n      dup1\n      swap2\n      sub\n      swap1\n      return\n        /* \"contracts/ExampleUint.sol\":303:329  uint8 public myUint8 = 250 */\n    tag_9:\n      tag_32\n      tag_33\n      jump\t// in\n    tag_32:\n      mload(0x40)\n      tag_34\n      swap2\n      swap1\n      tag_35\n      jump\t// in\n    tag_34:\n      mload(0x40)\n      dup1\n      swap2\n      sub\n      swap1\n      return\n        /* \"contracts/ExampleUint.sol\":1102:1177  function setMyUint(uint _myUint) public {\r... */\n    tag_10:\n      tag_36\n      0x04\n      dup1\n      calldatasize\n      sub\n      dup2\n      add\n      swap1\n      tag_37\n      swap2\n      swap1\n      tag_38\n      jump\t// in\n    tag_37:\n      tag_39\n      jump\t// in\n    tag_36:\n      stop\n        /* \"contracts/ExampleUint.sol\":1321:1378  function incrementInt() public {\r... */\n    tag_11:\n      tag_40\n      tag_41\n      jump\t// in\n    tag_40:\n      stop\n        /* \"contracts/ExampleUint.sol\":199:220  uint256 public myUint */\n    tag_14:\n      sload(0x00)\n      dup2\n      jump\t// out\n        /* \"contracts/ExampleUint.sol\":1046:1068  int public myInt = -10 */\n    tag_18:\n      sload(0x03)\n      dup2\n      jump\t// out\n        /* \"contracts/ExampleUint.sol\":1254:1313  function decrementUInt() public {\r... */\n    tag_22:\n        /* \"contracts/ExampleUint.sol\":1297:1303  myUint */\n      0x00\n      dup1\n        /* \"contracts/ExampleUint.sol\":1297:1305  myUint-- */\n      dup2\n      sload\n      dup1\n      swap3\n      swap2\n      swap1\n      tag_43\n      swap1\n      tag_44\n      jump\t// in\n    tag_43:\n      swap2\n      swap1\n      pop\n      sstore\n      pop\n        /* \"contracts/ExampleUint.sol\":1254:1313  function decrementUInt() public {\r... */\n      jump\t// out\n        /* \"contracts/ExampleUint.sol\":1185:1246  function incrementUint8() public {\r... */\n    tag_24:\n        /* \"contracts/ExampleUint.sol\":1229:1236  myUint8 */\n      0x02\n      0x00\n        /* \"contracts/ExampleUint.sol\":1229:1238  myUint8++ */\n      dup2\n      dup2\n      swap1\n      sload\n      swap1\n      0x0100\n      exp\n      swap1\n      div\n      0xff\n      and\n      dup1\n      swap3\n      swap2\n      swap1\n      tag_46\n      swap1\n      tag_47\n      jump\t// in\n    tag_46:\n      swap2\n      swap1\n      0x0100\n      exp\n      dup2\n      sload\n      dup2\n      0xff\n      mul\n      not\n      and\n      swap1\n      dup4\n      0xff\n      and\n      mul\n      or\n      swap1\n      sstore\n      pop\n      pop\n        /* \"contracts/ExampleUint.sol\":1185:1246  function incrementUint8() public {\r... */\n      jump\t// out\n        /* \"contracts/ExampleUint.sol\":998:1020  uint16 public myUint16 */\n    tag_26:\n      0x02\n      0x01\n      swap1\n      sload\n      swap1\n      0x0100\n      exp\n      swap1\n      div\n      0xffff\n      and\n      dup2\n      jump\t// out\n        /* \"contracts/ExampleUint.sol\":265:294  uint public myUint2 = 2141253 */\n    tag_30:\n      sload(0x01)\n      dup2\n      jump\t// out\n        /* \"contracts/ExampleUint.sol\":303:329  uint8 public myUint8 = 250 */\n    tag_33:\n      0x02\n      0x00\n      swap1\n      sload\n      swap1\n      0x0100\n      exp\n      swap1\n      div\n      0xff\n      and\n      dup2\n      jump\t// out\n        /* \"contracts/ExampleUint.sol\":1102:1177  function setMyUint(uint _myUint) public {\r... */\n    tag_39:\n        /* \"contracts/ExampleUint.sol\":1162:1169  _myUint */\n      dup1\n        /* \"contracts/ExampleUint.sol\":1153:1159  myUint */\n      0x00\n        /* \"contracts/ExampleUint.sol\":1153:1169  myUint = _myUint */\n      dup2\n      swap1\n      sstore\n      pop\n        /* \"contracts/ExampleUint.sol\":1102:1177  function setMyUint(uint _myUint) public {\r... */\n      pop\n      jump\t// out\n        /* \"contracts/ExampleUint.sol\":1321:1378  function incrementInt() public {\r... */\n    tag_41:\n        /* \"contracts/ExampleUint.sol\":1363:1368  myInt */\n      0x03\n      0x00\n        /* \"contracts/ExampleUint.sol\":1363:1370  myInt++ */\n      dup2\n      sload\n      dup1\n      swap3\n      swap2\n      swap1\n      tag_50\n      swap1\n      tag_51\n      jump\t// in\n    tag_50:\n      swap2\n      swap1\n      pop\n      sstore\n      pop\n        /* \"contracts/ExampleUint.sol\":1321:1378  function incrementInt() public {\r... */\n      jump\t// out\n        /* \"#utility.yul\":7:146   */\n    tag_53:\n        /* \"#utility.yul\":53:58   */\n      0x00\n        /* \"#utility.yul\":91:97   */\n      dup2\n        /* \"#utility.yul\":78:98   */\n      calldataload\n        /* \"#utility.yul\":69:98   */\n      swap1\n      pop\n        /* \"#utility.yul\":107:140   */\n      tag_55\n        /* \"#utility.yul\":134:139   */\n      dup2\n        /* \"#utility.yul\":107:140   */\n      tag_56\n      jump\t// in\n    tag_55:\n        /* \"#utility.yul\":7:146   */\n      swap3\n      swap2\n      pop\n      pop\n      jump\t// out\n        /* \"#utility.yul\":152:481   */\n    tag_38:\n        /* \"#utility.yul\":211:217   */\n      0x00\n        /* \"#utility.yul\":260:262   */\n      0x20\n        /* \"#utility.yul\":248:257   */\n      dup3\n        /* \"#utility.yul\":239:246   */\n      dup5\n        /* \"#utility.yul\":235:258   */\n      sub\n        /* \"#utility.yul\":231:263   */\n      slt\n        /* \"#utility.yul\":228:347   */\n      iszero\n      tag_58\n      jumpi\n        /* \"#utility.yul\":266:345   */\n      tag_59\n      tag_60\n      jump\t// in\n    tag_59:\n        /* \"#utility.yul\":228:347   */\n    tag_58:\n        /* \"#utility.yul\":386:387   */\n      0x00\n        /* \"#utility.yul\":411:464   */\n      tag_61\n        /* \"#utility.yul\":456:463   */\n      dup5\n        /* \"#utility.yul\":447:453   */\n      dup3\n        /* \"#utility.yul\":436:445   */\n      dup6\n        /* \"#utility.yul\":432:454   */\n      add\n        /* \"#utility.yul\":411:464   */\n      tag_53\n      jump\t// in\n    tag_61:\n        /* \"#utility.yul\":401:464   */\n      swap2\n      pop\n        /* \"#utility.yul\":357:474   */\n      pop\n        /* \"#utility.yul\":152:481   */\n      swap3\n      swap2\n      pop\n      pop\n      jump\t// out\n        /* \"#utility.yul\":487:602   */\n    tag_62:\n        /* \"#utility.yul\":572:595   */\n      tag_64\n        /* \"#utility.yul\":589:594   */\n      dup2\n        /* \"#utility.yul\":572:595   */\n      tag_65\n      jump\t// in\n    tag_64:\n        /* \"#utility.yul\":567:570   */\n      dup3\n        /* \"#utility.yul\":560:596   */\n      mstore\n        /* \"#utility.yul\":487:602   */\n      pop\n      pop\n      jump\t// out\n        /* \"#utility.yul\":608:723   */\n    tag_66:\n        /* \"#utility.yul\":693:716   */\n      tag_68\n        /* \"#utility.yul\":710:715   */\n      dup2\n        /* \"#utility.yul\":693:716   */\n      tag_69\n      jump\t// in\n    tag_68:\n        /* \"#utility.yul\":688:691   */\n      dup3\n        /* \"#utility.yul\":681:717   */\n      mstore\n        /* \"#utility.yul\":608:723   */\n      pop\n      pop\n      jump\t// out\n        /* \"#utility.yul\":729:847   */\n    tag_70:\n        /* \"#utility.yul\":816:840   */\n      tag_72\n        /* \"#utility.yul\":834:839   */\n      dup2\n        /* \"#utility.yul\":816:840   */\n      tag_73\n      jump\t// in\n    tag_72:\n        /* \"#utility.yul\":811:814   */\n      dup3\n        /* \"#utility.yul\":804:841   */\n      mstore\n        /* \"#utility.yul\":729:847   */\n      pop\n      pop\n      jump\t// out\n        /* \"#utility.yul\":853:965   */\n    tag_74:\n        /* \"#utility.yul\":936:958   */\n      tag_76\n        /* \"#utility.yul\":952:957   */\n      dup2\n        /* \"#utility.yul\":936:958   */\n      tag_77\n      jump\t// in\n    tag_76:\n        /* \"#utility.yul\":931:934   */\n      dup3\n        /* \"#utility.yul\":924:959   */\n      mstore\n        /* \"#utility.yul\":853:965   */\n      pop\n      pop\n      jump\t// out\n        /* \"#utility.yul\":971:1189   */\n    tag_20:\n        /* \"#utility.yul\":1062:1066   */\n      0x00\n        /* \"#utility.yul\":1100:1102   */\n      0x20\n        /* \"#utility.yul\":1089:1098   */\n      dup3\n        /* \"#utility.yul\":1085:1103   */\n      add\n        /* \"#utility.yul\":1077:1103   */\n      swap1\n      pop\n        /* \"#utility.yul\":1113:1182   */\n      tag_79\n        /* \"#utility.yul\":1179:1180   */\n      0x00\n        /* \"#utility.yul\":1168:1177   */\n      dup4\n        /* \"#utility.yul\":1164:1181   */\n      add\n        /* \"#utility.yul\":1155:1161   */\n      dup5\n        /* \"#utility.yul\":1113:1182   */\n      tag_62\n      jump\t// in\n    tag_79:\n        /* \"#utility.yul\":971:1189   */\n      swap3\n      swap2\n      pop\n      pop\n      jump\t// out\n        /* \"#utility.yul\":1195:1413   */\n    tag_28:\n        /* \"#utility.yul\":1286:1290   */\n      0x00\n        /* \"#utility.yul\":1324:1326   */\n      0x20\n        /* \"#utility.yul\":1313:1322   */\n      dup3\n        /* \"#utility.yul\":1309:1327   */\n      add\n        /* \"#utility.yul\":1301:1327   */\n      swap1\n      pop\n        /* \"#utility.yul\":1337:1406   */\n      tag_81\n        /* \"#utility.yul\":1403:1404   */\n      0x00\n        /* \"#utility.yul\":1392:1401   */\n      dup4\n        /* \"#utility.yul\":1388:1405   */\n      add\n        /* \"#utility.yul\":1379:1385   */\n      dup5\n        /* \"#utility.yul\":1337:1406   */\n      tag_66\n      jump\t// in\n    tag_81:\n        /* \"#utility.yul\":1195:1413   */\n      swap3\n      swap2\n      pop\n      pop\n      jump\t// out\n        /* \"#utility.yul\":1419:1641   */\n    tag_16:\n        /* \"#utility.yul\":1512:1516   */\n      0x00\n        /* \"#utility.yul\":1550:1552   */\n      0x20\n        /* \"#utility.yul\":1539:1548   */\n      dup3\n        /* \"#utility.yul\":1535:1553   */\n      add\n        /* \"#utility.yul\":1527:1553   */\n      swap1\n      pop\n        /* \"#utility.yul\":1563:1634   */\n      tag_83\n        /* \"#utility.yul\":1631:1632   */\n      0x00\n        /* \"#utility.yul\":1620:1629   */\n      dup4\n        /* \"#utility.yul\":1616:1633   */\n      add\n        /* \"#utility.yul\":1607:1613   */\n      dup5\n        /* \"#utility.yul\":1563:1634   */\n      tag_70\n      jump\t// in\n    tag_83:\n        /* \"#utility.yul\":1419:1641   */\n      swap3\n      swap2\n      pop\n      pop\n      jump\t// out\n        /* \"#utility.yul\":1647:1861   */\n    tag_35:\n        /* \"#utility.yul\":1736:1740   */\n      0x00\n        /* \"#utility.yul\":1774:1776   */\n      0x20\n        /* \"#utility.yul\":1763:1772   */\n      dup3\n        /* \"#utility.yul\":1759:1777   */\n      add\n        /* \"#utility.yul\":1751:1777   */\n      swap1\n      pop\n        /* \"#utility.yul\":1787:1854   */\n      tag_85\n        /* \"#utility.yul\":1851:1852   */\n      0x00\n        /* \"#utility.yul\":1840:1849   */\n      dup4\n        /* \"#utility.yul\":1836:1853   */\n      add\n        /* \"#utility.yul\":1827:1833   */\n      dup5\n        /* \"#utility.yul\":1787:1854   */\n      tag_74\n      jump\t// in\n    tag_85:\n        /* \"#utility.yul\":1647:1861   */\n      swap3\n      swap2\n      pop\n      pop\n      jump\t// out\n        /* \"#utility.yul\":1948:2024   */\n    tag_65:\n        /* \"#utility.yul\":1984:1991   */\n      0x00\n        /* \"#utility.yul\":2013:2018   */\n      dup2\n        /* \"#utility.yul\":2002:2018   */\n      swap1\n      pop\n        /* \"#utility.yul\":1948:2024   */\n      swap2\n      swap1\n      pop\n      jump\t// out\n        /* \"#utility.yul\":2030:2119   */\n    tag_69:\n        /* \"#utility.yul\":2066:2073   */\n      0x00\n        /* \"#utility.yul\":2106:2112   */\n      0xffff\n        /* \"#utility.yul\":2099:2104   */\n      dup3\n        /* \"#utility.yul\":2095:2113   */\n      and\n        /* \"#utility.yul\":2084:2113   */\n      swap1\n      pop\n        /* \"#utility.yul\":2030:2119   */\n      swap2\n      swap1\n      pop\n      jump\t// out\n        /* \"#utility.yul\":2125:2202   */\n    tag_73:\n        /* \"#utility.yul\":2162:2169   */\n      0x00\n        /* \"#utility.yul\":2191:2196   */\n      dup2\n        /* \"#utility.yul\":2180:2196   */\n      swap1\n      pop\n        /* \"#utility.yul\":2125:2202   */\n      swap2\n      swap1\n      pop\n      jump\t// out\n        /* \"#utility.yul\":2208:2294   */\n    tag_77:\n        /* \"#utility.yul\":2243:2250   */\n      0x00\n        /* \"#utility.yul\":2283:2287   */\n      0xff\n        /* \"#utility.yul\":2276:2281   */\n      dup3\n        /* \"#utility.yul\":2272:2288   */\n      and\n        /* \"#utility.yul\":2261:2288   */\n      swap1\n      pop\n        /* \"#utility.yul\":2208:2294   */\n      swap2\n      swap1\n      pop\n      jump\t// out\n        /* \"#utility.yul\":2300:2471   */\n    tag_44:\n        /* \"#utility.yul\":2339:2342   */\n      0x00\n        /* \"#utility.yul\":2362:2386   */\n      tag_93\n        /* \"#utility.yul\":2380:2385   */\n      dup3\n        /* \"#utility.yul\":2362:2386   */\n      tag_73\n      jump\t// in\n    tag_93:\n        /* \"#utility.yul\":2353:2386   */\n      swap2\n      pop\n        /* \"#utility.yul\":2408:2412   */\n      0x00\n        /* \"#utility.yul\":2401:2406   */\n      dup3\n        /* \"#utility.yul\":2398:2413   */\n      eq\n        /* \"#utility.yul\":2395:2436   */\n      iszero\n      tag_94\n      jumpi\n        /* \"#utility.yul\":2416:2434   */\n      tag_95\n      tag_96\n      jump\t// in\n    tag_95:\n        /* \"#utility.yul\":2395:2436   */\n    tag_94:\n        /* \"#utility.yul\":2463:2464   */\n      0x01\n        /* \"#utility.yul\":2456:2461   */\n      dup3\n        /* \"#utility.yul\":2452:2465   */\n      sub\n        /* \"#utility.yul\":2445:2465   */\n      swap1\n      pop\n        /* \"#utility.yul\":2300:2471   */\n      swap2\n      swap1\n      pop\n      jump\t// out\n        /* \"#utility.yul\":2477:2708   */\n    tag_51:\n        /* \"#utility.yul\":2515:2518   */\n      0x00\n        /* \"#utility.yul\":2538:2561   */\n      tag_98\n        /* \"#utility.yul\":2555:2560   */\n      dup3\n        /* \"#utility.yul\":2538:2561   */\n      tag_65\n      jump\t// in\n    tag_98:\n        /* \"#utility.yul\":2529:2561   */\n      swap2\n      pop\n        /* \"#utility.yul\":2583:2649   */\n      0x7fffffffffffffffffffffffffffffffffffffffffffffffffffffffffffffff\n        /* \"#utility.yul\":2576:2581   */\n      dup3\n        /* \"#utility.yul\":2573:2650   */\n      eq\n        /* \"#utility.yul\":2570:2673   */\n      iszero\n      tag_99\n      jumpi\n        /* \"#utility.yul\":2653:2671   */\n      tag_100\n      tag_96\n      jump\t// in\n    tag_100:\n        /* \"#utility.yul\":2570:2673   */\n    tag_99:\n        /* \"#utility.yul\":2700:2701   */\n      0x01\n        /* \"#utility.yul\":2693:2698   */\n      dup3\n        /* \"#utility.yul\":2689:2702   */\n      add\n        /* \"#utility.yul\":2682:2702   */\n      swap1\n      pop\n        /* \"#utility.yul\":2477:2708   */\n      swap2\n      swap1\n      pop\n      jump\t// out\n        /* \"#utility.yul\":2714:2881   */\n    tag_47:\n        /* \"#utility.yul\":2751:2754   */\n      0x00\n        /* \"#utility.yul\":2774:2796   */\n      tag_102\n        /* \"#utility.yul\":2790:2795   */\n      dup3\n        /* \"#utility.yul\":2774:2796   */\n      tag_77\n      jump\t// in\n    tag_102:\n        /* \"#utility.yul\":2765:2796   */\n      swap2\n      pop\n        /* \"#utility.yul\":2818:2822   */\n      0xff\n        /* \"#utility.yul\":2811:2816   */\n      dup3\n        /* \"#utility.yul\":2808:2823   */\n      eq\n        /* \"#utility.yul\":2805:2846   */\n      iszero\n      tag_103\n      jumpi\n        /* \"#utility.yul\":2826:2844   */\n      tag_104\n      tag_96\n      jump\t// in\n    tag_104:\n        /* \"#utility.yul\":2805:2846   */\n    tag_103:\n        /* \"#utility.yul\":2873:2874   */\n      0x01\n        /* \"#utility.yul\":2866:2871   */\n      dup3\n        /* \"#utility.yul\":2862:2875   */\n      add\n        /* \"#utility.yul\":2855:2875   */\n      swap1\n      pop\n        /* \"#utility.yul\":2714:2881   */\n      swap2\n      swap1\n      pop\n      jump\t// out\n        /* \"#utility.yul\":2887:3067   */\n    tag_96:\n        /* \"#utility.yul\":2935:3012   */\n      0x4e487b7100000000000000000000000000000000000000000000000000000000\n        /* \"#utility.yul\":2932:2933   */\n      0x00\n        /* \"#utility.yul\":2925:3013   */\n      mstore\n        /* \"#utility.yul\":3032:3036   */\n      0x11\n        /* \"#utility.yul\":3029:3030   */\n      0x04\n        /* \"#utility.yul\":3022:3037   */\n      mstore\n        /* \"#utility.yul\":3056:3060   */\n      0x24\n        /* \"#utility.yul\":3053:3054   */\n      0x00\n        /* \"#utility.yul\":3046:3061   */\n      revert\n        /* \"#utility.yul\":3196:3313   */\n    tag_60:\n        /* \"#utility.yul\":3305:3306   */\n      0x00\n        /* \"#utility.yul\":3302:3303   */\n      dup1\n        /* \"#utility.yul\":3295:3307   */\n      revert\n        /* \"#utility.yul\":3319:3441   */\n    tag_56:\n        /* \"#utility.yul\":3392:3416   */\n      tag_110\n        /* \"#utility.yul\":3410:3415   */\n      dup2\n        /* \"#utility.yul\":3392:3416   */\n      tag_73\n      jump\t// in\n    tag_110:\n        /* \"#utility.yul\":3385:3390   */\n      dup2\n        /* \"#utility.yul\":3382:3417   */\n      eq\n        /* \"#utility.yul\":3372:3435   */\n      tag_111\n      jumpi\n        /* \"#utility.yul\":3431:3432   */\n      0x00\n        /* \"#utility.yul\":3428:3429   */\n      dup1\n        /* \"#utility.yul\":3421:3433   */\n      revert\n        /* \"#utility.yul\":3372:3435   */\n    tag_111:\n        /* \"#utility.yul\":3319:3441   */\n      pop\n      jump\t// out\n\n    auxdata: 0xa26469706673582212201a3dec456d08143bc1846793c1f45cd3a7acbf7dea148b23e2c4323a06c13fc164736f6c63430008070033\n}\n",
				"bytecode": {
					"linkReferences": {},
					"object": "60806040526220ac4560015560fa600260006101000a81548160ff021916908360ff1602179055507ffffffffffffffffffffffffffffffffffffffffffffffffffffffffffffffff660035534801561005757600080fd5b5061044f806100676000396000f3fe608060405234801561001057600080fd5b50600436106100935760003560e01c80638e2dc2cb116100665780638e2dc2cb146100e8578063aa9cc77514610106578063e2a4b2af14610124578063e492fd8414610142578063f102a71d1461015e57610093565b806306540f7e146100985780632cb777a6146100b65780634bbfd727146100d457806384ea3606146100de575b600080fd5b6100a0610168565b6040516100ad91906102cc565b60405180910390f35b6100be61016e565b6040516100cb9190610296565b60405180910390f35b6100dc610174565b005b6100e661018d565b005b6100f06101c7565b6040516100fd91906102b1565b60405180910390f35b61010e6101db565b60405161011b91906102cc565b60405180910390f35b61012c6101e1565b60405161013991906102e7565b60405180910390f35b61015c6004803603810190610157919061022d565b6101f4565b005b6101666101fe565b005b60005481565b60035481565b60008081548092919061018690610331565b9190505550565b6002600081819054906101000a900460ff16809291906101ac906103a4565b91906101000a81548160ff021916908360ff16021790555050565b600260019054906101000a900461ffff1681565b60015481565b600260009054906101000a900460ff1681565b8060008190555050565b600360008154809291906102119061035b565b9190505550565b60008135905061022781610402565b92915050565b600060208284031215610243576102426103fd565b5b600061025184828501610218565b91505092915050565b61026381610302565b82525050565b6102728161030c565b82525050565b6102818161031a565b82525050565b61029081610324565b82525050565b60006020820190506102ab600083018461025a565b92915050565b60006020820190506102c66000830184610269565b92915050565b60006020820190506102e16000830184610278565b92915050565b60006020820190506102fc6000830184610287565b92915050565b6000819050919050565b600061ffff82169050919050565b6000819050919050565b600060ff82169050919050565b600061033c8261031a565b915060008214156103505761034f6103ce565b5b600182039050919050565b600061036682610302565b91507f7fffffffffffffffffffffffffffffffffffffffffffffffffffffffffffffff821415610399576103986103ce565b5b600182019050919050565b60006103af82610324565b915060ff8214156103c3576103c26103ce565b5b600182019050919050565b7f4e487b7100000000000000000000000000000000000000000000000000000000600052601160045260246000fd5b600080fd5b61040b8161031a565b811461041657600080fd5b5056fea26469706673582212201a3dec456d08143bc1846793c1f45cd3a7acbf7dea148b23e2c4323a06c13fc164736f6c63430008070033",
					"opcodes": "PUSH1 0x80 PUSH1 0x40 MSTORE PUSH3 0x20AC45 PUSH1 0x1 SSTORE PUSH1 0xFA PUSH1 0x2 PUSH1 0x0 PUSH2 0x100 EXP DUP2 SLOAD DUP2 PUSH1 0xFF MUL NOT AND SWAP1 DUP4 PUSH1 0xFF AND MUL OR SWAP1 SSTORE POP PUSH32 0xFFFFFFFFFFFFFFFFFFFFFFFFFFFFFFFFFFFFFFFFFFFFFFFFFFFFFFFFFFFFFFF6 PUSH1 0x3 SSTORE CALLVALUE DUP1 ISZERO PUSH2 0x57 JUMPI PUSH1 0x0 DUP1 REVERT JUMPDEST POP PUSH2 0x44F DUP1 PUSH2 0x67 PUSH1 0x0 CODECOPY PUSH1 0x0 RETURN INVALID PUSH1 0x80 PUSH1 0x40 MSTORE CALLVALUE DUP1 ISZERO PUSH2 0x10 JUMPI PUSH1 0x0 DUP1 REVERT JUMPDEST POP PUSH1 0x4 CALLDATASIZE LT PUSH2 0x93 JUMPI PUSH1 0x0 CALLDATALOAD PUSH1 0xE0 SHR DUP1 PUSH4 0x8E2DC2CB GT PUSH2 0x66 JUMPI DUP1 PUSH4 0x8E2DC2CB EQ PUSH2 0xE8 JUMPI DUP1 PUSH4 0xAA9CC775 EQ PUSH2 0x106 JUMPI DUP1 PUSH4 0xE2A4B2AF EQ PUSH2 0x124 JUMPI DUP1 PUSH4 0xE492FD84 EQ PUSH2 0x142 JUMPI DUP1 PUSH4 0xF102A71D EQ PUSH2 0x15E JUMPI PUSH2 0x93 JUMP JUMPDEST DUP1 PUSH4 0x6540F7E EQ PUSH2 0x98 JUMPI DUP1 PUSH4 0x2CB777A6 EQ PUSH2 0xB6 JUMPI DUP1 PUSH4 0x4BBFD727 EQ PUSH2 0xD4 JUMPI DUP1 PUSH4 0x84EA3606 EQ PUSH2 0xDE JUMPI JUMPDEST PUSH1 0x0 DUP1 REVERT JUMPDEST PUSH2 0xA0 PUSH2 0x168 JUMP JUMPDEST PUSH1 0x40 MLOAD PUSH2 0xAD SWAP2 SWAP1 PUSH2 0x2CC JUMP JUMPDEST PUSH1 0x40 MLOAD DUP1 SWAP2 SUB SWAP1 RETURN JUMPDEST PUSH2 0xBE PUSH2 0x16E JUMP JUMPDEST PUSH1 0x40 MLOAD PUSH2 0xCB SWAP2 SWAP1 PUSH2 0x296 JUMP JUMPDEST PUSH1 0x40 MLOAD DUP1 SWAP2 SUB SWAP1 RETURN JUMPDEST PUSH2 0xDC PUSH2 0x174 JUMP JUMPDEST STOP JUMPDEST PUSH2 0xE6 PUSH2 0x18D JUMP JUMPDEST STOP JUMPDEST PUSH2 0xF0 PUSH2 0x1C7 JUMP JUMPDEST PUSH1 0x40 MLOAD PUSH2 0xFD SWAP2 SWAP1 PUSH2 0x2B1 JUMP JUMPDEST PUSH1 0x40 MLOAD DUP1 SWAP2 SUB SWAP1 RETURN JUMPDEST PUSH2 0x10E PUSH2 0x1DB JUMP JUMPDEST PUSH1 0x40 MLOAD PUSH2 0x11B SWAP2 SWAP1 PUSH2 0x2CC JUMP JUMPDEST PUSH1 0x40 MLOAD DUP1 SWAP2 SUB SWAP1 RETURN JUMPDEST PUSH2 0x12C PUSH2 0x1E1 JUMP JUMPDEST PUSH1 0x40 MLOAD PUSH2 0x139 SWAP2 SWAP1 PUSH2 0x2E7 JUMP JUMPDEST PUSH1 0x40 MLOAD DUP1 SWAP2 SUB SWAP1 RETURN JUMPDEST PUSH2 0x15C PUSH1 0x4 DUP1 CALLDATASIZE SUB DUP2 ADD SWAP1 PUSH2 0x157 SWAP2 SWAP1 PUSH2 0x22D JUMP JUMPDEST PUSH2 0x1F4 JUMP JUMPDEST STOP JUMPDEST PUSH2 0x166 PUSH2 0x1FE JUMP JUMPDEST STOP JUMPDEST PUSH1 0x0 SLOAD DUP2 JUMP JUMPDEST PUSH1 0x3 SLOAD DUP2 JUMP JUMPDEST PUSH1 0x0 DUP1 DUP2 SLOAD DUP1 SWAP3 SWAP2 SWAP1 PUSH2 0x186 SWAP1 PUSH2 0x331 JUMP JUMPDEST SWAP2 SWAP1 POP SSTORE POP JUMP JUMPDEST PUSH1 0x2 PUSH1 0x0 DUP2 DUP2 SWAP1 SLOAD SWAP1 PUSH2 0x100 EXP SWAP1 DIV PUSH1 0xFF AND DUP1 SWAP3 SWAP2 SWAP1 PUSH2 0x1AC SWAP1 PUSH2 0x3A4 JUMP JUMPDEST SWAP2 SWAP1 PUSH2 0x100 EXP DUP2 SLOAD DUP2 PUSH1 0xFF MUL NOT AND SWAP1 DUP4 PUSH1 0xFF AND MUL OR SWAP1 SSTORE POP POP JUMP JUMPDEST PUSH1 0x2 PUSH1 0x1 SWAP1 SLOAD SWAP1 PUSH2 0x100 EXP SWAP1 DIV PUSH2 0xFFFF AND DUP2 JUMP JUMPDEST PUSH1 0x1 SLOAD DUP2 JUMP JUMPDEST PUSH1 0x2 PUSH1 0x0 SWAP1 SLOAD SWAP1 PUSH2 0x100 EXP SWAP1 DIV PUSH1 0xFF AND DUP2 JUMP JUMPDEST DUP1 PUSH1 0x0 DUP2 SWAP1 SSTORE POP POP JUMP JUMPDEST PUSH1 0x3 PUSH1 0x0 DUP2 SLOAD DUP1 SWAP3 SWAP2 SWAP1 PUSH2 0x211 SWAP1 PUSH2 0x35B JUMP JUMPDEST SWAP2 SWAP1 POP SSTORE POP JUMP JUMPDEST PUSH1 0x0 DUP2 CALLDATALOAD SWAP1 POP PUSH2 0x227 DUP2 PUSH2 0x402 JUMP JUMPDEST SWAP3 SWAP2 POP POP JUMP JUMPDEST PUSH1 0x0 PUSH1 0x20 DUP3 DUP5 SUB SLT ISZERO PUSH2 0x243 JUMPI PUSH2 0x242 PUSH2 0x3FD JUMP JUMPDEST JUMPDEST PUSH1 0x0 PUSH2 0x251 DUP5 DUP3 DUP6 ADD PUSH2 0x218 JUMP JUMPDEST SWAP2 POP POP SWAP3 SWAP2 POP POP JUMP JUMPDEST PUSH2 0x263 DUP2 PUSH2 0x302 JUMP JUMPDEST DUP3 MSTORE POP POP JUMP JUMPDEST PUSH2 0x272 DUP2 PUSH2 0x30C JUMP JUMPDEST DUP3 MSTORE POP POP JUMP JUMPDEST PUSH2 0x281 DUP2 PUSH2 0x31A JUMP JUMPDEST DUP3 MSTORE POP POP JUMP JUMPDEST PUSH2 0x290 DUP2 PUSH2 0x324 JUMP JUMPDEST DUP3 MSTORE POP POP JUMP JUMPDEST PUSH1 0x0 PUSH1 0x20 DUP3 ADD SWAP1 POP PUSH2 0x2AB PUSH1 0x0 DUP4 ADD DUP5 PUSH2 0x25A JUMP JUMPDEST SWAP3 SWAP2 POP POP JUMP JUMPDEST PUSH1 0x0 PUSH1 0x20 DUP3 ADD SWAP1 POP PUSH2 0x2C6 PUSH1 0x0 DUP4 ADD DUP5 PUSH2 0x269 JUMP JUMPDEST SWAP3 SWAP2 POP POP JUMP JUMPDEST PUSH1 0x0 PUSH1 0x20 DUP3 ADD SWAP1 POP PUSH2 0x2E1 PUSH1 0x0 DUP4 ADD DUP5 PUSH2 0x278 JUMP JUMPDEST SWAP3 SWAP2 POP POP JUMP JUMPDEST PUSH1 0x0 PUSH1 0x20 DUP3 ADD SWAP1 POP PUSH2 0x2FC PUSH1 0x0 DUP4 ADD DUP5 PUSH2 0x287 JUMP JUMPDEST SWAP3 SWAP2 POP POP JUMP JUMPDEST PUSH1 0x0 DUP2 SWAP1 POP SWAP2 SWAP1 POP JUMP JUMPDEST PUSH1 0x0 PUSH2 0xFFFF DUP3 AND SWAP1 POP SWAP2 SWAP1 POP JUMP JUMPDEST PUSH1 0x0 DUP2 SWAP1 POP SWAP2 SWAP1 POP JUMP JUMPDEST PUSH1 0x0 PUSH1 0xFF DUP3 AND SWAP1 POP SWAP2 SWAP1 POP JUMP JUMPDEST PUSH1 0x0 PUSH2 0x33C DUP3 PUSH2 0x31A JUMP JUMPDEST SWAP2 POP PUSH1 0x0 DUP3 EQ ISZERO PUSH2 0x350 JUMPI PUSH2 0x34F PUSH2 0x3CE JUMP JUMPDEST JUMPDEST PUSH1 0x1 DUP3 SUB SWAP1 POP SWAP2 SWAP1 POP JUMP JUMPDEST PUSH1 0x0 PUSH2 0x366 DUP3 PUSH2 0x302 JUMP JUMPDEST SWAP2 POP PUSH32 0x7FFFFFFFFFFFFFFFFFFFFFFFFFFFFFFFFFFFFFFFFFFFFFFFFFFFFFFFFFFFFFFF DUP3 EQ ISZERO PUSH2 0x399 JUMPI PUSH2 0x398 PUSH2 0x3CE JUMP JUMPDEST JUMPDEST PUSH1 0x1 DUP3 ADD SWAP1 POP SWAP2 SWAP1 POP JUMP JUMPDEST PUSH1 0x0 PUSH2 0x3AF DUP3 PUSH2 0x324 JUMP JUMPDEST SWAP2 POP PUSH1 0xFF DUP3 EQ ISZERO PUSH2 0x3C3 JUMPI PUSH2 0x3C2 PUSH2 0x3CE JUMP JUMPDEST JUMPDEST PUSH1 0x1 DUP3 ADD SWAP1 POP SWAP2 SWAP1 POP JUMP JUMPDEST PUSH32 0x4E487B7100000000000000000000000000000000000000000000000000000000 PUSH1 0x0 MSTORE PUSH1 0x11 PUSH1 0x4 MSTORE PUSH1 0x24 PUSH1 0x0 REVERT JUMPDEST PUSH1 0x0 DUP1 REVERT JUMPDEST PUSH2 0x40B DUP2 PUSH2 0x31A JUMP JUMPDEST DUP2 EQ PUSH2 0x416 JUMPI PUSH1 0x0 DUP1 REVERT JUMPDEST POP JUMP INVALID LOG2 PUSH5 0x6970667358 0x22 SLT KECCAK256 BYTE RETURNDATASIZE 0xEC GASLIMIT PUSH14 0x8143BC1846793C1F45CD3A7ACBF PUSH30 0xEA148B23E2C4323A06C13FC164736F6C6343000807003300000000000000 "
				},
				"gasEstimates": {
					"creation": {
						"codeDepositCost": "220600",
						"executionCost": "68742",
						"totalCost": "289342"
					},
					"external": {
						"decrementUInt()": "24549",
						"incrementInt()": "24592",
						"incrementUint8()": "26769",
						"myInt()": "2452",
						"myUint()": "2430",
						"myUint16()": "2521",
						"myUint2()": "2451",
						"myUint8()": "2515",
						"setMyUint(uint256)": "22586"
					}
				},
				"methodIdentifiers": {
					"decrementUInt()": "4bbfd727",
					"incrementInt()": "f102a71d",
					"incrementUint8()": "84ea3606",
					"myInt()": "2cb777a6",
					"myUint()": "06540f7e",
					"myUint16()": "8e2dc2cb",
					"myUint2()": "aa9cc775",
					"myUint8()": "e2a4b2af",
					"setMyUint(uint256)": "e492fd84"
				}
			},
			"storageLayout": {
				"storage": [
					{
						"astId": 3,
						"contract": "contracts/ExampleUint.sol:ExampleUint",
						"label": "myUint",
						"offset": 0,
						"slot": "0",
						"type": "t_uint256"
					},
					{
						"astId": 6,
						"contract": "contracts/ExampleUint.sol:ExampleUint",
						"label": "myUint2",
						"offset": 0,
						"slot": "1",
						"type": "t_uint256"
					},
					{
						"astId": 9,
						"contract": "contracts/ExampleUint.sol:ExampleUint",
						"label": "myUint8",
						"offset": 0,
						"slot": "2",
						"type": "t_uint8"
					},
					{
						"astId": 12,
						"contract": "contracts/ExampleUint.sol:ExampleUint",
						"label": "myUint16",
						"offset": 1,
						"slot": "2",
						"type": "t_uint16"
					},
					{
						"astId": 16,
						"contract": "contracts/ExampleUint.sol:ExampleUint",
						"label": "myInt",
						"offset": 0,
						"slot": "3",
						"type": "t_int256"
					}
				],
				"types": {
					"t_int256": {
						"encoding": "inplace",
						"label": "int256",
						"numberOfBytes": "32"
					},
					"t_uint16": {
						"encoding": "inplace",
						"label": "uint16",
						"numberOfBytes": "2"
					},
					"t_uint256": {
						"encoding": "inplace",
						"label": "uint256",
						"numberOfBytes": "32"
					},
					"t_uint8": {
						"encoding": "inplace",
						"label": "uint8",
						"numberOfBytes": "1"
					}
				}
			},
			"userdoc": {
				"kind": "user",
				"methods": {
					"myUint16()": {
						"notice": "[vm]from: 0x5B3...eddC4to: ExampleUint.incrementUint8() 0x5FD...9d88Dvalue: 0 weidata: 0x84e...a3606logs: 0hash: 0x4e5...a0519 transact to ExampleUint.incrementUint8 errored: VM error: revert. revert The transaction has been reverted to the initial state. Note: The called function should be payable if you send value and the value you send should be less than your current balance. Debug the transaction to get more information. call to ExampleUint.myUint8"
					}
				},
				"version": 1
			}
		}
	}
}