{
	"contracts/BlockchainMsg.sol": {
		"BlockchainMsg": {
			"abi": [
				{
					"inputs": [],
					"stateMutability": "nonpayable",
					"type": "constructor"
				},
				{
					"inputs": [],
					"name": "getCountMsg",
					"outputs": [
						{
							"internalType": "uint256",
							"name": "",
							"type": "uint256"
						}
					],
					"stateMutability": "view",
					"type": "function"
				},
				{
					"inputs": [],
					"name": "getDeployerAddress",
					"outputs": [
						{
							"internalType": "address",
							"name": "",
							"type": "address"
						}
					],
					"stateMutability": "view",
					"type": "function"
				},
				{
					"inputs": [],
					"name": "myMsg",
					"outputs": [
						{
							"internalType": "string",
							"name": "",
							"type": "string"
						}
					],
					"stateMutability": "view",
					"type": "function"
				},
				{
					"inputs": [
						{
							"internalType": "string",
							"name": "_newMsg",
							"type": "string"
						}
					],
					"name": "setNewMsg",
					"outputs": [],
					"stateMutability": "nonpayable",
					"type": "function"
				}
			],
			"devdoc": {
				"kind": "dev",
				"methods": {},
				"version": 1
			},
			"evm": {
				"assembly": "    /* \"contracts/BlockchainMsg.sol\":60:1151  contract BlockchainMsg {\r... */\n  mstore(0x40, 0x80)\n    /* \"contracts/BlockchainMsg.sol\":316:377  constructor() {\r... */\n  callvalue\n  dup1\n  iszero\n  tag_1\n  jumpi\n  0x00\n  dup1\n  revert\ntag_1:\n  pop\n    /* \"contracts/BlockchainMsg.sol\":359:369  msg.sender */\n  caller\n    /* \"contracts/BlockchainMsg.sol\":341:356  deployerAddress */\n  0x01\n  0x00\n    /* \"contracts/BlockchainMsg.sol\":341:369  deployerAddress = msg.sender */\n  0x0100\n  exp\n  dup2\n  sload\n  dup2\n  0xffffffffffffffffffffffffffffffffffffffff\n  mul\n  not\n  and\n  swap1\n  dup4\n  0xffffffffffffffffffffffffffffffffffffffff\n  and\n  mul\n  or\n  swap1\n  sstore\n  pop\n    /* \"contracts/BlockchainMsg.sol\":60:1151  contract BlockchainMsg {\r... */\n  dataSize(sub_0)\n  dup1\n  dataOffset(sub_0)\n  0x00\n  codecopy\n  0x00\n  return\nstop\n\nsub_0: assembly {\n        /* \"contracts/BlockchainMsg.sol\":60:1151  contract BlockchainMsg {\r... */\n      mstore(0x40, 0x80)\n      callvalue\n      dup1\n      iszero\n      tag_1\n      jumpi\n      0x00\n      dup1\n      revert\n    tag_1:\n      pop\n      jumpi(tag_2, lt(calldatasize, 0x04))\n      shr(0xe0, calldataload(0x00))\n      dup1\n      0x06ab50bc\n      eq\n      tag_3\n      jumpi\n      dup1\n      0x1b4353a8\n      eq\n      tag_4\n      jumpi\n      dup1\n      0x24cc2866\n      eq\n      tag_5\n      jumpi\n      dup1\n      0x450b2fad\n      eq\n      tag_6\n      jumpi\n    tag_2:\n      0x00\n      dup1\n      revert\n        /* \"contracts/BlockchainMsg.sol\":385:534  function setNewMsg(string memory _newMsg) public {\r... */\n    tag_3:\n      tag_7\n      0x04\n      dup1\n      calldatasize\n      sub\n      dup2\n      add\n      swap1\n      tag_8\n      swap2\n      swap1\n      tag_9\n      jump\t// in\n    tag_8:\n      tag_10\n      jump\t// in\n    tag_7:\n      stop\n        /* \"contracts/BlockchainMsg.sol\":542:626  function getCountMsg() public view returns (uint) {\r... */\n    tag_4:\n      tag_11\n      tag_12\n      jump\t// in\n    tag_11:\n      mload(0x40)\n      tag_13\n      swap2\n      swap1\n      tag_14\n      jump\t// in\n    tag_13:\n      mload(0x40)\n      dup1\n      swap2\n      sub\n      swap1\n      return\n        /* \"contracts/BlockchainMsg.sol\":634:735  function getDeployerAddress() public view returns (address) {\r... */\n    tag_5:\n      tag_15\n      tag_16\n      jump\t// in\n    tag_15:\n      mload(0x40)\n      tag_17\n      swap2\n      swap1\n      tag_18\n      jump\t// in\n    tag_17:\n      mload(0x40)\n      dup1\n      swap2\n      sub\n      swap1\n      return\n        /* \"contracts/BlockchainMsg.sol\":238:257  string public myMsg */\n    tag_6:\n      tag_19\n      tag_20\n      jump\t// in\n    tag_19:\n      mload(0x40)\n      tag_21\n      swap2\n      swap1\n      tag_22\n      jump\t// in\n    tag_21:\n      mload(0x40)\n      dup1\n      swap2\n      sub\n      swap1\n      return\n        /* \"contracts/BlockchainMsg.sol\":385:534  function setNewMsg(string memory _newMsg) public {\r... */\n    tag_10:\n        /* \"contracts/BlockchainMsg.sol\":470:480  msg.sender */\n      caller\n        /* \"contracts/BlockchainMsg.sol\":453:480  deployerAddress==msg.sender */\n      0xffffffffffffffffffffffffffffffffffffffff\n      and\n        /* \"contracts/BlockchainMsg.sol\":453:468  deployerAddress */\n      0x01\n      0x00\n      swap1\n      sload\n      swap1\n      0x0100\n      exp\n      swap1\n      div\n      0xffffffffffffffffffffffffffffffffffffffff\n      and\n        /* \"contracts/BlockchainMsg.sol\":453:480  deployerAddress==msg.sender */\n      0xffffffffffffffffffffffffffffffffffffffff\n      and\n      eq\n        /* \"contracts/BlockchainMsg.sol\":445:481  require(deployerAddress==msg.sender) */\n      tag_24\n      jumpi\n      0x00\n      dup1\n      revert\n    tag_24:\n        /* \"contracts/BlockchainMsg.sol\":498:505  _newMsg */\n      dup1\n        /* \"contracts/BlockchainMsg.sol\":492:497  myMsg */\n      0x00\n        /* \"contracts/BlockchainMsg.sol\":492:505  myMsg=_newMsg */\n      swap1\n      dup1\n      mload\n      swap1\n      0x20\n      add\n      swap1\n      tag_25\n      swap3\n      swap2\n      swap1\n      tag_26\n      jump\t// in\n    tag_25:\n      pop\n        /* \"contracts/BlockchainMsg.sol\":516:524  countMsg */\n      0x02\n      0x00\n        /* \"contracts/BlockchainMsg.sol\":516:526  countMsg++ */\n      dup2\n      sload\n      dup1\n      swap3\n      swap2\n      swap1\n      tag_27\n      swap1\n      tag_28\n      jump\t// in\n    tag_27:\n      swap2\n      swap1\n      pop\n      sstore\n      pop\n        /* \"contracts/BlockchainMsg.sol\":385:534  function setNewMsg(string memory _newMsg) public {\r... */\n      pop\n      jump\t// out\n        /* \"contracts/BlockchainMsg.sol\":542:626  function getCountMsg() public view returns (uint) {\r... */\n    tag_12:\n        /* \"contracts/BlockchainMsg.sol\":586:590  uint */\n      0x00\n        /* \"contracts/BlockchainMsg.sol\":610:618  countMsg */\n      sload(0x02)\n        /* \"contracts/BlockchainMsg.sol\":603:618  return countMsg */\n      swap1\n      pop\n        /* \"contracts/BlockchainMsg.sol\":542:626  function getCountMsg() public view returns (uint) {\r... */\n      swap1\n      jump\t// out\n        /* \"contracts/BlockchainMsg.sol\":634:735  function getDeployerAddress() public view returns (address) {\r... */\n    tag_16:\n        /* \"contracts/BlockchainMsg.sol\":685:692  address */\n      0x00\n        /* \"contracts/BlockchainMsg.sol\":712:727  deployerAddress */\n      0x01\n      0x00\n      swap1\n      sload\n      swap1\n      0x0100\n      exp\n      swap1\n      div\n      0xffffffffffffffffffffffffffffffffffffffff\n      and\n        /* \"contracts/BlockchainMsg.sol\":705:727  return deployerAddress */\n      swap1\n      pop\n        /* \"contracts/BlockchainMsg.sol\":634:735  function getDeployerAddress() public view returns (address) {\r... */\n      swap1\n      jump\t// out\n        /* \"contracts/BlockchainMsg.sol\":238:257  string public myMsg */\n    tag_20:\n      0x00\n      dup1\n      sload\n      tag_31\n      swap1\n      tag_32\n      jump\t// in\n    tag_31:\n      dup1\n      0x1f\n      add\n      0x20\n      dup1\n      swap2\n      div\n      mul\n      0x20\n      add\n      mload(0x40)\n      swap1\n      dup2\n      add\n      0x40\n      mstore\n      dup1\n      swap3\n      swap2\n      swap1\n      dup2\n      dup2\n      mstore\n      0x20\n      add\n      dup3\n      dup1\n      sload\n      tag_33\n      swap1\n      tag_32\n      jump\t// in\n    tag_33:\n      dup1\n      iszero\n      tag_34\n      jumpi\n      dup1\n      0x1f\n      lt\n      tag_35\n      jumpi\n      0x0100\n      dup1\n      dup4\n      sload\n      div\n      mul\n      dup4\n      mstore\n      swap2\n      0x20\n      add\n      swap2\n      jump(tag_34)\n    tag_35:\n      dup3\n      add\n      swap2\n      swap1\n      0x00\n      mstore\n      keccak256(0x00, 0x20)\n      swap1\n    tag_36:\n      dup2\n      sload\n      dup2\n      mstore\n      swap1\n      0x01\n      add\n      swap1\n      0x20\n      add\n      dup1\n      dup4\n      gt\n      tag_36\n      jumpi\n      dup3\n      swap1\n      sub\n      0x1f\n      and\n      dup3\n      add\n      swap2\n    tag_34:\n      pop\n      pop\n      pop\n      pop\n      pop\n      dup2\n      jump\t// out\n    tag_26:\n      dup3\n      dup1\n      sload\n      tag_37\n      swap1\n      tag_32\n      jump\t// in\n    tag_37:\n      swap1\n      0x00\n      mstore\n      keccak256(0x00, 0x20)\n      swap1\n      0x1f\n      add\n      0x20\n      swap1\n      div\n      dup2\n      add\n      swap3\n      dup3\n      tag_39\n      jumpi\n      0x00\n      dup6\n      sstore\n      jump(tag_38)\n    tag_39:\n      dup3\n      0x1f\n      lt\n      tag_40\n      jumpi\n      dup1\n      mload\n      not(0xff)\n      and\n      dup4\n      dup1\n      add\n      or\n      dup6\n      sstore\n      jump(tag_38)\n    tag_40:\n      dup3\n      dup1\n      add\n      0x01\n      add\n      dup6\n      sstore\n      dup3\n      iszero\n      tag_38\n      jumpi\n      swap2\n      dup3\n      add\n    tag_41:\n      dup3\n      dup2\n      gt\n      iszero\n      tag_42\n      jumpi\n      dup3\n      mload\n      dup3\n      sstore\n      swap2\n      0x20\n      add\n      swap2\n      swap1\n      0x01\n      add\n      swap1\n      jump(tag_41)\n    tag_42:\n    tag_38:\n      pop\n      swap1\n      pop\n      tag_43\n      swap2\n      swap1\n      tag_44\n      jump\t// in\n    tag_43:\n      pop\n      swap1\n      jump\t// out\n    tag_44:\n    tag_45:\n      dup1\n      dup3\n      gt\n      iszero\n      tag_46\n      jumpi\n      0x00\n      dup2\n      0x00\n      swap1\n      sstore\n      pop\n      0x01\n      add\n      jump(tag_45)\n    tag_46:\n      pop\n      swap1\n      jump\t// out\n        /* \"#utility.yul\":7:419   */\n    tag_48:\n        /* \"#utility.yul\":85:90   */\n      0x00\n        /* \"#utility.yul\":110:176   */\n      tag_50\n        /* \"#utility.yul\":126:175   */\n      tag_51\n        /* \"#utility.yul\":168:174   */\n      dup5\n        /* \"#utility.yul\":126:175   */\n      tag_52\n      jump\t// in\n    tag_51:\n        /* \"#utility.yul\":110:176   */\n      tag_53\n      jump\t// in\n    tag_50:\n        /* \"#utility.yul\":101:176   */\n      swap1\n      pop\n        /* \"#utility.yul\":199:205   */\n      dup3\n        /* \"#utility.yul\":192:197   */\n      dup2\n        /* \"#utility.yul\":185:206   */\n      mstore\n        /* \"#utility.yul\":237:241   */\n      0x20\n        /* \"#utility.yul\":230:235   */\n      dup2\n        /* \"#utility.yul\":226:242   */\n      add\n        /* \"#utility.yul\":275:278   */\n      dup5\n        /* \"#utility.yul\":266:272   */\n      dup5\n        /* \"#utility.yul\":261:264   */\n      dup5\n        /* \"#utility.yul\":257:273   */\n      add\n        /* \"#utility.yul\":254:279   */\n      gt\n        /* \"#utility.yul\":251:363   */\n      iszero\n      tag_54\n      jumpi\n        /* \"#utility.yul\":282:361   */\n      tag_55\n      tag_56\n      jump\t// in\n    tag_55:\n        /* \"#utility.yul\":251:363   */\n    tag_54:\n        /* \"#utility.yul\":372:413   */\n      tag_57\n        /* \"#utility.yul\":406:412   */\n      dup5\n        /* \"#utility.yul\":401:404   */\n      dup3\n        /* \"#utility.yul\":396:399   */\n      dup6\n        /* \"#utility.yul\":372:413   */\n      tag_58\n      jump\t// in\n    tag_57:\n        /* \"#utility.yul\":91:419   */\n      pop\n        /* \"#utility.yul\":7:419   */\n      swap4\n      swap3\n      pop\n      pop\n      pop\n      jump\t// out\n        /* \"#utility.yul\":439:779   */\n    tag_59:\n        /* \"#utility.yul\":495:500   */\n      0x00\n        /* \"#utility.yul\":544:547   */\n      dup3\n        /* \"#utility.yul\":537:541   */\n      0x1f\n        /* \"#utility.yul\":529:535   */\n      dup4\n        /* \"#utility.yul\":525:542   */\n      add\n        /* \"#utility.yul\":521:548   */\n      slt\n        /* \"#utility.yul\":511:633   */\n      tag_61\n      jumpi\n        /* \"#utility.yul\":552:631   */\n      tag_62\n      tag_63\n      jump\t// in\n    tag_62:\n        /* \"#utility.yul\":511:633   */\n    tag_61:\n        /* \"#utility.yul\":669:675   */\n      dup2\n        /* \"#utility.yul\":656:676   */\n      calldataload\n        /* \"#utility.yul\":694:773   */\n      tag_64\n        /* \"#utility.yul\":769:772   */\n      dup5\n        /* \"#utility.yul\":761:767   */\n      dup3\n        /* \"#utility.yul\":754:758   */\n      0x20\n        /* \"#utility.yul\":746:752   */\n      dup7\n        /* \"#utility.yul\":742:759   */\n      add\n        /* \"#utility.yul\":694:773   */\n      tag_48\n      jump\t// in\n    tag_64:\n        /* \"#utility.yul\":685:773   */\n      swap2\n      pop\n        /* \"#utility.yul\":501:779   */\n      pop\n        /* \"#utility.yul\":439:779   */\n      swap3\n      swap2\n      pop\n      pop\n      jump\t// out\n        /* \"#utility.yul\":785:1294   */\n    tag_9:\n        /* \"#utility.yul\":854:860   */\n      0x00\n        /* \"#utility.yul\":903:905   */\n      0x20\n        /* \"#utility.yul\":891:900   */\n      dup3\n        /* \"#utility.yul\":882:889   */\n      dup5\n        /* \"#utility.yul\":878:901   */\n      sub\n        /* \"#utility.yul\":874:906   */\n      slt\n        /* \"#utility.yul\":871:990   */\n      iszero\n      tag_66\n      jumpi\n        /* \"#utility.yul\":909:988   */\n      tag_67\n      tag_68\n      jump\t// in\n    tag_67:\n        /* \"#utility.yul\":871:990   */\n    tag_66:\n        /* \"#utility.yul\":1057:1058   */\n      0x00\n        /* \"#utility.yul\":1046:1055   */\n      dup3\n        /* \"#utility.yul\":1042:1059   */\n      add\n        /* \"#utility.yul\":1029:1060   */\n      calldataload\n        /* \"#utility.yul\":1087:1105   */\n      0xffffffffffffffff\n        /* \"#utility.yul\":1079:1085   */\n      dup2\n        /* \"#utility.yul\":1076:1106   */\n      gt\n        /* \"#utility.yul\":1073:1190   */\n      iszero\n      tag_69\n      jumpi\n        /* \"#utility.yul\":1109:1188   */\n      tag_70\n      tag_71\n      jump\t// in\n    tag_70:\n        /* \"#utility.yul\":1073:1190   */\n    tag_69:\n        /* \"#utility.yul\":1214:1277   */\n      tag_72\n        /* \"#utility.yul\":1269:1276   */\n      dup5\n        /* \"#utility.yul\":1260:1266   */\n      dup3\n        /* \"#utility.yul\":1249:1258   */\n      dup6\n        /* \"#utility.yul\":1245:1267   */\n      add\n        /* \"#utility.yul\":1214:1277   */\n      tag_59\n      jump\t// in\n    tag_72:\n        /* \"#utility.yul\":1204:1277   */\n      swap2\n      pop\n        /* \"#utility.yul\":1000:1287   */\n      pop\n        /* \"#utility.yul\":785:1294   */\n      swap3\n      swap2\n      pop\n      pop\n      jump\t// out\n        /* \"#utility.yul\":1300:1418   */\n    tag_73:\n        /* \"#utility.yul\":1387:1411   */\n      tag_75\n        /* \"#utility.yul\":1405:1410   */\n      dup2\n        /* \"#utility.yul\":1387:1411   */\n      tag_76\n      jump\t// in\n    tag_75:\n        /* \"#utility.yul\":1382:1385   */\n      dup3\n        /* \"#utility.yul\":1375:1412   */\n      mstore\n        /* \"#utility.yul\":1300:1418   */\n      pop\n      pop\n      jump\t// out\n        /* \"#utility.yul\":1424:1788   */\n    tag_77:\n        /* \"#utility.yul\":1512:1515   */\n      0x00\n        /* \"#utility.yul\":1540:1579   */\n      tag_79\n        /* \"#utility.yul\":1573:1578   */\n      dup3\n        /* \"#utility.yul\":1540:1579   */\n      tag_80\n      jump\t// in\n    tag_79:\n        /* \"#utility.yul\":1595:1666   */\n      tag_81\n        /* \"#utility.yul\":1659:1665   */\n      dup2\n        /* \"#utility.yul\":1654:1657   */\n      dup6\n        /* \"#utility.yul\":1595:1666   */\n      tag_82\n      jump\t// in\n    tag_81:\n        /* \"#utility.yul\":1588:1666   */\n      swap4\n      pop\n        /* \"#utility.yul\":1675:1727   */\n      tag_83\n        /* \"#utility.yul\":1720:1726   */\n      dup2\n        /* \"#utility.yul\":1715:1718   */\n      dup6\n        /* \"#utility.yul\":1708:1712   */\n      0x20\n        /* \"#utility.yul\":1701:1706   */\n      dup7\n        /* \"#utility.yul\":1697:1713   */\n      add\n        /* \"#utility.yul\":1675:1727   */\n      tag_84\n      jump\t// in\n    tag_83:\n        /* \"#utility.yul\":1752:1781   */\n      tag_85\n        /* \"#utility.yul\":1774:1780   */\n      dup2\n        /* \"#utility.yul\":1752:1781   */\n      tag_86\n      jump\t// in\n    tag_85:\n        /* \"#utility.yul\":1747:1750   */\n      dup5\n        /* \"#utility.yul\":1743:1782   */\n      add\n        /* \"#utility.yul\":1736:1782   */\n      swap2\n      pop\n        /* \"#utility.yul\":1516:1788   */\n      pop\n        /* \"#utility.yul\":1424:1788   */\n      swap3\n      swap2\n      pop\n      pop\n      jump\t// out\n        /* \"#utility.yul\":1794:1912   */\n    tag_87:\n        /* \"#utility.yul\":1881:1905   */\n      tag_89\n        /* \"#utility.yul\":1899:1904   */\n      dup2\n        /* \"#utility.yul\":1881:1905   */\n      tag_90\n      jump\t// in\n    tag_89:\n        /* \"#utility.yul\":1876:1879   */\n      dup3\n        /* \"#utility.yul\":1869:1906   */\n      mstore\n        /* \"#utility.yul\":1794:1912   */\n      pop\n      pop\n      jump\t// out\n        /* \"#utility.yul\":1918:2140   */\n    tag_18:\n        /* \"#utility.yul\":2011:2015   */\n      0x00\n        /* \"#utility.yul\":2049:2051   */\n      0x20\n        /* \"#utility.yul\":2038:2047   */\n      dup3\n        /* \"#utility.yul\":2034:2052   */\n      add\n        /* \"#utility.yul\":2026:2052   */\n      swap1\n      pop\n        /* \"#utility.yul\":2062:2133   */\n      tag_92\n        /* \"#utility.yul\":2130:2131   */\n      0x00\n        /* \"#utility.yul\":2119:2128   */\n      dup4\n        /* \"#utility.yul\":2115:2132   */\n      add\n        /* \"#utility.yul\":2106:2112   */\n      dup5\n        /* \"#utility.yul\":2062:2133   */\n      tag_73\n      jump\t// in\n    tag_92:\n        /* \"#utility.yul\":1918:2140   */\n      swap3\n      swap2\n      pop\n      pop\n      jump\t// out\n        /* \"#utility.yul\":2146:2459   */\n    tag_22:\n        /* \"#utility.yul\":2259:2263   */\n      0x00\n        /* \"#utility.yul\":2297:2299   */\n      0x20\n        /* \"#utility.yul\":2286:2295   */\n      dup3\n        /* \"#utility.yul\":2282:2300   */\n      add\n        /* \"#utility.yul\":2274:2300   */\n      swap1\n      pop\n        /* \"#utility.yul\":2346:2355   */\n      dup2\n        /* \"#utility.yul\":2340:2344   */\n      dup2\n        /* \"#utility.yul\":2336:2356   */\n      sub\n        /* \"#utility.yul\":2332:2333   */\n      0x00\n        /* \"#utility.yul\":2321:2330   */\n      dup4\n        /* \"#utility.yul\":2317:2334   */\n      add\n        /* \"#utility.yul\":2310:2357   */\n      mstore\n        /* \"#utility.yul\":2374:2452   */\n      tag_94\n        /* \"#utility.yul\":2447:2451   */\n      dup2\n        /* \"#utility.yul\":2438:2444   */\n      dup5\n        /* \"#utility.yul\":2374:2452   */\n      tag_77\n      jump\t// in\n    tag_94:\n        /* \"#utility.yul\":2366:2452   */\n      swap1\n      pop\n        /* \"#utility.yul\":2146:2459   */\n      swap3\n      swap2\n      pop\n      pop\n      jump\t// out\n        /* \"#utility.yul\":2465:2687   */\n    tag_14:\n        /* \"#utility.yul\":2558:2562   */\n      0x00\n        /* \"#utility.yul\":2596:2598   */\n      0x20\n        /* \"#utility.yul\":2585:2594   */\n      dup3\n        /* \"#utility.yul\":2581:2599   */\n      add\n        /* \"#utility.yul\":2573:2599   */\n      swap1\n      pop\n        /* \"#utility.yul\":2609:2680   */\n      tag_96\n        /* \"#utility.yul\":2677:2678   */\n      0x00\n        /* \"#utility.yul\":2666:2675   */\n      dup4\n        /* \"#utility.yul\":2662:2679   */\n      add\n        /* \"#utility.yul\":2653:2659   */\n      dup5\n        /* \"#utility.yul\":2609:2680   */\n      tag_87\n      jump\t// in\n    tag_96:\n        /* \"#utility.yul\":2465:2687   */\n      swap3\n      swap2\n      pop\n      pop\n      jump\t// out\n        /* \"#utility.yul\":2693:2822   */\n    tag_53:\n        /* \"#utility.yul\":2727:2733   */\n      0x00\n        /* \"#utility.yul\":2754:2774   */\n      tag_98\n      tag_99\n      jump\t// in\n    tag_98:\n        /* \"#utility.yul\":2744:2774   */\n      swap1\n      pop\n        /* \"#utility.yul\":2783:2816   */\n      tag_100\n        /* \"#utility.yul\":2811:2815   */\n      dup3\n        /* \"#utility.yul\":2803:2809   */\n      dup3\n        /* \"#utility.yul\":2783:2816   */\n      tag_101\n      jump\t// in\n    tag_100:\n        /* \"#utility.yul\":2693:2822   */\n      swap2\n      swap1\n      pop\n      jump\t// out\n        /* \"#utility.yul\":2828:2903   */\n    tag_99:\n        /* \"#utility.yul\":2861:2867   */\n      0x00\n        /* \"#utility.yul\":2894:2896   */\n      0x40\n        /* \"#utility.yul\":2888:2897   */\n      mload\n        /* \"#utility.yul\":2878:2897   */\n      swap1\n      pop\n        /* \"#utility.yul\":2828:2903   */\n      swap1\n      jump\t// out\n        /* \"#utility.yul\":2909:3217   */\n    tag_52:\n        /* \"#utility.yul\":2971:2975   */\n      0x00\n        /* \"#utility.yul\":3061:3079   */\n      0xffffffffffffffff\n        /* \"#utility.yul\":3053:3059   */\n      dup3\n        /* \"#utility.yul\":3050:3080   */\n      gt\n        /* \"#utility.yul\":3047:3103   */\n      iszero\n      tag_104\n      jumpi\n        /* \"#utility.yul\":3083:3101   */\n      tag_105\n      tag_106\n      jump\t// in\n    tag_105:\n        /* \"#utility.yul\":3047:3103   */\n    tag_104:\n        /* \"#utility.yul\":3121:3150   */\n      tag_107\n        /* \"#utility.yul\":3143:3149   */\n      dup3\n        /* \"#utility.yul\":3121:3150   */\n      tag_86\n      jump\t// in\n    tag_107:\n        /* \"#utility.yul\":3113:3150   */\n      swap1\n      pop\n        /* \"#utility.yul\":3205:3209   */\n      0x20\n        /* \"#utility.yul\":3199:3203   */\n      dup2\n        /* \"#utility.yul\":3195:3210   */\n      add\n        /* \"#utility.yul\":3187:3210   */\n      swap1\n      pop\n        /* \"#utility.yul\":2909:3217   */\n      swap2\n      swap1\n      pop\n      jump\t// out\n        /* \"#utility.yul\":3223:3322   */\n    tag_80:\n        /* \"#utility.yul\":3275:3281   */\n      0x00\n        /* \"#utility.yul\":3309:3314   */\n      dup2\n        /* \"#utility.yul\":3303:3315   */\n      mload\n        /* \"#utility.yul\":3293:3315   */\n      swap1\n      pop\n        /* \"#utility.yul\":3223:3322   */\n      swap2\n      swap1\n      pop\n      jump\t// out\n        /* \"#utility.yul\":3328:3497   */\n    tag_82:\n        /* \"#utility.yul\":3412:3423   */\n      0x00\n        /* \"#utility.yul\":3446:3452   */\n      dup3\n        /* \"#utility.yul\":3441:3444   */\n      dup3\n        /* \"#utility.yul\":3434:3453   */\n      mstore\n        /* \"#utility.yul\":3486:3490   */\n      0x20\n        /* \"#utility.yul\":3481:3484   */\n      dup3\n        /* \"#utility.yul\":3477:3491   */\n      add\n        /* \"#utility.yul\":3462:3491   */\n      swap1\n      pop\n        /* \"#utility.yul\":3328:3497   */\n      swap3\n      swap2\n      pop\n      pop\n      jump\t// out\n        /* \"#utility.yul\":3503:3599   */\n    tag_76:\n        /* \"#utility.yul\":3540:3547   */\n      0x00\n        /* \"#utility.yul\":3569:3593   */\n      tag_111\n        /* \"#utility.yul\":3587:3592   */\n      dup3\n        /* \"#utility.yul\":3569:3593   */\n      tag_112\n      jump\t// in\n    tag_111:\n        /* \"#utility.yul\":3558:3593   */\n      swap1\n      pop\n        /* \"#utility.yul\":3503:3599   */\n      swap2\n      swap1\n      pop\n      jump\t// out\n        /* \"#utility.yul\":3605:3731   */\n    tag_112:\n        /* \"#utility.yul\":3642:3649   */\n      0x00\n        /* \"#utility.yul\":3682:3724   */\n      0xffffffffffffffffffffffffffffffffffffffff\n        /* \"#utility.yul\":3675:3680   */\n      dup3\n        /* \"#utility.yul\":3671:3725   */\n      and\n        /* \"#utility.yul\":3660:3725   */\n      swap1\n      pop\n        /* \"#utility.yul\":3605:3731   */\n      swap2\n      swap1\n      pop\n      jump\t// out\n        /* \"#utility.yul\":3737:3814   */\n    tag_90:\n        /* \"#utility.yul\":3774:3781   */\n      0x00\n        /* \"#utility.yul\":3803:3808   */\n      dup2\n        /* \"#utility.yul\":3792:3808   */\n      swap1\n      pop\n        /* \"#utility.yul\":3737:3814   */\n      swap2\n      swap1\n      pop\n      jump\t// out\n        /* \"#utility.yul\":3820:3974   */\n    tag_58:\n        /* \"#utility.yul\":3904:3910   */\n      dup3\n        /* \"#utility.yul\":3899:3902   */\n      dup2\n        /* \"#utility.yul\":3894:3897   */\n      dup4\n        /* \"#utility.yul\":3881:3911   */\n      calldatacopy\n        /* \"#utility.yul\":3966:3967   */\n      0x00\n        /* \"#utility.yul\":3957:3963   */\n      dup4\n        /* \"#utility.yul\":3952:3955   */\n      dup4\n        /* \"#utility.yul\":3948:3964   */\n      add\n        /* \"#utility.yul\":3941:3968   */\n      mstore\n        /* \"#utility.yul\":3820:3974   */\n      pop\n      pop\n      pop\n      jump\t// out\n        /* \"#utility.yul\":3980:4287   */\n    tag_84:\n        /* \"#utility.yul\":4048:4049   */\n      0x00\n        /* \"#utility.yul\":4058:4171   */\n    tag_117:\n        /* \"#utility.yul\":4072:4078   */\n      dup4\n        /* \"#utility.yul\":4069:4070   */\n      dup2\n        /* \"#utility.yul\":4066:4079   */\n      lt\n        /* \"#utility.yul\":4058:4171   */\n      iszero\n      tag_119\n      jumpi\n        /* \"#utility.yul\":4157:4158   */\n      dup1\n        /* \"#utility.yul\":4152:4155   */\n      dup3\n        /* \"#utility.yul\":4148:4159   */\n      add\n        /* \"#utility.yul\":4142:4160   */\n      mload\n        /* \"#utility.yul\":4138:4139   */\n      dup2\n        /* \"#utility.yul\":4133:4136   */\n      dup5\n        /* \"#utility.yul\":4129:4140   */\n      add\n        /* \"#utility.yul\":4122:4161   */\n      mstore\n        /* \"#utility.yul\":4094:4096   */\n      0x20\n        /* \"#utility.yul\":4091:4092   */\n      dup2\n        /* \"#utility.yul\":4087:4097   */\n      add\n        /* \"#utility.yul\":4082:4097   */\n      swap1\n      pop\n        /* \"#utility.yul\":4058:4171   */\n      jump(tag_117)\n    tag_119:\n        /* \"#utility.yul\":4189:4195   */\n      dup4\n        /* \"#utility.yul\":4186:4187   */\n      dup2\n        /* \"#utility.yul\":4183:4196   */\n      gt\n        /* \"#utility.yul\":4180:4281   */\n      iszero\n      tag_120\n      jumpi\n        /* \"#utility.yul\":4269:4270   */\n      0x00\n        /* \"#utility.yul\":4260:4266   */\n      dup5\n        /* \"#utility.yul\":4255:4258   */\n      dup5\n        /* \"#utility.yul\":4251:4267   */\n      add\n        /* \"#utility.yul\":4244:4271   */\n      mstore\n        /* \"#utility.yul\":4180:4281   */\n    tag_120:\n        /* \"#utility.yul\":4029:4287   */\n      pop\n        /* \"#utility.yul\":3980:4287   */\n      pop\n      pop\n      pop\n      jump\t// out\n        /* \"#utility.yul\":4293:4613   */\n    tag_32:\n        /* \"#utility.yul\":4337:4343   */\n      0x00\n        /* \"#utility.yul\":4374:4375   */\n      0x02\n        /* \"#utility.yul\":4368:4372   */\n      dup3\n        /* \"#utility.yul\":4364:4376   */\n      div\n        /* \"#utility.yul\":4354:4376   */\n      swap1\n      pop\n        /* \"#utility.yul\":4421:4422   */\n      0x01\n        /* \"#utility.yul\":4415:4419   */\n      dup3\n        /* \"#utility.yul\":4411:4423   */\n      and\n        /* \"#utility.yul\":4442:4460   */\n      dup1\n        /* \"#utility.yul\":4432:4513   */\n      tag_122\n      jumpi\n        /* \"#utility.yul\":4498:4502   */\n      0x7f\n        /* \"#utility.yul\":4490:4496   */\n      dup3\n        /* \"#utility.yul\":4486:4503   */\n      and\n        /* \"#utility.yul\":4476:4503   */\n      swap2\n      pop\n        /* \"#utility.yul\":4432:4513   */\n    tag_122:\n        /* \"#utility.yul\":4560:4562   */\n      0x20\n        /* \"#utility.yul\":4552:4558   */\n      dup3\n        /* \"#utility.yul\":4549:4563   */\n      lt\n        /* \"#utility.yul\":4529:4547   */\n      dup2\n        /* \"#utility.yul\":4526:4564   */\n      eq\n        /* \"#utility.yul\":4523:4607   */\n      iszero\n      tag_123\n      jumpi\n        /* \"#utility.yul\":4579:4597   */\n      tag_124\n      tag_125\n      jump\t// in\n    tag_124:\n        /* \"#utility.yul\":4523:4607   */\n    tag_123:\n        /* \"#utility.yul\":4344:4613   */\n      pop\n        /* \"#utility.yul\":4293:4613   */\n      swap2\n      swap1\n      pop\n      jump\t// out\n        /* \"#utility.yul\":4619:4900   */\n    tag_101:\n        /* \"#utility.yul\":4702:4729   */\n      tag_127\n        /* \"#utility.yul\":4724:4728   */\n      dup3\n        /* \"#utility.yul\":4702:4729   */\n      tag_86\n      jump\t// in\n    tag_127:\n        /* \"#utility.yul\":4694:4700   */\n      dup2\n        /* \"#utility.yul\":4690:4730   */\n      add\n        /* \"#utility.yul\":4832:4838   */\n      dup2\n        /* \"#utility.yul\":4820:4830   */\n      dup2\n        /* \"#utility.yul\":4817:4839   */\n      lt\n        /* \"#utility.yul\":4796:4814   */\n      0xffffffffffffffff\n        /* \"#utility.yul\":4784:4794   */\n      dup3\n        /* \"#utility.yul\":4781:4815   */\n      gt\n        /* \"#utility.yul\":4778:4840   */\n      or\n        /* \"#utility.yul\":4775:4863   */\n      iszero\n      tag_128\n      jumpi\n        /* \"#utility.yul\":4843:4861   */\n      tag_129\n      tag_106\n      jump\t// in\n    tag_129:\n        /* \"#utility.yul\":4775:4863   */\n    tag_128:\n        /* \"#utility.yul\":4883:4893   */\n      dup1\n        /* \"#utility.yul\":4879:4881   */\n      0x40\n        /* \"#utility.yul\":4872:4894   */\n      mstore\n        /* \"#utility.yul\":4662:4900   */\n      pop\n        /* \"#utility.yul\":4619:4900   */\n      pop\n      pop\n      jump\t// out\n        /* \"#utility.yul\":4906:5139   */\n    tag_28:\n        /* \"#utility.yul\":4945:4948   */\n      0x00\n        /* \"#utility.yul\":4968:4992   */\n      tag_131\n        /* \"#utility.yul\":4986:4991   */\n      dup3\n        /* \"#utility.yul\":4968:4992   */\n      tag_90\n      jump\t// in\n    tag_131:\n        /* \"#utility.yul\":4959:4992   */\n      swap2\n      pop\n        /* \"#utility.yul\":5014:5080   */\n      0xffffffffffffffffffffffffffffffffffffffffffffffffffffffffffffffff\n        /* \"#utility.yul\":5007:5012   */\n      dup3\n        /* \"#utility.yul\":5004:5081   */\n      eq\n        /* \"#utility.yul\":5001:5104   */\n      iszero\n      tag_132\n      jumpi\n        /* \"#utility.yul\":5084:5102   */\n      tag_133\n      tag_134\n      jump\t// in\n    tag_133:\n        /* \"#utility.yul\":5001:5104   */\n    tag_132:\n        /* \"#utility.yul\":5131:5132   */\n      0x01\n        /* \"#utility.yul\":5124:5129   */\n      dup3\n        /* \"#utility.yul\":5120:5133   */\n      add\n        /* \"#utility.yul\":5113:5133   */\n      swap1\n      pop\n        /* \"#utility.yul\":4906:5139   */\n      swap2\n      swap1\n      pop\n      jump\t// out\n        /* \"#utility.yul\":5145:5325   */\n    tag_134:\n        /* \"#utility.yul\":5193:5270   */\n      0x4e487b7100000000000000000000000000000000000000000000000000000000\n        /* \"#utility.yul\":5190:5191   */\n      0x00\n        /* \"#utility.yul\":5183:5271   */\n      mstore\n        /* \"#utility.yul\":5290:5294   */\n      0x11\n        /* \"#utility.yul\":5287:5288   */\n      0x04\n        /* \"#utility.yul\":5280:5295   */\n      mstore\n        /* \"#utility.yul\":5314:5318   */\n      0x24\n        /* \"#utility.yul\":5311:5312   */\n      0x00\n        /* \"#utility.yul\":5304:5319   */\n      revert\n        /* \"#utility.yul\":5331:5511   */\n    tag_125:\n        /* \"#utility.yul\":5379:5456   */\n      0x4e487b7100000000000000000000000000000000000000000000000000000000\n        /* \"#utility.yul\":5376:5377   */\n      0x00\n        /* \"#utility.yul\":5369:5457   */\n      mstore\n        /* \"#utility.yul\":5476:5480   */\n      0x22\n        /* \"#utility.yul\":5473:5474   */\n      0x04\n        /* \"#utility.yul\":5466:5481   */\n      mstore\n        /* \"#utility.yul\":5500:5504   */\n      0x24\n        /* \"#utility.yul\":5497:5498   */\n      0x00\n        /* \"#utility.yul\":5490:5505   */\n      revert\n        /* \"#utility.yul\":5517:5697   */\n    tag_106:\n        /* \"#utility.yul\":5565:5642   */\n      0x4e487b7100000000000000000000000000000000000000000000000000000000\n        /* \"#utility.yul\":5562:5563   */\n      0x00\n        /* \"#utility.yul\":5555:5643   */\n      mstore\n        /* \"#utility.yul\":5662:5666   */\n      0x41\n        /* \"#utility.yul\":5659:5660   */\n      0x04\n        /* \"#utility.yul\":5652:5667   */\n      mstore\n        /* \"#utility.yul\":5686:5690   */\n      0x24\n        /* \"#utility.yul\":5683:5684   */\n      0x00\n        /* \"#utility.yul\":5676:5691   */\n      revert\n        /* \"#utility.yul\":5703:5820   */\n    tag_63:\n        /* \"#utility.yul\":5812:5813   */\n      0x00\n        /* \"#utility.yul\":5809:5810   */\n      dup1\n        /* \"#utility.yul\":5802:5814   */\n      revert\n        /* \"#utility.yul\":5826:5943   */\n    tag_56:\n        /* \"#utility.yul\":5935:5936   */\n      0x00\n        /* \"#utility.yul\":5932:5933   */\n      dup1\n        /* \"#utility.yul\":5925:5937   */\n      revert\n        /* \"#utility.yul\":5949:6066   */\n    tag_71:\n        /* \"#utility.yul\":6058:6059   */\n      0x00\n        /* \"#utility.yul\":6055:6056   */\n      dup1\n        /* \"#utility.yul\":6048:6060   */\n      revert\n        /* \"#utility.yul\":6072:6189   */\n    tag_68:\n        /* \"#utility.yul\":6181:6182   */\n      0x00\n        /* \"#utility.yul\":6178:6179   */\n      dup1\n        /* \"#utility.yul\":6171:6183   */\n      revert\n        /* \"#utility.yul\":6195:6297   */\n    tag_86:\n        /* \"#utility.yul\":6236:6242   */\n      0x00\n        /* \"#utility.yul\":6287:6289   */\n      0x1f\n        /* \"#utility.yul\":6283:6290   */\n      not\n        /* \"#utility.yul\":6278:6280   */\n      0x1f\n        /* \"#utility.yul\":6271:6276   */\n      dup4\n        /* \"#utility.yul\":6267:6281   */\n      add\n        /* \"#utility.yul\":6263:6291   */\n      and\n        /* \"#utility.yul\":6253:6291   */\n      swap1\n      pop\n        /* \"#utility.yul\":6195:6297   */\n      swap2\n      swap1\n      pop\n      jump\t// out\n\n    auxdata: 0xa2646970667358221220c62a4b67ddad1e439f6fcedb06a71026af889d6704b8f7b6e48f826b921294e364736f6c63430008070033\n}\n",
				"bytecode": {
					"linkReferences": {},
					"object": "608060405234801561001057600080fd5b5033600160006101000a81548173ffffffffffffffffffffffffffffffffffffffff021916908373ffffffffffffffffffffffffffffffffffffffff1602179055506106a4806100616000396000f3fe608060405234801561001057600080fd5b506004361061004c5760003560e01c806306ab50bc146100515780631b4353a81461006d57806324cc28661461008b578063450b2fad146100a9575b600080fd5b61006b60048036038101906100669190610328565b6100c7565b005b610075610153565b6040516100829190610405565b60405180910390f35b61009361015d565b6040516100a091906103c8565b60405180910390f35b6100b1610187565b6040516100be91906103e3565b60405180910390f35b3373ffffffffffffffffffffffffffffffffffffffff16600160009054906101000a900473ffffffffffffffffffffffffffffffffffffffff1673ffffffffffffffffffffffffffffffffffffffff161461012157600080fd5b8060009080519060200190610137929190610215565b506002600081548092919061014b90610573565b919050555050565b6000600254905090565b6000600160009054906101000a900473ffffffffffffffffffffffffffffffffffffffff16905090565b6000805461019490610510565b80601f01602080910402602001604051908101604052809291908181526020018280546101c090610510565b801561020d5780601f106101e25761010080835404028352916020019161020d565b820191906000526020600020905b8154815290600101906020018083116101f057829003601f168201915b505050505081565b82805461022190610510565b90600052602060002090601f016020900481019282610243576000855561028a565b82601f1061025c57805160ff191683800117855561028a565b8280016001018555821561028a579182015b8281111561028957825182559160200191906001019061026e565b5b509050610297919061029b565b5090565b5b808211156102b457600081600090555060010161029c565b5090565b60006102cb6102c684610445565b610420565b9050828152602081018484840111156102e7576102e661064e565b5b6102f28482856104ce565b509392505050565b600082601f83011261030f5761030e610649565b5b813561031f8482602086016102b8565b91505092915050565b60006020828403121561033e5761033d610658565b5b600082013567ffffffffffffffff81111561035c5761035b610653565b5b610368848285016102fa565b91505092915050565b61037a81610492565b82525050565b600061038b82610476565b6103958185610481565b93506103a58185602086016104dd565b6103ae8161065d565b840191505092915050565b6103c2816104c4565b82525050565b60006020820190506103dd6000830184610371565b92915050565b600060208201905081810360008301526103fd8184610380565b905092915050565b600060208201905061041a60008301846103b9565b92915050565b600061042a61043b565b90506104368282610542565b919050565b6000604051905090565b600067ffffffffffffffff8211156104605761045f61061a565b5b6104698261065d565b9050602081019050919050565b600081519050919050565b600082825260208201905092915050565b600061049d826104a4565b9050919050565b600073ffffffffffffffffffffffffffffffffffffffff82169050919050565b6000819050919050565b82818337600083830152505050565b60005b838110156104fb5780820151818401526020810190506104e0565b8381111561050a576000848401525b50505050565b6000600282049050600182168061052857607f821691505b6020821081141561053c5761053b6105eb565b5b50919050565b61054b8261065d565b810181811067ffffffffffffffff8211171561056a5761056961061a565b5b80604052505050565b600061057e826104c4565b91507fffffffffffffffffffffffffffffffffffffffffffffffffffffffffffffffff8214156105b1576105b06105bc565b5b600182019050919050565b7f4e487b7100000000000000000000000000000000000000000000000000000000600052601160045260246000fd5b7f4e487b7100000000000000000000000000000000000000000000000000000000600052602260045260246000fd5b7f4e487b7100000000000000000000000000000000000000000000000000000000600052604160045260246000fd5b600080fd5b600080fd5b600080fd5b600080fd5b6000601f19601f830116905091905056fea2646970667358221220c62a4b67ddad1e439f6fcedb06a71026af889d6704b8f7b6e48f826b921294e364736f6c63430008070033",
					"opcodes": "PUSH1 0x80 PUSH1 0x40 MSTORE CALLVALUE DUP1 ISZERO PUSH2 0x10 JUMPI PUSH1 0x0 DUP1 REVERT JUMPDEST POP CALLER PUSH1 0x1 PUSH1 0x0 PUSH2 0x100 EXP DUP2 SLOAD DUP2 PUSH20 0xFFFFFFFFFFFFFFFFFFFFFFFFFFFFFFFFFFFFFFFF MUL NOT AND SWAP1 DUP4 PUSH20 0xFFFFFFFFFFFFFFFFFFFFFFFFFFFFFFFFFFFFFFFF AND MUL OR SWAP1 SSTORE POP PUSH2 0x6A4 DUP1 PUSH2 0x61 PUSH1 0x0 CODECOPY PUSH1 0x0 RETURN INVALID PUSH1 0x80 PUSH1 0x40 MSTORE CALLVALUE DUP1 ISZERO PUSH2 0x10 JUMPI PUSH1 0x0 DUP1 REVERT JUMPDEST POP PUSH1 0x4 CALLDATASIZE LT PUSH2 0x4C JUMPI PUSH1 0x0 CALLDATALOAD PUSH1 0xE0 SHR DUP1 PUSH4 0x6AB50BC EQ PUSH2 0x51 JUMPI DUP1 PUSH4 0x1B4353A8 EQ PUSH2 0x6D JUMPI DUP1 PUSH4 0x24CC2866 EQ PUSH2 0x8B JUMPI DUP1 PUSH4 0x450B2FAD EQ PUSH2 0xA9 JUMPI JUMPDEST PUSH1 0x0 DUP1 REVERT JUMPDEST PUSH2 0x6B PUSH1 0x4 DUP1 CALLDATASIZE SUB DUP2 ADD SWAP1 PUSH2 0x66 SWAP2 SWAP1 PUSH2 0x328 JUMP JUMPDEST PUSH2 0xC7 JUMP JUMPDEST STOP JUMPDEST PUSH2 0x75 PUSH2 0x153 JUMP JUMPDEST PUSH1 0x40 MLOAD PUSH2 0x82 SWAP2 SWAP1 PUSH2 0x405 JUMP JUMPDEST PUSH1 0x40 MLOAD DUP1 SWAP2 SUB SWAP1 RETURN JUMPDEST PUSH2 0x93 PUSH2 0x15D JUMP JUMPDEST PUSH1 0x40 MLOAD PUSH2 0xA0 SWAP2 SWAP1 PUSH2 0x3C8 JUMP JUMPDEST PUSH1 0x40 MLOAD DUP1 SWAP2 SUB SWAP1 RETURN JUMPDEST PUSH2 0xB1 PUSH2 0x187 JUMP JUMPDEST PUSH1 0x40 MLOAD PUSH2 0xBE SWAP2 SWAP1 PUSH2 0x3E3 JUMP JUMPDEST PUSH1 0x40 MLOAD DUP1 SWAP2 SUB SWAP1 RETURN JUMPDEST CALLER PUSH20 0xFFFFFFFFFFFFFFFFFFFFFFFFFFFFFFFFFFFFFFFF AND PUSH1 0x1 PUSH1 0x0 SWAP1 SLOAD SWAP1 PUSH2 0x100 EXP SWAP1 DIV PUSH20 0xFFFFFFFFFFFFFFFFFFFFFFFFFFFFFFFFFFFFFFFF AND PUSH20 0xFFFFFFFFFFFFFFFFFFFFFFFFFFFFFFFFFFFFFFFF AND EQ PUSH2 0x121 JUMPI PUSH1 0x0 DUP1 REVERT JUMPDEST DUP1 PUSH1 0x0 SWAP1 DUP1 MLOAD SWAP1 PUSH1 0x20 ADD SWAP1 PUSH2 0x137 SWAP3 SWAP2 SWAP1 PUSH2 0x215 JUMP JUMPDEST POP PUSH1 0x2 PUSH1 0x0 DUP2 SLOAD DUP1 SWAP3 SWAP2 SWAP1 PUSH2 0x14B SWAP1 PUSH2 0x573 JUMP JUMPDEST SWAP2 SWAP1 POP SSTORE POP POP JUMP JUMPDEST PUSH1 0x0 PUSH1 0x2 SLOAD SWAP1 POP SWAP1 JUMP JUMPDEST PUSH1 0x0 PUSH1 0x1 PUSH1 0x0 SWAP1 SLOAD SWAP1 PUSH2 0x100 EXP SWAP1 DIV PUSH20 0xFFFFFFFFFFFFFFFFFFFFFFFFFFFFFFFFFFFFFFFF AND SWAP1 POP SWAP1 JUMP JUMPDEST PUSH1 0x0 DUP1 SLOAD PUSH2 0x194 SWAP1 PUSH2 0x510 JUMP JUMPDEST DUP1 PUSH1 0x1F ADD PUSH1 0x20 DUP1 SWAP2 DIV MUL PUSH1 0x20 ADD PUSH1 0x40 MLOAD SWAP1 DUP2 ADD PUSH1 0x40 MSTORE DUP1 SWAP3 SWAP2 SWAP1 DUP2 DUP2 MSTORE PUSH1 0x20 ADD DUP3 DUP1 SLOAD PUSH2 0x1C0 SWAP1 PUSH2 0x510 JUMP JUMPDEST DUP1 ISZERO PUSH2 0x20D JUMPI DUP1 PUSH1 0x1F LT PUSH2 0x1E2 JUMPI PUSH2 0x100 DUP1 DUP4 SLOAD DIV MUL DUP4 MSTORE SWAP2 PUSH1 0x20 ADD SWAP2 PUSH2 0x20D JUMP JUMPDEST DUP3 ADD SWAP2 SWAP1 PUSH1 0x0 MSTORE PUSH1 0x20 PUSH1 0x0 KECCAK256 SWAP1 JUMPDEST DUP2 SLOAD DUP2 MSTORE SWAP1 PUSH1 0x1 ADD SWAP1 PUSH1 0x20 ADD DUP1 DUP4 GT PUSH2 0x1F0 JUMPI DUP3 SWAP1 SUB PUSH1 0x1F AND DUP3 ADD SWAP2 JUMPDEST POP POP POP POP POP DUP2 JUMP JUMPDEST DUP3 DUP1 SLOAD PUSH2 0x221 SWAP1 PUSH2 0x510 JUMP JUMPDEST SWAP1 PUSH1 0x0 MSTORE PUSH1 0x20 PUSH1 0x0 KECCAK256 SWAP1 PUSH1 0x1F ADD PUSH1 0x20 SWAP1 DIV DUP2 ADD SWAP3 DUP3 PUSH2 0x243 JUMPI PUSH1 0x0 DUP6 SSTORE PUSH2 0x28A JUMP JUMPDEST DUP3 PUSH1 0x1F LT PUSH2 0x25C JUMPI DUP1 MLOAD PUSH1 0xFF NOT AND DUP4 DUP1 ADD OR DUP6 SSTORE PUSH2 0x28A JUMP JUMPDEST DUP3 DUP1 ADD PUSH1 0x1 ADD DUP6 SSTORE DUP3 ISZERO PUSH2 0x28A JUMPI SWAP2 DUP3 ADD JUMPDEST DUP3 DUP2 GT ISZERO PUSH2 0x289 JUMPI DUP3 MLOAD DUP3 SSTORE SWAP2 PUSH1 0x20 ADD SWAP2 SWAP1 PUSH1 0x1 ADD SWAP1 PUSH2 0x26E JUMP JUMPDEST JUMPDEST POP SWAP1 POP PUSH2 0x297 SWAP2 SWAP1 PUSH2 0x29B JUMP JUMPDEST POP SWAP1 JUMP JUMPDEST JUMPDEST DUP1 DUP3 GT ISZERO PUSH2 0x2B4 JUMPI PUSH1 0x0 DUP2 PUSH1 0x0 SWAP1 SSTORE POP PUSH1 0x1 ADD PUSH2 0x29C JUMP JUMPDEST POP SWAP1 JUMP JUMPDEST PUSH1 0x0 PUSH2 0x2CB PUSH2 0x2C6 DUP5 PUSH2 0x445 JUMP JUMPDEST PUSH2 0x420 JUMP JUMPDEST SWAP1 POP DUP3 DUP2 MSTORE PUSH1 0x20 DUP2 ADD DUP5 DUP5 DUP5 ADD GT ISZERO PUSH2 0x2E7 JUMPI PUSH2 0x2E6 PUSH2 0x64E JUMP JUMPDEST JUMPDEST PUSH2 0x2F2 DUP5 DUP3 DUP6 PUSH2 0x4CE JUMP JUMPDEST POP SWAP4 SWAP3 POP POP POP JUMP JUMPDEST PUSH1 0x0 DUP3 PUSH1 0x1F DUP4 ADD SLT PUSH2 0x30F JUMPI PUSH2 0x30E PUSH2 0x649 JUMP JUMPDEST JUMPDEST DUP2 CALLDATALOAD PUSH2 0x31F DUP5 DUP3 PUSH1 0x20 DUP7 ADD PUSH2 0x2B8 JUMP JUMPDEST SWAP2 POP POP SWAP3 SWAP2 POP POP JUMP JUMPDEST PUSH1 0x0 PUSH1 0x20 DUP3 DUP5 SUB SLT ISZERO PUSH2 0x33E JUMPI PUSH2 0x33D PUSH2 0x658 JUMP JUMPDEST JUMPDEST PUSH1 0x0 DUP3 ADD CALLDATALOAD PUSH8 0xFFFFFFFFFFFFFFFF DUP2 GT ISZERO PUSH2 0x35C JUMPI PUSH2 0x35B PUSH2 0x653 JUMP JUMPDEST JUMPDEST PUSH2 0x368 DUP5 DUP3 DUP6 ADD PUSH2 0x2FA JUMP JUMPDEST SWAP2 POP POP SWAP3 SWAP2 POP POP JUMP JUMPDEST PUSH2 0x37A DUP2 PUSH2 0x492 JUMP JUMPDEST DUP3 MSTORE POP POP JUMP JUMPDEST PUSH1 0x0 PUSH2 0x38B DUP3 PUSH2 0x476 JUMP JUMPDEST PUSH2 0x395 DUP2 DUP6 PUSH2 0x481 JUMP JUMPDEST SWAP4 POP PUSH2 0x3A5 DUP2 DUP6 PUSH1 0x20 DUP7 ADD PUSH2 0x4DD JUMP JUMPDEST PUSH2 0x3AE DUP2 PUSH2 0x65D JUMP JUMPDEST DUP5 ADD SWAP2 POP POP SWAP3 SWAP2 POP POP JUMP JUMPDEST PUSH2 0x3C2 DUP2 PUSH2 0x4C4 JUMP JUMPDEST DUP3 MSTORE POP POP JUMP JUMPDEST PUSH1 0x0 PUSH1 0x20 DUP3 ADD SWAP1 POP PUSH2 0x3DD PUSH1 0x0 DUP4 ADD DUP5 PUSH2 0x371 JUMP JUMPDEST SWAP3 SWAP2 POP POP JUMP JUMPDEST PUSH1 0x0 PUSH1 0x20 DUP3 ADD SWAP1 POP DUP2 DUP2 SUB PUSH1 0x0 DUP4 ADD MSTORE PUSH2 0x3FD DUP2 DUP5 PUSH2 0x380 JUMP JUMPDEST SWAP1 POP SWAP3 SWAP2 POP POP JUMP JUMPDEST PUSH1 0x0 PUSH1 0x20 DUP3 ADD SWAP1 POP PUSH2 0x41A PUSH1 0x0 DUP4 ADD DUP5 PUSH2 0x3B9 JUMP JUMPDEST SWAP3 SWAP2 POP POP JUMP JUMPDEST PUSH1 0x0 PUSH2 0x42A PUSH2 0x43B JUMP JUMPDEST SWAP1 POP PUSH2 0x436 DUP3 DUP3 PUSH2 0x542 JUMP JUMPDEST SWAP2 SWAP1 POP JUMP JUMPDEST PUSH1 0x0 PUSH1 0x40 MLOAD SWAP1 POP SWAP1 JUMP JUMPDEST PUSH1 0x0 PUSH8 0xFFFFFFFFFFFFFFFF DUP3 GT ISZERO PUSH2 0x460 JUMPI PUSH2 0x45F PUSH2 0x61A JUMP JUMPDEST JUMPDEST PUSH2 0x469 DUP3 PUSH2 0x65D JUMP JUMPDEST SWAP1 POP PUSH1 0x20 DUP2 ADD SWAP1 POP SWAP2 SWAP1 POP JUMP JUMPDEST PUSH1 0x0 DUP2 MLOAD SWAP1 POP SWAP2 SWAP1 POP JUMP JUMPDEST PUSH1 0x0 DUP3 DUP3 MSTORE PUSH1 0x20 DUP3 ADD SWAP1 POP SWAP3 SWAP2 POP POP JUMP JUMPDEST PUSH1 0x0 PUSH2 0x49D DUP3 PUSH2 0x4A4 JUMP JUMPDEST SWAP1 POP SWAP2 SWAP1 POP JUMP JUMPDEST PUSH1 0x0 PUSH20 0xFFFFFFFFFFFFFFFFFFFFFFFFFFFFFFFFFFFFFFFF DUP3 AND SWAP1 POP SWAP2 SWAP1 POP JUMP JUMPDEST PUSH1 0x0 DUP2 SWAP1 POP SWAP2 SWAP1 POP JUMP JUMPDEST DUP3 DUP2 DUP4 CALLDATACOPY PUSH1 0x0 DUP4 DUP4 ADD MSTORE POP POP POP JUMP JUMPDEST PUSH1 0x0 JUMPDEST DUP4 DUP2 LT ISZERO PUSH2 0x4FB JUMPI DUP1 DUP3 ADD MLOAD DUP2 DUP5 ADD MSTORE PUSH1 0x20 DUP2 ADD SWAP1 POP PUSH2 0x4E0 JUMP JUMPDEST DUP4 DUP2 GT ISZERO PUSH2 0x50A JUMPI PUSH1 0x0 DUP5 DUP5 ADD MSTORE JUMPDEST POP POP POP POP JUMP JUMPDEST PUSH1 0x0 PUSH1 0x2 DUP3 DIV SWAP1 POP PUSH1 0x1 DUP3 AND DUP1 PUSH2 0x528 JUMPI PUSH1 0x7F DUP3 AND SWAP2 POP JUMPDEST PUSH1 0x20 DUP3 LT DUP2 EQ ISZERO PUSH2 0x53C JUMPI PUSH2 0x53B PUSH2 0x5EB JUMP JUMPDEST JUMPDEST POP SWAP2 SWAP1 POP JUMP JUMPDEST PUSH2 0x54B DUP3 PUSH2 0x65D JUMP JUMPDEST DUP2 ADD DUP2 DUP2 LT PUSH8 0xFFFFFFFFFFFFFFFF DUP3 GT OR ISZERO PUSH2 0x56A JUMPI PUSH2 0x569 PUSH2 0x61A JUMP JUMPDEST JUMPDEST DUP1 PUSH1 0x40 MSTORE POP POP POP JUMP JUMPDEST PUSH1 0x0 PUSH2 0x57E DUP3 PUSH2 0x4C4 JUMP JUMPDEST SWAP2 POP PUSH32 0xFFFFFFFFFFFFFFFFFFFFFFFFFFFFFFFFFFFFFFFFFFFFFFFFFFFFFFFFFFFFFFFF DUP3 EQ ISZERO PUSH2 0x5B1 JUMPI PUSH2 0x5B0 PUSH2 0x5BC JUMP JUMPDEST JUMPDEST PUSH1 0x1 DUP3 ADD SWAP1 POP SWAP2 SWAP1 POP JUMP JUMPDEST PUSH32 0x4E487B7100000000000000000000000000000000000000000000000000000000 PUSH1 0x0 MSTORE PUSH1 0x11 PUSH1 0x4 MSTORE PUSH1 0x24 PUSH1 0x0 REVERT JUMPDEST PUSH32 0x4E487B7100000000000000000000000000000000000000000000000000000000 PUSH1 0x0 MSTORE PUSH1 0x22 PUSH1 0x4 MSTORE PUSH1 0x24 PUSH1 0x0 REVERT JUMPDEST PUSH32 0x4E487B7100000000000000000000000000000000000000000000000000000000 PUSH1 0x0 MSTORE PUSH1 0x41 PUSH1 0x4 MSTORE PUSH1 0x24 PUSH1 0x0 REVERT JUMPDEST PUSH1 0x0 DUP1 REVERT JUMPDEST PUSH1 0x0 DUP1 REVERT JUMPDEST PUSH1 0x0 DUP1 REVERT JUMPDEST PUSH1 0x0 DUP1 REVERT JUMPDEST PUSH1 0x0 PUSH1 0x1F NOT PUSH1 0x1F DUP4 ADD AND SWAP1 POP SWAP2 SWAP1 POP JUMP INVALID LOG2 PUSH5 0x6970667358 0x22 SLT KECCAK256 0xC6 0x2A 0x4B PUSH8 0xDDAD1E439F6FCEDB MOD 0xA7 LT 0x26 0xAF DUP9 SWAP14 PUSH8 0x4B8F7B6E48F826B SWAP3 SLT SWAP5 0xE3 PUSH5 0x736F6C6343 STOP ADDMOD SMOD STOP CALLER "
				},
				"gasEstimates": {
					"creation": {
						"codeDepositCost": "340000",
						"executionCost": "24646",
						"totalCost": "364646"
					},
					"external": {
						"getCountMsg()": "2437",
						"getDeployerAddress()": "2544",
						"myMsg()": "infinite",
						"setNewMsg(string)": "infinite"
					}
				},
				"methodIdentifiers": {
					"getCountMsg()": "1b4353a8",
					"getDeployerAddress()": "24cc2866",
					"myMsg()": "450b2fad",
					"setNewMsg(string)": "06ab50bc"
				}
			},
			"storageLayout": {
				"storage": [
					{
						"astId": 3,
						"contract": "contracts/BlockchainMsg.sol:BlockchainMsg",
						"label": "myMsg",
						"offset": 0,
						"slot": "0",
						"type": "t_string_storage"
					},
					{
						"astId": 5,
						"contract": "contracts/BlockchainMsg.sol:BlockchainMsg",
						"label": "deployerAddress",
						"offset": 0,
						"slot": "1",
						"type": "t_address"
					},
					{
						"astId": 7,
						"contract": "contracts/BlockchainMsg.sol:BlockchainMsg",
						"label": "countMsg",
						"offset": 0,
						"slot": "2",
						"type": "t_uint256"
					}
				],
				"types": {
					"t_address": {
						"encoding": "inplace",
						"label": "address",
						"numberOfBytes": "20"
					},
					"t_string_storage": {
						"encoding": "bytes",
						"label": "string",
						"numberOfBytes": "32"
					},
					"t_uint256": {
						"encoding": "inplace",
						"label": "uint256",
						"numberOfBytes": "32"
					}
				}
			},
			"userdoc": {
				"kind": "user",
				"methods": {},
				"version": 1
			}
		}
	}
}