{
	"contracts/ExampleStrings.sol": {
		"ExampleStrings": {
			"abi": [
				{
					"inputs": [
						{
							"internalType": "string",
							"name": "_myString",
							"type": "string"
						}
					],
					"name": "compareTwoStrings",
					"outputs": [
						{
							"internalType": "bool",
							"name": "",
							"type": "bool"
						}
					],
					"stateMutability": "view",
					"type": "function"
				},
				{
					"inputs": [],
					"name": "getBytesLength",
					"outputs": [
						{
							"internalType": "uint256",
							"name": "",
							"type": "uint256"
						}
					],
					"stateMutability": "view",
					"type": "function"
				},
				{
					"inputs": [],
					"name": "myBytes",
					"outputs": [
						{
							"internalType": "bytes",
							"name": "",
							"type": "bytes"
						}
					],
					"stateMutability": "view",
					"type": "function"
				},
				{
					"inputs": [],
					"name": "myString",
					"outputs": [
						{
							"internalType": "string",
							"name": "",
							"type": "string"
						}
					],
					"stateMutability": "view",
					"type": "function"
				},
				{
					"inputs": [
						{
							"internalType": "string",
							"name": "_myString",
							"type": "string"
						}
					],
					"name": "setMyString",
					"outputs": [],
					"stateMutability": "nonpayable",
					"type": "function"
				}
			],
			"devdoc": {
				"kind": "dev",
				"methods": {},
				"version": 1
			},
			"evm": {
				"assembly": "    /* \"contracts/ExampleStrings.sol\":115:1615  contract ExampleStrings {\r... */\n  mstore(0x40, 0x80)\n    /* \"contracts/ExampleStrings.sol\":148:185  string public myString = \"Helloworld\" */\n  mload(0x40)\n  dup1\n  0x40\n  add\n  0x40\n  mstore\n  dup1\n  0x0a\n  dup2\n  mstore\n  0x20\n  add\n  0x48656c6c6f776f726c6400000000000000000000000000000000000000000000\n  dup2\n  mstore\n  pop\n  0x00\n  swap1\n  dup1\n  mload\n  swap1\n  0x20\n  add\n  swap1\n  tag_1\n  swap3\n  swap2\n  swap1\n  tag_2\n  jump\t// in\ntag_1:\n  pop\n    /* \"contracts/ExampleStrings.sol\":376:420  bytes public myBytes = unicode\"Hello Wörld\" */\n  mload(0x40)\n  dup1\n  0x40\n  add\n  0x40\n  mstore\n  dup1\n  0x0c\n  dup2\n  mstore\n  0x20\n  add\n  0x48656c6c6f2057c3b6726c640000000000000000000000000000000000000000\n  dup2\n  mstore\n  pop\n  0x01\n  swap1\n  dup1\n  mload\n  swap1\n  0x20\n  add\n  swap1\n  tag_3\n  swap3\n  swap2\n  swap1\n  tag_4\n  jump\t// in\ntag_3:\n  pop\n    /* \"contracts/ExampleStrings.sol\":115:1615  contract ExampleStrings {\r... */\n  callvalue\n  dup1\n  iszero\n  tag_5\n  jumpi\n  0x00\n  dup1\n  revert\ntag_5:\n  pop\n  jump(tag_6)\ntag_2:\n  dup3\n  dup1\n  sload\n  tag_7\n  swap1\n  tag_8\n  jump\t// in\ntag_7:\n  swap1\n  0x00\n  mstore\n  keccak256(0x00, 0x20)\n  swap1\n  0x1f\n  add\n  0x20\n  swap1\n  div\n  dup2\n  add\n  swap3\n  dup3\n  tag_10\n  jumpi\n  0x00\n  dup6\n  sstore\n  jump(tag_9)\ntag_10:\n  dup3\n  0x1f\n  lt\n  tag_11\n  jumpi\n  dup1\n  mload\n  not(0xff)\n  and\n  dup4\n  dup1\n  add\n  or\n  dup6\n  sstore\n  jump(tag_9)\ntag_11:\n  dup3\n  dup1\n  add\n  0x01\n  add\n  dup6\n  sstore\n  dup3\n  iszero\n  tag_9\n  jumpi\n  swap2\n  dup3\n  add\ntag_12:\n  dup3\n  dup2\n  gt\n  iszero\n  tag_13\n  jumpi\n  dup3\n  mload\n  dup3\n  sstore\n  swap2\n  0x20\n  add\n  swap2\n  swap1\n  0x01\n  add\n  swap1\n  jump(tag_12)\ntag_13:\ntag_9:\n  pop\n  swap1\n  pop\n  tag_14\n  swap2\n  swap1\n  tag_15\n  jump\t// in\ntag_14:\n  pop\n  swap1\n  jump\t// out\ntag_4:\n  dup3\n  dup1\n  sload\n  tag_16\n  swap1\n  tag_8\n  jump\t// in\ntag_16:\n  swap1\n  0x00\n  mstore\n  keccak256(0x00, 0x20)\n  swap1\n  0x1f\n  add\n  0x20\n  swap1\n  div\n  dup2\n  add\n  swap3\n  dup3\n  tag_18\n  jumpi\n  0x00\n  dup6\n  sstore\n  jump(tag_17)\ntag_18:\n  dup3\n  0x1f\n  lt\n  tag_19\n  jumpi\n  dup1\n  mload\n  not(0xff)\n  and\n  dup4\n  dup1\n  add\n  or\n  dup6\n  sstore\n  jump(tag_17)\ntag_19:\n  dup3\n  dup1\n  add\n  0x01\n  add\n  dup6\n  sstore\n  dup3\n  iszero\n  tag_17\n  jumpi\n  swap2\n  dup3\n  add\ntag_20:\n  dup3\n  dup2\n  gt\n  iszero\n  tag_21\n  jumpi\n  dup3\n  mload\n  dup3\n  sstore\n  swap2\n  0x20\n  add\n  swap2\n  swap1\n  0x01\n  add\n  swap1\n  jump(tag_20)\ntag_21:\ntag_17:\n  pop\n  swap1\n  pop\n  tag_22\n  swap2\n  swap1\n  tag_15\n  jump\t// in\ntag_22:\n  pop\n  swap1\n  jump\t// out\ntag_15:\ntag_23:\n  dup1\n  dup3\n  gt\n  iszero\n  tag_24\n  jumpi\n  0x00\n  dup2\n  0x00\n  swap1\n  sstore\n  pop\n  0x01\n  add\n  jump(tag_23)\ntag_24:\n  pop\n  swap1\n  jump\t// out\n    /* \"#utility.yul\":7:327   */\ntag_8:\n    /* \"#utility.yul\":51:57   */\n  0x00\n    /* \"#utility.yul\":88:89   */\n  0x02\n    /* \"#utility.yul\":82:86   */\n  dup3\n    /* \"#utility.yul\":78:90   */\n  div\n    /* \"#utility.yul\":68:90   */\n  swap1\n  pop\n    /* \"#utility.yul\":135:136   */\n  0x01\n    /* \"#utility.yul\":129:133   */\n  dup3\n    /* \"#utility.yul\":125:137   */\n  and\n    /* \"#utility.yul\":156:174   */\n  dup1\n    /* \"#utility.yul\":146:227   */\n  tag_27\n  jumpi\n    /* \"#utility.yul\":212:216   */\n  0x7f\n    /* \"#utility.yul\":204:210   */\n  dup3\n    /* \"#utility.yul\":200:217   */\n  and\n    /* \"#utility.yul\":190:217   */\n  swap2\n  pop\n    /* \"#utility.yul\":146:227   */\ntag_27:\n    /* \"#utility.yul\":274:276   */\n  0x20\n    /* \"#utility.yul\":266:272   */\n  dup3\n    /* \"#utility.yul\":263:277   */\n  lt\n    /* \"#utility.yul\":243:261   */\n  dup2\n    /* \"#utility.yul\":240:278   */\n  eq\n    /* \"#utility.yul\":237:321   */\n  iszero\n  tag_28\n  jumpi\n    /* \"#utility.yul\":293:311   */\n  tag_29\n  tag_30\n  jump\t// in\ntag_29:\n    /* \"#utility.yul\":237:321   */\ntag_28:\n    /* \"#utility.yul\":58:327   */\n  pop\n    /* \"#utility.yul\":7:327   */\n  swap2\n  swap1\n  pop\n  jump\t// out\n    /* \"#utility.yul\":333:513   */\ntag_30:\n    /* \"#utility.yul\":381:458   */\n  0x4e487b7100000000000000000000000000000000000000000000000000000000\n    /* \"#utility.yul\":378:379   */\n  0x00\n    /* \"#utility.yul\":371:459   */\n  mstore\n    /* \"#utility.yul\":478:482   */\n  0x22\n    /* \"#utility.yul\":475:476   */\n  0x04\n    /* \"#utility.yul\":468:483   */\n  mstore\n    /* \"#utility.yul\":502:506   */\n  0x24\n    /* \"#utility.yul\":499:500   */\n  0x00\n    /* \"#utility.yul\":492:507   */\n  revert\n    /* \"contracts/ExampleStrings.sol\":115:1615  contract ExampleStrings {\r... */\ntag_6:\n  dataSize(sub_0)\n  dup1\n  dataOffset(sub_0)\n  0x00\n  codecopy\n  0x00\n  return\nstop\n\nsub_0: assembly {\n        /* \"contracts/ExampleStrings.sol\":115:1615  contract ExampleStrings {\r... */\n      mstore(0x40, 0x80)\n      callvalue\n      dup1\n      iszero\n      tag_1\n      jumpi\n      0x00\n      dup1\n      revert\n    tag_1:\n      pop\n      jumpi(tag_2, lt(calldatasize, 0x04))\n      shr(0xe0, calldataload(0x00))\n      dup1\n      0x07da3eae\n      eq\n      tag_3\n      jumpi\n      dup1\n      0x492bfa18\n      eq\n      tag_4\n      jumpi\n      dup1\n      0x5ce25353\n      eq\n      tag_5\n      jumpi\n      dup1\n      0x712f4602\n      eq\n      tag_6\n      jumpi\n      dup1\n      0x82180568\n      eq\n      tag_7\n      jumpi\n    tag_2:\n      0x00\n      dup1\n      revert\n        /* \"contracts/ExampleStrings.sol\":1355:1447  function getBytesLength() public view returns(uint) {\r... */\n    tag_3:\n      tag_8\n      tag_9\n      jump\t// in\n    tag_8:\n      mload(0x40)\n      tag_10\n      swap2\n      swap1\n      tag_11\n      jump\t// in\n    tag_10:\n      mload(0x40)\n      dup1\n      swap2\n      sub\n      swap1\n      return\n        /* \"contracts/ExampleStrings.sol\":148:185  string public myString = \"Helloworld\" */\n    tag_4:\n      tag_12\n      tag_13\n      jump\t// in\n    tag_12:\n      mload(0x40)\n      tag_14\n      swap2\n      swap1\n      tag_15\n      jump\t// in\n    tag_14:\n      mload(0x40)\n      dup1\n      swap2\n      sub\n      swap1\n      return\n        /* \"contracts/ExampleStrings.sol\":1049:1347  function compareTwoStrings(string memory _myString) public view returns (bool) {\r... */\n    tag_5:\n      tag_16\n      0x04\n      dup1\n      calldatasize\n      sub\n      dup2\n      add\n      swap1\n      tag_17\n      swap2\n      swap1\n      tag_18\n      jump\t// in\n    tag_17:\n      tag_19\n      jump\t// in\n    tag_16:\n      mload(0x40)\n      tag_20\n      swap2\n      swap1\n      tag_21\n      jump\t// in\n    tag_20:\n      mload(0x40)\n      dup1\n      swap2\n      sub\n      swap1\n      return\n        /* \"contracts/ExampleStrings.sol\":376:420  bytes public myBytes = unicode\"Hello Wörld\" */\n    tag_6:\n      tag_22\n      tag_23\n      jump\t// in\n    tag_22:\n      mload(0x40)\n      tag_24\n      swap2\n      swap1\n      tag_25\n      jump\t// in\n    tag_24:\n      mload(0x40)\n      dup1\n      swap2\n      sub\n      swap1\n      return\n        /* \"contracts/ExampleStrings.sol\":949:1041  function setMyString(string memory _myString) public {\r... */\n    tag_7:\n      tag_26\n      0x04\n      dup1\n      calldatasize\n      sub\n      dup2\n      add\n      swap1\n      tag_27\n      swap2\n      swap1\n      tag_18\n      jump\t// in\n    tag_27:\n      tag_28\n      jump\t// in\n    tag_26:\n      stop\n        /* \"contracts/ExampleStrings.sol\":1355:1447  function getBytesLength() public view returns(uint) {\r... */\n    tag_9:\n        /* \"contracts/ExampleStrings.sol\":1401:1405  uint */\n      0x00\n        /* \"contracts/ExampleStrings.sol\":1425:1432  myBytes */\n      0x01\n        /* \"contracts/ExampleStrings.sol\":1425:1439  myBytes.length */\n      dup1\n      sload\n      tag_30\n      swap1\n      tag_31\n      jump\t// in\n    tag_30:\n      swap1\n      pop\n        /* \"contracts/ExampleStrings.sol\":1418:1439  return myBytes.length */\n      swap1\n      pop\n        /* \"contracts/ExampleStrings.sol\":1355:1447  function getBytesLength() public view returns(uint) {\r... */\n      swap1\n      jump\t// out\n        /* \"contracts/ExampleStrings.sol\":148:185  string public myString = \"Helloworld\" */\n    tag_13:\n      0x00\n      dup1\n      sload\n      tag_32\n      swap1\n      tag_31\n      jump\t// in\n    tag_32:\n      dup1\n      0x1f\n      add\n      0x20\n      dup1\n      swap2\n      div\n      mul\n      0x20\n      add\n      mload(0x40)\n      swap1\n      dup2\n      add\n      0x40\n      mstore\n      dup1\n      swap3\n      swap2\n      swap1\n      dup2\n      dup2\n      mstore\n      0x20\n      add\n      dup3\n      dup1\n      sload\n      tag_33\n      swap1\n      tag_31\n      jump\t// in\n    tag_33:\n      dup1\n      iszero\n      tag_34\n      jumpi\n      dup1\n      0x1f\n      lt\n      tag_35\n      jumpi\n      0x0100\n      dup1\n      dup4\n      sload\n      div\n      mul\n      dup4\n      mstore\n      swap2\n      0x20\n      add\n      swap2\n      jump(tag_34)\n    tag_35:\n      dup3\n      add\n      swap2\n      swap1\n      0x00\n      mstore\n      keccak256(0x00, 0x20)\n      swap1\n    tag_36:\n      dup2\n      sload\n      dup2\n      mstore\n      swap1\n      0x01\n      add\n      swap1\n      0x20\n      add\n      dup1\n      dup4\n      gt\n      tag_36\n      jumpi\n      dup3\n      swap1\n      sub\n      0x1f\n      and\n      dup3\n      add\n      swap2\n    tag_34:\n      pop\n      pop\n      pop\n      pop\n      pop\n      dup2\n      jump\t// out\n        /* \"contracts/ExampleStrings.sol\":1049:1347  function compareTwoStrings(string memory _myString) public view returns (bool) {\r... */\n    tag_19:\n        /* \"contracts/ExampleStrings.sol\":1122:1126  bool */\n      0x00\n        /* \"contracts/ExampleStrings.sol\":1328:1337  _myString */\n      dup2\n        /* \"contracts/ExampleStrings.sol\":1311:1338  abi.encodePacked(_myString) */\n      add(0x20, mload(0x40))\n      tag_38\n      swap2\n      swap1\n      tag_39\n      jump\t// in\n    tag_38:\n      mload(0x40)\n      0x20\n      dup2\n      dup4\n      sub\n      sub\n      dup2\n      mstore\n      swap1\n      0x40\n      mstore\n        /* \"contracts/ExampleStrings.sol\":1301:1339  keccak256(abi.encodePacked(_myString)) */\n      dup1\n      mload\n      swap1\n      0x20\n      add\n      keccak256\n        /* \"contracts/ExampleStrings.sol\":1287:1295  myString */\n      0x00\n        /* \"contracts/ExampleStrings.sol\":1270:1296  abi.encodePacked(myString) */\n      add(0x20, mload(0x40))\n      tag_40\n      swap2\n      swap1\n      tag_41\n      jump\t// in\n    tag_40:\n      mload(0x40)\n      0x20\n      dup2\n      dup4\n      sub\n      sub\n      dup2\n      mstore\n      swap1\n      0x40\n      mstore\n        /* \"contracts/ExampleStrings.sol\":1260:1297  keccak256(abi.encodePacked(myString)) */\n      dup1\n      mload\n      swap1\n      0x20\n      add\n      keccak256\n        /* \"contracts/ExampleStrings.sol\":1260:1339  keccak256(abi.encodePacked(myString)) == keccak256(abi.encodePacked(_myString)) */\n      eq\n        /* \"contracts/ExampleStrings.sol\":1253:1339  return keccak256(abi.encodePacked(myString)) == keccak256(abi.encodePacked(_myString)) */\n      swap1\n      pop\n        /* \"contracts/ExampleStrings.sol\":1049:1347  function compareTwoStrings(string memory _myString) public view returns (bool) {\r... */\n      swap2\n      swap1\n      pop\n      jump\t// out\n        /* \"contracts/ExampleStrings.sol\":376:420  bytes public myBytes = unicode\"Hello Wörld\" */\n    tag_23:\n      0x01\n      dup1\n      sload\n      tag_42\n      swap1\n      tag_31\n      jump\t// in\n    tag_42:\n      dup1\n      0x1f\n      add\n      0x20\n      dup1\n      swap2\n      div\n      mul\n      0x20\n      add\n      mload(0x40)\n      swap1\n      dup2\n      add\n      0x40\n      mstore\n      dup1\n      swap3\n      swap2\n      swap1\n      dup2\n      dup2\n      mstore\n      0x20\n      add\n      dup3\n      dup1\n      sload\n      tag_43\n      swap1\n      tag_31\n      jump\t// in\n    tag_43:\n      dup1\n      iszero\n      tag_44\n      jumpi\n      dup1\n      0x1f\n      lt\n      tag_45\n      jumpi\n      0x0100\n      dup1\n      dup4\n      sload\n      div\n      mul\n      dup4\n      mstore\n      swap2\n      0x20\n      add\n      swap2\n      jump(tag_44)\n    tag_45:\n      dup3\n      add\n      swap2\n      swap1\n      0x00\n      mstore\n      keccak256(0x00, 0x20)\n      swap1\n    tag_46:\n      dup2\n      sload\n      dup2\n      mstore\n      swap1\n      0x01\n      add\n      swap1\n      0x20\n      add\n      dup1\n      dup4\n      gt\n      tag_46\n      jumpi\n      dup3\n      swap1\n      sub\n      0x1f\n      and\n      dup3\n      add\n      swap2\n    tag_44:\n      pop\n      pop\n      pop\n      pop\n      pop\n      dup2\n      jump\t// out\n        /* \"contracts/ExampleStrings.sol\":949:1041  function setMyString(string memory _myString) public {\r... */\n    tag_28:\n        /* \"contracts/ExampleStrings.sol\":1024:1033  _myString */\n      dup1\n        /* \"contracts/ExampleStrings.sol\":1013:1021  myString */\n      0x00\n        /* \"contracts/ExampleStrings.sol\":1013:1033  myString = _myString */\n      swap1\n      dup1\n      mload\n      swap1\n      0x20\n      add\n      swap1\n      tag_48\n      swap3\n      swap2\n      swap1\n      tag_49\n      jump\t// in\n    tag_48:\n      pop\n        /* \"contracts/ExampleStrings.sol\":949:1041  function setMyString(string memory _myString) public {\r... */\n      pop\n      jump\t// out\n    tag_49:\n      dup3\n      dup1\n      sload\n      tag_50\n      swap1\n      tag_31\n      jump\t// in\n    tag_50:\n      swap1\n      0x00\n      mstore\n      keccak256(0x00, 0x20)\n      swap1\n      0x1f\n      add\n      0x20\n      swap1\n      div\n      dup2\n      add\n      swap3\n      dup3\n      tag_52\n      jumpi\n      0x00\n      dup6\n      sstore\n      jump(tag_51)\n    tag_52:\n      dup3\n      0x1f\n      lt\n      tag_53\n      jumpi\n      dup1\n      mload\n      not(0xff)\n      and\n      dup4\n      dup1\n      add\n      or\n      dup6\n      sstore\n      jump(tag_51)\n    tag_53:\n      dup3\n      dup1\n      add\n      0x01\n      add\n      dup6\n      sstore\n      dup3\n      iszero\n      tag_51\n      jumpi\n      swap2\n      dup3\n      add\n    tag_54:\n      dup3\n      dup2\n      gt\n      iszero\n      tag_55\n      jumpi\n      dup3\n      mload\n      dup3\n      sstore\n      swap2\n      0x20\n      add\n      swap2\n      swap1\n      0x01\n      add\n      swap1\n      jump(tag_54)\n    tag_55:\n    tag_51:\n      pop\n      swap1\n      pop\n      tag_56\n      swap2\n      swap1\n      tag_57\n      jump\t// in\n    tag_56:\n      pop\n      swap1\n      jump\t// out\n    tag_57:\n    tag_58:\n      dup1\n      dup3\n      gt\n      iszero\n      tag_59\n      jumpi\n      0x00\n      dup2\n      0x00\n      swap1\n      sstore\n      pop\n      0x01\n      add\n      jump(tag_58)\n    tag_59:\n      pop\n      swap1\n      jump\t// out\n        /* \"#utility.yul\":7:419   */\n    tag_61:\n        /* \"#utility.yul\":85:90   */\n      0x00\n        /* \"#utility.yul\":110:176   */\n      tag_63\n        /* \"#utility.yul\":126:175   */\n      tag_64\n        /* \"#utility.yul\":168:174   */\n      dup5\n        /* \"#utility.yul\":126:175   */\n      tag_65\n      jump\t// in\n    tag_64:\n        /* \"#utility.yul\":110:176   */\n      tag_66\n      jump\t// in\n    tag_63:\n        /* \"#utility.yul\":101:176   */\n      swap1\n      pop\n        /* \"#utility.yul\":199:205   */\n      dup3\n        /* \"#utility.yul\":192:197   */\n      dup2\n        /* \"#utility.yul\":185:206   */\n      mstore\n        /* \"#utility.yul\":237:241   */\n      0x20\n        /* \"#utility.yul\":230:235   */\n      dup2\n        /* \"#utility.yul\":226:242   */\n      add\n        /* \"#utility.yul\":275:278   */\n      dup5\n        /* \"#utility.yul\":266:272   */\n      dup5\n        /* \"#utility.yul\":261:264   */\n      dup5\n        /* \"#utility.yul\":257:273   */\n      add\n        /* \"#utility.yul\":254:279   */\n      gt\n        /* \"#utility.yul\":251:363   */\n      iszero\n      tag_67\n      jumpi\n        /* \"#utility.yul\":282:361   */\n      tag_68\n      tag_69\n      jump\t// in\n    tag_68:\n        /* \"#utility.yul\":251:363   */\n    tag_67:\n        /* \"#utility.yul\":372:413   */\n      tag_70\n        /* \"#utility.yul\":406:412   */\n      dup5\n        /* \"#utility.yul\":401:404   */\n      dup3\n        /* \"#utility.yul\":396:399   */\n      dup6\n        /* \"#utility.yul\":372:413   */\n      tag_71\n      jump\t// in\n    tag_70:\n        /* \"#utility.yul\":91:419   */\n      pop\n        /* \"#utility.yul\":7:419   */\n      swap4\n      swap3\n      pop\n      pop\n      pop\n      jump\t// out\n        /* \"#utility.yul\":439:779   */\n    tag_72:\n        /* \"#utility.yul\":495:500   */\n      0x00\n        /* \"#utility.yul\":544:547   */\n      dup3\n        /* \"#utility.yul\":537:541   */\n      0x1f\n        /* \"#utility.yul\":529:535   */\n      dup4\n        /* \"#utility.yul\":525:542   */\n      add\n        /* \"#utility.yul\":521:548   */\n      slt\n        /* \"#utility.yul\":511:633   */\n      tag_74\n      jumpi\n        /* \"#utility.yul\":552:631   */\n      tag_75\n      tag_76\n      jump\t// in\n    tag_75:\n        /* \"#utility.yul\":511:633   */\n    tag_74:\n        /* \"#utility.yul\":669:675   */\n      dup2\n        /* \"#utility.yul\":656:676   */\n      calldataload\n        /* \"#utility.yul\":694:773   */\n      tag_77\n        /* \"#utility.yul\":769:772   */\n      dup5\n        /* \"#utility.yul\":761:767   */\n      dup3\n        /* \"#utility.yul\":754:758   */\n      0x20\n        /* \"#utility.yul\":746:752   */\n      dup7\n        /* \"#utility.yul\":742:759   */\n      add\n        /* \"#utility.yul\":694:773   */\n      tag_61\n      jump\t// in\n    tag_77:\n        /* \"#utility.yul\":685:773   */\n      swap2\n      pop\n        /* \"#utility.yul\":501:779   */\n      pop\n        /* \"#utility.yul\":439:779   */\n      swap3\n      swap2\n      pop\n      pop\n      jump\t// out\n        /* \"#utility.yul\":785:1294   */\n    tag_18:\n        /* \"#utility.yul\":854:860   */\n      0x00\n        /* \"#utility.yul\":903:905   */\n      0x20\n        /* \"#utility.yul\":891:900   */\n      dup3\n        /* \"#utility.yul\":882:889   */\n      dup5\n        /* \"#utility.yul\":878:901   */\n      sub\n        /* \"#utility.yul\":874:906   */\n      slt\n        /* \"#utility.yul\":871:990   */\n      iszero\n      tag_79\n      jumpi\n        /* \"#utility.yul\":909:988   */\n      tag_80\n      tag_81\n      jump\t// in\n    tag_80:\n        /* \"#utility.yul\":871:990   */\n    tag_79:\n        /* \"#utility.yul\":1057:1058   */\n      0x00\n        /* \"#utility.yul\":1046:1055   */\n      dup3\n        /* \"#utility.yul\":1042:1059   */\n      add\n        /* \"#utility.yul\":1029:1060   */\n      calldataload\n        /* \"#utility.yul\":1087:1105   */\n      0xffffffffffffffff\n        /* \"#utility.yul\":1079:1085   */\n      dup2\n        /* \"#utility.yul\":1076:1106   */\n      gt\n        /* \"#utility.yul\":1073:1190   */\n      iszero\n      tag_82\n      jumpi\n        /* \"#utility.yul\":1109:1188   */\n      tag_83\n      tag_84\n      jump\t// in\n    tag_83:\n        /* \"#utility.yul\":1073:1190   */\n    tag_82:\n        /* \"#utility.yul\":1214:1277   */\n      tag_85\n        /* \"#utility.yul\":1269:1276   */\n      dup5\n        /* \"#utility.yul\":1260:1266   */\n      dup3\n        /* \"#utility.yul\":1249:1258   */\n      dup6\n        /* \"#utility.yul\":1245:1267   */\n      add\n        /* \"#utility.yul\":1214:1277   */\n      tag_72\n      jump\t// in\n    tag_85:\n        /* \"#utility.yul\":1204:1277   */\n      swap2\n      pop\n        /* \"#utility.yul\":1000:1287   */\n      pop\n        /* \"#utility.yul\":785:1294   */\n      swap3\n      swap2\n      pop\n      pop\n      jump\t// out\n        /* \"#utility.yul\":1300:1409   */\n    tag_86:\n        /* \"#utility.yul\":1381:1402   */\n      tag_88\n        /* \"#utility.yul\":1396:1401   */\n      dup2\n        /* \"#utility.yul\":1381:1402   */\n      tag_89\n      jump\t// in\n    tag_88:\n        /* \"#utility.yul\":1376:1379   */\n      dup3\n        /* \"#utility.yul\":1369:1403   */\n      mstore\n        /* \"#utility.yul\":1300:1409   */\n      pop\n      pop\n      jump\t// out\n        /* \"#utility.yul\":1415:1775   */\n    tag_90:\n        /* \"#utility.yul\":1501:1504   */\n      0x00\n        /* \"#utility.yul\":1529:1567   */\n      tag_92\n        /* \"#utility.yul\":1561:1566   */\n      dup3\n        /* \"#utility.yul\":1529:1567   */\n      tag_93\n      jump\t// in\n    tag_92:\n        /* \"#utility.yul\":1583:1653   */\n      tag_94\n        /* \"#utility.yul\":1646:1652   */\n      dup2\n        /* \"#utility.yul\":1641:1644   */\n      dup6\n        /* \"#utility.yul\":1583:1653   */\n      tag_95\n      jump\t// in\n    tag_94:\n        /* \"#utility.yul\":1576:1653   */\n      swap4\n      pop\n        /* \"#utility.yul\":1662:1714   */\n      tag_96\n        /* \"#utility.yul\":1707:1713   */\n      dup2\n        /* \"#utility.yul\":1702:1705   */\n      dup6\n        /* \"#utility.yul\":1695:1699   */\n      0x20\n        /* \"#utility.yul\":1688:1693   */\n      dup7\n        /* \"#utility.yul\":1684:1700   */\n      add\n        /* \"#utility.yul\":1662:1714   */\n      tag_97\n      jump\t// in\n    tag_96:\n        /* \"#utility.yul\":1739:1768   */\n      tag_98\n        /* \"#utility.yul\":1761:1767   */\n      dup2\n        /* \"#utility.yul\":1739:1768   */\n      tag_99\n      jump\t// in\n    tag_98:\n        /* \"#utility.yul\":1734:1737   */\n      dup5\n        /* \"#utility.yul\":1730:1769   */\n      add\n        /* \"#utility.yul\":1723:1769   */\n      swap2\n      pop\n        /* \"#utility.yul\":1505:1775   */\n      pop\n        /* \"#utility.yul\":1415:1775   */\n      swap3\n      swap2\n      pop\n      pop\n      jump\t// out\n        /* \"#utility.yul\":1781:2145   */\n    tag_100:\n        /* \"#utility.yul\":1869:1872   */\n      0x00\n        /* \"#utility.yul\":1897:1936   */\n      tag_102\n        /* \"#utility.yul\":1930:1935   */\n      dup3\n        /* \"#utility.yul\":1897:1936   */\n      tag_103\n      jump\t// in\n    tag_102:\n        /* \"#utility.yul\":1952:2023   */\n      tag_104\n        /* \"#utility.yul\":2016:2022   */\n      dup2\n        /* \"#utility.yul\":2011:2014   */\n      dup6\n        /* \"#utility.yul\":1952:2023   */\n      tag_105\n      jump\t// in\n    tag_104:\n        /* \"#utility.yul\":1945:2023   */\n      swap4\n      pop\n        /* \"#utility.yul\":2032:2084   */\n      tag_106\n        /* \"#utility.yul\":2077:2083   */\n      dup2\n        /* \"#utility.yul\":2072:2075   */\n      dup6\n        /* \"#utility.yul\":2065:2069   */\n      0x20\n        /* \"#utility.yul\":2058:2063   */\n      dup7\n        /* \"#utility.yul\":2054:2070   */\n      add\n        /* \"#utility.yul\":2032:2084   */\n      tag_97\n      jump\t// in\n    tag_106:\n        /* \"#utility.yul\":2109:2138   */\n      tag_107\n        /* \"#utility.yul\":2131:2137   */\n      dup2\n        /* \"#utility.yul\":2109:2138   */\n      tag_99\n      jump\t// in\n    tag_107:\n        /* \"#utility.yul\":2104:2107   */\n      dup5\n        /* \"#utility.yul\":2100:2139   */\n      add\n        /* \"#utility.yul\":2093:2139   */\n      swap2\n      pop\n        /* \"#utility.yul\":1873:2145   */\n      pop\n        /* \"#utility.yul\":1781:2145   */\n      swap3\n      swap2\n      pop\n      pop\n      jump\t// out\n        /* \"#utility.yul\":2151:2528   */\n    tag_108:\n        /* \"#utility.yul\":2257:2260   */\n      0x00\n        /* \"#utility.yul\":2285:2324   */\n      tag_110\n        /* \"#utility.yul\":2318:2323   */\n      dup3\n        /* \"#utility.yul\":2285:2324   */\n      tag_103\n      jump\t// in\n    tag_110:\n        /* \"#utility.yul\":2340:2429   */\n      tag_111\n        /* \"#utility.yul\":2422:2428   */\n      dup2\n        /* \"#utility.yul\":2417:2420   */\n      dup6\n        /* \"#utility.yul\":2340:2429   */\n      tag_112\n      jump\t// in\n    tag_111:\n        /* \"#utility.yul\":2333:2429   */\n      swap4\n      pop\n        /* \"#utility.yul\":2438:2490   */\n      tag_113\n        /* \"#utility.yul\":2483:2489   */\n      dup2\n        /* \"#utility.yul\":2478:2481   */\n      dup6\n        /* \"#utility.yul\":2471:2475   */\n      0x20\n        /* \"#utility.yul\":2464:2469   */\n      dup7\n        /* \"#utility.yul\":2460:2476   */\n      add\n        /* \"#utility.yul\":2438:2490   */\n      tag_97\n      jump\t// in\n    tag_113:\n        /* \"#utility.yul\":2515:2521   */\n      dup1\n        /* \"#utility.yul\":2510:2513   */\n      dup5\n        /* \"#utility.yul\":2506:2522   */\n      add\n        /* \"#utility.yul\":2499:2522   */\n      swap2\n      pop\n        /* \"#utility.yul\":2261:2528   */\n      pop\n        /* \"#utility.yul\":2151:2528   */\n      swap3\n      swap2\n      pop\n      pop\n      jump\t// out\n        /* \"#utility.yul\":2558:3403   */\n    tag_114:\n        /* \"#utility.yul\":2661:2664   */\n      0x00\n        /* \"#utility.yul\":2698:2703   */\n      dup2\n        /* \"#utility.yul\":2692:2704   */\n      sload\n        /* \"#utility.yul\":2727:2763   */\n      tag_116\n        /* \"#utility.yul\":2753:2762   */\n      dup2\n        /* \"#utility.yul\":2727:2763   */\n      tag_31\n      jump\t// in\n    tag_116:\n        /* \"#utility.yul\":2779:2868   */\n      tag_117\n        /* \"#utility.yul\":2861:2867   */\n      dup2\n        /* \"#utility.yul\":2856:2859   */\n      dup7\n        /* \"#utility.yul\":2779:2868   */\n      tag_112\n      jump\t// in\n    tag_117:\n        /* \"#utility.yul\":2772:2868   */\n      swap5\n      pop\n        /* \"#utility.yul\":2899:2900   */\n      0x01\n        /* \"#utility.yul\":2888:2897   */\n      dup3\n        /* \"#utility.yul\":2884:2901   */\n      and\n        /* \"#utility.yul\":2915:2916   */\n      0x00\n        /* \"#utility.yul\":2910:3047   */\n      dup2\n      eq\n      tag_119\n      jumpi\n        /* \"#utility.yul\":3061:3062   */\n      0x01\n        /* \"#utility.yul\":3056:3397   */\n      dup2\n      eq\n      tag_120\n      jumpi\n        /* \"#utility.yul\":2877:3397   */\n      jump(tag_118)\n        /* \"#utility.yul\":2910:3047   */\n    tag_119:\n        /* \"#utility.yul\":2994:2998   */\n      0xff\n        /* \"#utility.yul\":2990:2999   */\n      not\n        /* \"#utility.yul\":2979:2988   */\n      dup4\n        /* \"#utility.yul\":2975:3000   */\n      and\n        /* \"#utility.yul\":2970:2973   */\n      dup7\n        /* \"#utility.yul\":2963:3001   */\n      mstore\n        /* \"#utility.yul\":3030:3036   */\n      dup2\n        /* \"#utility.yul\":3025:3028   */\n      dup7\n        /* \"#utility.yul\":3021:3037   */\n      add\n        /* \"#utility.yul\":3014:3037   */\n      swap4\n      pop\n        /* \"#utility.yul\":2910:3047   */\n      jump(tag_118)\n        /* \"#utility.yul\":3056:3397   */\n    tag_120:\n        /* \"#utility.yul\":3123:3161   */\n      tag_121\n        /* \"#utility.yul\":3155:3160   */\n      dup6\n        /* \"#utility.yul\":3123:3161   */\n      tag_122\n      jump\t// in\n    tag_121:\n        /* \"#utility.yul\":3183:3184   */\n      0x00\n        /* \"#utility.yul\":3197:3351   */\n    tag_123:\n        /* \"#utility.yul\":3211:3217   */\n      dup4\n        /* \"#utility.yul\":3208:3209   */\n      dup2\n        /* \"#utility.yul\":3205:3218   */\n      lt\n        /* \"#utility.yul\":3197:3351   */\n      iszero\n      tag_125\n      jumpi\n        /* \"#utility.yul\":3285:3292   */\n      dup2\n        /* \"#utility.yul\":3279:3293   */\n      sload\n        /* \"#utility.yul\":3275:3276   */\n      dup2\n        /* \"#utility.yul\":3270:3273   */\n      dup10\n        /* \"#utility.yul\":3266:3277   */\n      add\n        /* \"#utility.yul\":3259:3294   */\n      mstore\n        /* \"#utility.yul\":3335:3336   */\n      0x01\n        /* \"#utility.yul\":3326:3333   */\n      dup3\n        /* \"#utility.yul\":3322:3337   */\n      add\n        /* \"#utility.yul\":3311:3337   */\n      swap2\n      pop\n        /* \"#utility.yul\":3233:3237   */\n      0x20\n        /* \"#utility.yul\":3230:3231   */\n      dup2\n        /* \"#utility.yul\":3226:3238   */\n      add\n        /* \"#utility.yul\":3221:3238   */\n      swap1\n      pop\n        /* \"#utility.yul\":3197:3351   */\n      jump(tag_123)\n    tag_125:\n        /* \"#utility.yul\":3380:3386   */\n      dup4\n        /* \"#utility.yul\":3375:3378   */\n      dup9\n        /* \"#utility.yul\":3371:3387   */\n      add\n        /* \"#utility.yul\":3364:3387   */\n      swap6\n      pop\n        /* \"#utility.yul\":3063:3397   */\n      pop\n      pop\n        /* \"#utility.yul\":2877:3397   */\n    tag_118:\n      pop\n        /* \"#utility.yul\":2665:3403   */\n      pop\n      pop\n        /* \"#utility.yul\":2558:3403   */\n      swap3\n      swap2\n      pop\n      pop\n      jump\t// out\n        /* \"#utility.yul\":3409:3527   */\n    tag_126:\n        /* \"#utility.yul\":3496:3520   */\n      tag_128\n        /* \"#utility.yul\":3514:3519   */\n      dup2\n        /* \"#utility.yul\":3496:3520   */\n      tag_129\n      jump\t// in\n    tag_128:\n        /* \"#utility.yul\":3491:3494   */\n      dup3\n        /* \"#utility.yul\":3484:3521   */\n      mstore\n        /* \"#utility.yul\":3409:3527   */\n      pop\n      pop\n      jump\t// out\n        /* \"#utility.yul\":3533:3808   */\n    tag_39:\n        /* \"#utility.yul\":3665:3668   */\n      0x00\n        /* \"#utility.yul\":3687:3782   */\n      tag_131\n        /* \"#utility.yul\":3778:3781   */\n      dup3\n        /* \"#utility.yul\":3769:3775   */\n      dup5\n        /* \"#utility.yul\":3687:3782   */\n      tag_108\n      jump\t// in\n    tag_131:\n        /* \"#utility.yul\":3680:3782   */\n      swap2\n      pop\n        /* \"#utility.yul\":3799:3802   */\n      dup2\n        /* \"#utility.yul\":3792:3802   */\n      swap1\n      pop\n        /* \"#utility.yul\":3533:3808   */\n      swap3\n      swap2\n      pop\n      pop\n      jump\t// out\n        /* \"#utility.yul\":3814:4083   */\n    tag_41:\n        /* \"#utility.yul\":3943:3946   */\n      0x00\n        /* \"#utility.yul\":3965:4057   */\n      tag_133\n        /* \"#utility.yul\":4053:4056   */\n      dup3\n        /* \"#utility.yul\":4044:4050   */\n      dup5\n        /* \"#utility.yul\":3965:4057   */\n      tag_114\n      jump\t// in\n    tag_133:\n        /* \"#utility.yul\":3958:4057   */\n      swap2\n      pop\n        /* \"#utility.yul\":4074:4077   */\n      dup2\n        /* \"#utility.yul\":4067:4077   */\n      swap1\n      pop\n        /* \"#utility.yul\":3814:4083   */\n      swap3\n      swap2\n      pop\n      pop\n      jump\t// out\n        /* \"#utility.yul\":4089:4299   */\n    tag_21:\n        /* \"#utility.yul\":4176:4180   */\n      0x00\n        /* \"#utility.yul\":4214:4216   */\n      0x20\n        /* \"#utility.yul\":4203:4212   */\n      dup3\n        /* \"#utility.yul\":4199:4217   */\n      add\n        /* \"#utility.yul\":4191:4217   */\n      swap1\n      pop\n        /* \"#utility.yul\":4227:4292   */\n      tag_135\n        /* \"#utility.yul\":4289:4290   */\n      0x00\n        /* \"#utility.yul\":4278:4287   */\n      dup4\n        /* \"#utility.yul\":4274:4291   */\n      add\n        /* \"#utility.yul\":4265:4271   */\n      dup5\n        /* \"#utility.yul\":4227:4292   */\n      tag_86\n      jump\t// in\n    tag_135:\n        /* \"#utility.yul\":4089:4299   */\n      swap3\n      swap2\n      pop\n      pop\n      jump\t// out\n        /* \"#utility.yul\":4305:4614   */\n    tag_25:\n        /* \"#utility.yul\":4416:4420   */\n      0x00\n        /* \"#utility.yul\":4454:4456   */\n      0x20\n        /* \"#utility.yul\":4443:4452   */\n      dup3\n        /* \"#utility.yul\":4439:4457   */\n      add\n        /* \"#utility.yul\":4431:4457   */\n      swap1\n      pop\n        /* \"#utility.yul\":4503:4512   */\n      dup2\n        /* \"#utility.yul\":4497:4501   */\n      dup2\n        /* \"#utility.yul\":4493:4513   */\n      sub\n        /* \"#utility.yul\":4489:4490   */\n      0x00\n        /* \"#utility.yul\":4478:4487   */\n      dup4\n        /* \"#utility.yul\":4474:4491   */\n      add\n        /* \"#utility.yul\":4467:4514   */\n      mstore\n        /* \"#utility.yul\":4531:4607   */\n      tag_137\n        /* \"#utility.yul\":4602:4606   */\n      dup2\n        /* \"#utility.yul\":4593:4599   */\n      dup5\n        /* \"#utility.yul\":4531:4607   */\n      tag_90\n      jump\t// in\n    tag_137:\n        /* \"#utility.yul\":4523:4607   */\n      swap1\n      pop\n        /* \"#utility.yul\":4305:4614   */\n      swap3\n      swap2\n      pop\n      pop\n      jump\t// out\n        /* \"#utility.yul\":4620:4933   */\n    tag_15:\n        /* \"#utility.yul\":4733:4737   */\n      0x00\n        /* \"#utility.yul\":4771:4773   */\n      0x20\n        /* \"#utility.yul\":4760:4769   */\n      dup3\n        /* \"#utility.yul\":4756:4774   */\n      add\n        /* \"#utility.yul\":4748:4774   */\n      swap1\n      pop\n        /* \"#utility.yul\":4820:4829   */\n      dup2\n        /* \"#utility.yul\":4814:4818   */\n      dup2\n        /* \"#utility.yul\":4810:4830   */\n      sub\n        /* \"#utility.yul\":4806:4807   */\n      0x00\n        /* \"#utility.yul\":4795:4804   */\n      dup4\n        /* \"#utility.yul\":4791:4808   */\n      add\n        /* \"#utility.yul\":4784:4831   */\n      mstore\n        /* \"#utility.yul\":4848:4926   */\n      tag_139\n        /* \"#utility.yul\":4921:4925   */\n      dup2\n        /* \"#utility.yul\":4912:4918   */\n      dup5\n        /* \"#utility.yul\":4848:4926   */\n      tag_100\n      jump\t// in\n    tag_139:\n        /* \"#utility.yul\":4840:4926   */\n      swap1\n      pop\n        /* \"#utility.yul\":4620:4933   */\n      swap3\n      swap2\n      pop\n      pop\n      jump\t// out\n        /* \"#utility.yul\":4939:5161   */\n    tag_11:\n        /* \"#utility.yul\":5032:5036   */\n      0x00\n        /* \"#utility.yul\":5070:5072   */\n      0x20\n        /* \"#utility.yul\":5059:5068   */\n      dup3\n        /* \"#utility.yul\":5055:5073   */\n      add\n        /* \"#utility.yul\":5047:5073   */\n      swap1\n      pop\n        /* \"#utility.yul\":5083:5154   */\n      tag_141\n        /* \"#utility.yul\":5151:5152   */\n      0x00\n        /* \"#utility.yul\":5140:5149   */\n      dup4\n        /* \"#utility.yul\":5136:5153   */\n      add\n        /* \"#utility.yul\":5127:5133   */\n      dup5\n        /* \"#utility.yul\":5083:5154   */\n      tag_126\n      jump\t// in\n    tag_141:\n        /* \"#utility.yul\":4939:5161   */\n      swap3\n      swap2\n      pop\n      pop\n      jump\t// out\n        /* \"#utility.yul\":5167:5296   */\n    tag_66:\n        /* \"#utility.yul\":5201:5207   */\n      0x00\n        /* \"#utility.yul\":5228:5248   */\n      tag_143\n      tag_144\n      jump\t// in\n    tag_143:\n        /* \"#utility.yul\":5218:5248   */\n      swap1\n      pop\n        /* \"#utility.yul\":5257:5290   */\n      tag_145\n        /* \"#utility.yul\":5285:5289   */\n      dup3\n        /* \"#utility.yul\":5277:5283   */\n      dup3\n        /* \"#utility.yul\":5257:5290   */\n      tag_146\n      jump\t// in\n    tag_145:\n        /* \"#utility.yul\":5167:5296   */\n      swap2\n      swap1\n      pop\n      jump\t// out\n        /* \"#utility.yul\":5302:5377   */\n    tag_144:\n        /* \"#utility.yul\":5335:5341   */\n      0x00\n        /* \"#utility.yul\":5368:5370   */\n      0x40\n        /* \"#utility.yul\":5362:5371   */\n      mload\n        /* \"#utility.yul\":5352:5371   */\n      swap1\n      pop\n        /* \"#utility.yul\":5302:5377   */\n      swap1\n      jump\t// out\n        /* \"#utility.yul\":5383:5691   */\n    tag_65:\n        /* \"#utility.yul\":5445:5449   */\n      0x00\n        /* \"#utility.yul\":5535:5553   */\n      0xffffffffffffffff\n        /* \"#utility.yul\":5527:5533   */\n      dup3\n        /* \"#utility.yul\":5524:5554   */\n      gt\n        /* \"#utility.yul\":5521:5577   */\n      iszero\n      tag_149\n      jumpi\n        /* \"#utility.yul\":5557:5575   */\n      tag_150\n      tag_151\n      jump\t// in\n    tag_150:\n        /* \"#utility.yul\":5521:5577   */\n    tag_149:\n        /* \"#utility.yul\":5595:5624   */\n      tag_152\n        /* \"#utility.yul\":5617:5623   */\n      dup3\n        /* \"#utility.yul\":5595:5624   */\n      tag_99\n      jump\t// in\n    tag_152:\n        /* \"#utility.yul\":5587:5624   */\n      swap1\n      pop\n        /* \"#utility.yul\":5679:5683   */\n      0x20\n        /* \"#utility.yul\":5673:5677   */\n      dup2\n        /* \"#utility.yul\":5669:5684   */\n      add\n        /* \"#utility.yul\":5661:5684   */\n      swap1\n      pop\n        /* \"#utility.yul\":5383:5691   */\n      swap2\n      swap1\n      pop\n      jump\t// out\n        /* \"#utility.yul\":5697:5838   */\n    tag_122:\n        /* \"#utility.yul\":5746:5750   */\n      0x00\n        /* \"#utility.yul\":5769:5772   */\n      dup2\n        /* \"#utility.yul\":5761:5772   */\n      swap1\n      pop\n        /* \"#utility.yul\":5792:5795   */\n      dup2\n        /* \"#utility.yul\":5789:5790   */\n      0x00\n        /* \"#utility.yul\":5782:5796   */\n      mstore\n        /* \"#utility.yul\":5826:5830   */\n      0x20\n        /* \"#utility.yul\":5823:5824   */\n      0x00\n        /* \"#utility.yul\":5813:5831   */\n      keccak256\n        /* \"#utility.yul\":5805:5831   */\n      swap1\n      pop\n        /* \"#utility.yul\":5697:5838   */\n      swap2\n      swap1\n      pop\n      jump\t// out\n        /* \"#utility.yul\":5844:5942   */\n    tag_93:\n        /* \"#utility.yul\":5895:5901   */\n      0x00\n        /* \"#utility.yul\":5929:5934   */\n      dup2\n        /* \"#utility.yul\":5923:5935   */\n      mload\n        /* \"#utility.yul\":5913:5935   */\n      swap1\n      pop\n        /* \"#utility.yul\":5844:5942   */\n      swap2\n      swap1\n      pop\n      jump\t// out\n        /* \"#utility.yul\":5948:6047   */\n    tag_103:\n        /* \"#utility.yul\":6000:6006   */\n      0x00\n        /* \"#utility.yul\":6034:6039   */\n      dup2\n        /* \"#utility.yul\":6028:6040   */\n      mload\n        /* \"#utility.yul\":6018:6040   */\n      swap1\n      pop\n        /* \"#utility.yul\":5948:6047   */\n      swap2\n      swap1\n      pop\n      jump\t// out\n        /* \"#utility.yul\":6053:6221   */\n    tag_95:\n        /* \"#utility.yul\":6136:6147   */\n      0x00\n        /* \"#utility.yul\":6170:6176   */\n      dup3\n        /* \"#utility.yul\":6165:6168   */\n      dup3\n        /* \"#utility.yul\":6158:6177   */\n      mstore\n        /* \"#utility.yul\":6210:6214   */\n      0x20\n        /* \"#utility.yul\":6205:6208   */\n      dup3\n        /* \"#utility.yul\":6201:6215   */\n      add\n        /* \"#utility.yul\":6186:6215   */\n      swap1\n      pop\n        /* \"#utility.yul\":6053:6221   */\n      swap3\n      swap2\n      pop\n      pop\n      jump\t// out\n        /* \"#utility.yul\":6227:6396   */\n    tag_105:\n        /* \"#utility.yul\":6311:6322   */\n      0x00\n        /* \"#utility.yul\":6345:6351   */\n      dup3\n        /* \"#utility.yul\":6340:6343   */\n      dup3\n        /* \"#utility.yul\":6333:6352   */\n      mstore\n        /* \"#utility.yul\":6385:6389   */\n      0x20\n        /* \"#utility.yul\":6380:6383   */\n      dup3\n        /* \"#utility.yul\":6376:6390   */\n      add\n        /* \"#utility.yul\":6361:6390   */\n      swap1\n      pop\n        /* \"#utility.yul\":6227:6396   */\n      swap3\n      swap2\n      pop\n      pop\n      jump\t// out\n        /* \"#utility.yul\":6402:6550   */\n    tag_112:\n        /* \"#utility.yul\":6504:6515   */\n      0x00\n        /* \"#utility.yul\":6541:6544   */\n      dup2\n        /* \"#utility.yul\":6526:6544   */\n      swap1\n      pop\n        /* \"#utility.yul\":6402:6550   */\n      swap3\n      swap2\n      pop\n      pop\n      jump\t// out\n        /* \"#utility.yul\":6556:6646   */\n    tag_89:\n        /* \"#utility.yul\":6590:6597   */\n      0x00\n        /* \"#utility.yul\":6633:6638   */\n      dup2\n        /* \"#utility.yul\":6626:6639   */\n      iszero\n        /* \"#utility.yul\":6619:6640   */\n      iszero\n        /* \"#utility.yul\":6608:6640   */\n      swap1\n      pop\n        /* \"#utility.yul\":6556:6646   */\n      swap2\n      swap1\n      pop\n      jump\t// out\n        /* \"#utility.yul\":6652:6729   */\n    tag_129:\n        /* \"#utility.yul\":6689:6696   */\n      0x00\n        /* \"#utility.yul\":6718:6723   */\n      dup2\n        /* \"#utility.yul\":6707:6723   */\n      swap1\n      pop\n        /* \"#utility.yul\":6652:6729   */\n      swap2\n      swap1\n      pop\n      jump\t// out\n        /* \"#utility.yul\":6735:6889   */\n    tag_71:\n        /* \"#utility.yul\":6819:6825   */\n      dup3\n        /* \"#utility.yul\":6814:6817   */\n      dup2\n        /* \"#utility.yul\":6809:6812   */\n      dup4\n        /* \"#utility.yul\":6796:6826   */\n      calldatacopy\n        /* \"#utility.yul\":6881:6882   */\n      0x00\n        /* \"#utility.yul\":6872:6878   */\n      dup4\n        /* \"#utility.yul\":6867:6870   */\n      dup4\n        /* \"#utility.yul\":6863:6879   */\n      add\n        /* \"#utility.yul\":6856:6883   */\n      mstore\n        /* \"#utility.yul\":6735:6889   */\n      pop\n      pop\n      pop\n      jump\t// out\n        /* \"#utility.yul\":6895:7202   */\n    tag_97:\n        /* \"#utility.yul\":6963:6964   */\n      0x00\n        /* \"#utility.yul\":6973:7086   */\n    tag_163:\n        /* \"#utility.yul\":6987:6993   */\n      dup4\n        /* \"#utility.yul\":6984:6985   */\n      dup2\n        /* \"#utility.yul\":6981:6994   */\n      lt\n        /* \"#utility.yul\":6973:7086   */\n      iszero\n      tag_165\n      jumpi\n        /* \"#utility.yul\":7072:7073   */\n      dup1\n        /* \"#utility.yul\":7067:7070   */\n      dup3\n        /* \"#utility.yul\":7063:7074   */\n      add\n        /* \"#utility.yul\":7057:7075   */\n      mload\n        /* \"#utility.yul\":7053:7054   */\n      dup2\n        /* \"#utility.yul\":7048:7051   */\n      dup5\n        /* \"#utility.yul\":7044:7055   */\n      add\n        /* \"#utility.yul\":7037:7076   */\n      mstore\n        /* \"#utility.yul\":7009:7011   */\n      0x20\n        /* \"#utility.yul\":7006:7007   */\n      dup2\n        /* \"#utility.yul\":7002:7012   */\n      add\n        /* \"#utility.yul\":6997:7012   */\n      swap1\n      pop\n        /* \"#utility.yul\":6973:7086   */\n      jump(tag_163)\n    tag_165:\n        /* \"#utility.yul\":7104:7110   */\n      dup4\n        /* \"#utility.yul\":7101:7102   */\n      dup2\n        /* \"#utility.yul\":7098:7111   */\n      gt\n        /* \"#utility.yul\":7095:7196   */\n      iszero\n      tag_166\n      jumpi\n        /* \"#utility.yul\":7184:7185   */\n      0x00\n        /* \"#utility.yul\":7175:7181   */\n      dup5\n        /* \"#utility.yul\":7170:7173   */\n      dup5\n        /* \"#utility.yul\":7166:7182   */\n      add\n        /* \"#utility.yul\":7159:7186   */\n      mstore\n        /* \"#utility.yul\":7095:7196   */\n    tag_166:\n        /* \"#utility.yul\":6944:7202   */\n      pop\n        /* \"#utility.yul\":6895:7202   */\n      pop\n      pop\n      pop\n      jump\t// out\n        /* \"#utility.yul\":7208:7528   */\n    tag_31:\n        /* \"#utility.yul\":7252:7258   */\n      0x00\n        /* \"#utility.yul\":7289:7290   */\n      0x02\n        /* \"#utility.yul\":7283:7287   */\n      dup3\n        /* \"#utility.yul\":7279:7291   */\n      div\n        /* \"#utility.yul\":7269:7291   */\n      swap1\n      pop\n        /* \"#utility.yul\":7336:7337   */\n      0x01\n        /* \"#utility.yul\":7330:7334   */\n      dup3\n        /* \"#utility.yul\":7326:7338   */\n      and\n        /* \"#utility.yul\":7357:7375   */\n      dup1\n        /* \"#utility.yul\":7347:7428   */\n      tag_168\n      jumpi\n        /* \"#utility.yul\":7413:7417   */\n      0x7f\n        /* \"#utility.yul\":7405:7411   */\n      dup3\n        /* \"#utility.yul\":7401:7418   */\n      and\n        /* \"#utility.yul\":7391:7418   */\n      swap2\n      pop\n        /* \"#utility.yul\":7347:7428   */\n    tag_168:\n        /* \"#utility.yul\":7475:7477   */\n      0x20\n        /* \"#utility.yul\":7467:7473   */\n      dup3\n        /* \"#utility.yul\":7464:7478   */\n      lt\n        /* \"#utility.yul\":7444:7462   */\n      dup2\n        /* \"#utility.yul\":7441:7479   */\n      eq\n        /* \"#utility.yul\":7438:7522   */\n      iszero\n      tag_169\n      jumpi\n        /* \"#utility.yul\":7494:7512   */\n      tag_170\n      tag_171\n      jump\t// in\n    tag_170:\n        /* \"#utility.yul\":7438:7522   */\n    tag_169:\n        /* \"#utility.yul\":7259:7528   */\n      pop\n        /* \"#utility.yul\":7208:7528   */\n      swap2\n      swap1\n      pop\n      jump\t// out\n        /* \"#utility.yul\":7534:7815   */\n    tag_146:\n        /* \"#utility.yul\":7617:7644   */\n      tag_173\n        /* \"#utility.yul\":7639:7643   */\n      dup3\n        /* \"#utility.yul\":7617:7644   */\n      tag_99\n      jump\t// in\n    tag_173:\n        /* \"#utility.yul\":7609:7615   */\n      dup2\n        /* \"#utility.yul\":7605:7645   */\n      add\n        /* \"#utility.yul\":7747:7753   */\n      dup2\n        /* \"#utility.yul\":7735:7745   */\n      dup2\n        /* \"#utility.yul\":7732:7754   */\n      lt\n        /* \"#utility.yul\":7711:7729   */\n      0xffffffffffffffff\n        /* \"#utility.yul\":7699:7709   */\n      dup3\n        /* \"#utility.yul\":7696:7730   */\n      gt\n        /* \"#utility.yul\":7693:7755   */\n      or\n        /* \"#utility.yul\":7690:7778   */\n      iszero\n      tag_174\n      jumpi\n        /* \"#utility.yul\":7758:7776   */\n      tag_175\n      tag_151\n      jump\t// in\n    tag_175:\n        /* \"#utility.yul\":7690:7778   */\n    tag_174:\n        /* \"#utility.yul\":7798:7808   */\n      dup1\n        /* \"#utility.yul\":7794:7796   */\n      0x40\n        /* \"#utility.yul\":7787:7809   */\n      mstore\n        /* \"#utility.yul\":7577:7815   */\n      pop\n        /* \"#utility.yul\":7534:7815   */\n      pop\n      pop\n      jump\t// out\n        /* \"#utility.yul\":7821:8001   */\n    tag_171:\n        /* \"#utility.yul\":7869:7946   */\n      0x4e487b7100000000000000000000000000000000000000000000000000000000\n        /* \"#utility.yul\":7866:7867   */\n      0x00\n        /* \"#utility.yul\":7859:7947   */\n      mstore\n        /* \"#utility.yul\":7966:7970   */\n      0x22\n        /* \"#utility.yul\":7963:7964   */\n      0x04\n        /* \"#utility.yul\":7956:7971   */\n      mstore\n        /* \"#utility.yul\":7990:7994   */\n      0x24\n        /* \"#utility.yul\":7987:7988   */\n      0x00\n        /* \"#utility.yul\":7980:7995   */\n      revert\n        /* \"#utility.yul\":8007:8187   */\n    tag_151:\n        /* \"#utility.yul\":8055:8132   */\n      0x4e487b7100000000000000000000000000000000000000000000000000000000\n        /* \"#utility.yul\":8052:8053   */\n      0x00\n        /* \"#utility.yul\":8045:8133   */\n      mstore\n        /* \"#utility.yul\":8152:8156   */\n      0x41\n        /* \"#utility.yul\":8149:8150   */\n      0x04\n        /* \"#utility.yul\":8142:8157   */\n      mstore\n        /* \"#utility.yul\":8176:8180   */\n      0x24\n        /* \"#utility.yul\":8173:8174   */\n      0x00\n        /* \"#utility.yul\":8166:8181   */\n      revert\n        /* \"#utility.yul\":8193:8310   */\n    tag_76:\n        /* \"#utility.yul\":8302:8303   */\n      0x00\n        /* \"#utility.yul\":8299:8300   */\n      dup1\n        /* \"#utility.yul\":8292:8304   */\n      revert\n        /* \"#utility.yul\":8316:8433   */\n    tag_69:\n        /* \"#utility.yul\":8425:8426   */\n      0x00\n        /* \"#utility.yul\":8422:8423   */\n      dup1\n        /* \"#utility.yul\":8415:8427   */\n      revert\n        /* \"#utility.yul\":8439:8556   */\n    tag_84:\n        /* \"#utility.yul\":8548:8549   */\n      0x00\n        /* \"#utility.yul\":8545:8546   */\n      dup1\n        /* \"#utility.yul\":8538:8550   */\n      revert\n        /* \"#utility.yul\":8562:8679   */\n    tag_81:\n        /* \"#utility.yul\":8671:8672   */\n      0x00\n        /* \"#utility.yul\":8668:8669   */\n      dup1\n        /* \"#utility.yul\":8661:8673   */\n      revert\n        /* \"#utility.yul\":8685:8787   */\n    tag_99:\n        /* \"#utility.yul\":8726:8732   */\n      0x00\n        /* \"#utility.yul\":8777:8779   */\n      0x1f\n        /* \"#utility.yul\":8773:8780   */\n      not\n        /* \"#utility.yul\":8768:8770   */\n      0x1f\n        /* \"#utility.yul\":8761:8766   */\n      dup4\n        /* \"#utility.yul\":8757:8771   */\n      add\n        /* \"#utility.yul\":8753:8781   */\n      and\n        /* \"#utility.yul\":8743:8781   */\n      swap1\n      pop\n        /* \"#utility.yul\":8685:8787   */\n      swap2\n      swap1\n      pop\n      jump\t// out\n\n    auxdata: 0xa26469706673582212203c460408b0d914d9162735eb90e2d238067497e9acf94123ebcea02fff9097be64736f6c63430008070033\n}\n",
				"bytecode": {
					"linkReferences": {},
					"object": "60806040526040518060400160405280600a81526020017f48656c6c6f776f726c64000000000000000000000000000000000000000000008152506000908051906020019062000051929190620000b4565b506040518060400160405280600c81526020017f48656c6c6f2057c3b6726c640000000000000000000000000000000000000000815250600190805190602001906200009f92919062000145565b50348015620000ad57600080fd5b506200025a565b828054620000c290620001f5565b90600052602060002090601f016020900481019282620000e6576000855562000132565b82601f106200010157805160ff191683800117855562000132565b8280016001018555821562000132579182015b828111156200013157825182559160200191906001019062000114565b5b509050620001419190620001d6565b5090565b8280546200015390620001f5565b90600052602060002090601f016020900481019282620001775760008555620001c3565b82601f106200019257805160ff1916838001178555620001c3565b82800160010185558215620001c3579182015b82811115620001c2578251825591602001919060010190620001a5565b5b509050620001d29190620001d6565b5090565b5b80821115620001f1576000816000905550600101620001d7565b5090565b600060028204905060018216806200020e57607f821691505b602082108114156200022557620002246200022b565b5b50919050565b7f4e487b7100000000000000000000000000000000000000000000000000000000600052602260045260246000fd5b61080d806200026a6000396000f3fe608060405234801561001057600080fd5b50600436106100575760003560e01c806307da3eae1461005c578063492bfa181461007a5780635ce2535314610098578063712f4602146100c857806382180568146100e6575b600080fd5b610064610102565b60405161007191906105d0565b60405180910390f35b610082610118565b60405161008f91906105ae565b60405180910390f35b6100b260048036038101906100ad91906103ba565b6101a6565b6040516100bf9190610571565b60405180910390f35b6100d06101ff565b6040516100dd919061058c565b60405180910390f35b61010060048036038101906100fb91906103ba565b61028d565b005b600060018054610111906106f1565b9050905090565b60008054610125906106f1565b80601f0160208091040260200160405190810160405280929190818152602001828054610151906106f1565b801561019e5780601f106101735761010080835404028352916020019161019e565b820191906000526020600020905b81548152906001019060200180831161018157829003601f168201915b505050505081565b6000816040516020016101b99190610543565b6040516020818303038152906040528051906020012060006040516020016101e1919061055a565b60405160208183030381529060405280519060200120149050919050565b6001805461020c906106f1565b80601f0160208091040260200160405190810160405280929190818152602001828054610238906106f1565b80156102855780601f1061025a57610100808354040283529160200191610285565b820191906000526020600020905b81548152906001019060200180831161026857829003601f168201915b505050505081565b80600090805190602001906102a39291906102a7565b5050565b8280546102b3906106f1565b90600052602060002090601f0160209004810192826102d5576000855561031c565b82601f106102ee57805160ff191683800117855561031c565b8280016001018555821561031c579182015b8281111561031b578251825591602001919060010190610300565b5b509050610329919061032d565b5090565b5b8082111561034657600081600090555060010161032e565b5090565b600061035d61035884610610565b6105eb565b905082815260208101848484011115610379576103786107b7565b5b6103848482856106af565b509392505050565b600082601f8301126103a1576103a06107b2565b5b81356103b184826020860161034a565b91505092915050565b6000602082840312156103d0576103cf6107c1565b5b600082013567ffffffffffffffff8111156103ee576103ed6107bc565b5b6103fa8482850161038c565b91505092915050565b61040c81610699565b82525050565b600061041d82610656565b610427818561066c565b93506104378185602086016106be565b610440816107c6565b840191505092915050565b600061045682610661565b610460818561067d565b93506104708185602086016106be565b610479816107c6565b840191505092915050565b600061048f82610661565b610499818561068e565b93506104a98185602086016106be565b80840191505092915050565b600081546104c2816106f1565b6104cc818661068e565b945060018216600081146104e757600181146104f85761052b565b60ff1983168652818601935061052b565b61050185610641565b60005b8381101561052357815481890152600182019150602081019050610504565b838801955050505b50505092915050565b61053d816106a5565b82525050565b600061054f8284610484565b915081905092915050565b600061056682846104b5565b915081905092915050565b60006020820190506105866000830184610403565b92915050565b600060208201905081810360008301526105a68184610412565b905092915050565b600060208201905081810360008301526105c8818461044b565b905092915050565b60006020820190506105e56000830184610534565b92915050565b60006105f5610606565b90506106018282610723565b919050565b6000604051905090565b600067ffffffffffffffff82111561062b5761062a610783565b5b610634826107c6565b9050602081019050919050565b60008190508160005260206000209050919050565b600081519050919050565b600081519050919050565b600082825260208201905092915050565b600082825260208201905092915050565b600081905092915050565b60008115159050919050565b6000819050919050565b82818337600083830152505050565b60005b838110156106dc5780820151818401526020810190506106c1565b838111156106eb576000848401525b50505050565b6000600282049050600182168061070957607f821691505b6020821081141561071d5761071c610754565b5b50919050565b61072c826107c6565b810181811067ffffffffffffffff8211171561074b5761074a610783565b5b80604052505050565b7f4e487b7100000000000000000000000000000000000000000000000000000000600052602260045260246000fd5b7f4e487b7100000000000000000000000000000000000000000000000000000000600052604160045260246000fd5b600080fd5b600080fd5b600080fd5b600080fd5b6000601f19601f830116905091905056fea26469706673582212203c460408b0d914d9162735eb90e2d238067497e9acf94123ebcea02fff9097be64736f6c63430008070033",
					"opcodes": "PUSH1 0x80 PUSH1 0x40 MSTORE PUSH1 0x40 MLOAD DUP1 PUSH1 0x40 ADD PUSH1 0x40 MSTORE DUP1 PUSH1 0xA DUP2 MSTORE PUSH1 0x20 ADD PUSH32 0x48656C6C6F776F726C6400000000000000000000000000000000000000000000 DUP2 MSTORE POP PUSH1 0x0 SWAP1 DUP1 MLOAD SWAP1 PUSH1 0x20 ADD SWAP1 PUSH3 0x51 SWAP3 SWAP2 SWAP1 PUSH3 0xB4 JUMP JUMPDEST POP PUSH1 0x40 MLOAD DUP1 PUSH1 0x40 ADD PUSH1 0x40 MSTORE DUP1 PUSH1 0xC DUP2 MSTORE PUSH1 0x20 ADD PUSH32 0x48656C6C6F2057C3B6726C640000000000000000000000000000000000000000 DUP2 MSTORE POP PUSH1 0x1 SWAP1 DUP1 MLOAD SWAP1 PUSH1 0x20 ADD SWAP1 PUSH3 0x9F SWAP3 SWAP2 SWAP1 PUSH3 0x145 JUMP JUMPDEST POP CALLVALUE DUP1 ISZERO PUSH3 0xAD JUMPI PUSH1 0x0 DUP1 REVERT JUMPDEST POP PUSH3 0x25A JUMP JUMPDEST DUP3 DUP1 SLOAD PUSH3 0xC2 SWAP1 PUSH3 0x1F5 JUMP JUMPDEST SWAP1 PUSH1 0x0 MSTORE PUSH1 0x20 PUSH1 0x0 KECCAK256 SWAP1 PUSH1 0x1F ADD PUSH1 0x20 SWAP1 DIV DUP2 ADD SWAP3 DUP3 PUSH3 0xE6 JUMPI PUSH1 0x0 DUP6 SSTORE PUSH3 0x132 JUMP JUMPDEST DUP3 PUSH1 0x1F LT PUSH3 0x101 JUMPI DUP1 MLOAD PUSH1 0xFF NOT AND DUP4 DUP1 ADD OR DUP6 SSTORE PUSH3 0x132 JUMP JUMPDEST DUP3 DUP1 ADD PUSH1 0x1 ADD DUP6 SSTORE DUP3 ISZERO PUSH3 0x132 JUMPI SWAP2 DUP3 ADD JUMPDEST DUP3 DUP2 GT ISZERO PUSH3 0x131 JUMPI DUP3 MLOAD DUP3 SSTORE SWAP2 PUSH1 0x20 ADD SWAP2 SWAP1 PUSH1 0x1 ADD SWAP1 PUSH3 0x114 JUMP JUMPDEST JUMPDEST POP SWAP1 POP PUSH3 0x141 SWAP2 SWAP1 PUSH3 0x1D6 JUMP JUMPDEST POP SWAP1 JUMP JUMPDEST DUP3 DUP1 SLOAD PUSH3 0x153 SWAP1 PUSH3 0x1F5 JUMP JUMPDEST SWAP1 PUSH1 0x0 MSTORE PUSH1 0x20 PUSH1 0x0 KECCAK256 SWAP1 PUSH1 0x1F ADD PUSH1 0x20 SWAP1 DIV DUP2 ADD SWAP3 DUP3 PUSH3 0x177 JUMPI PUSH1 0x0 DUP6 SSTORE PUSH3 0x1C3 JUMP JUMPDEST DUP3 PUSH1 0x1F LT PUSH3 0x192 JUMPI DUP1 MLOAD PUSH1 0xFF NOT AND DUP4 DUP1 ADD OR DUP6 SSTORE PUSH3 0x1C3 JUMP JUMPDEST DUP3 DUP1 ADD PUSH1 0x1 ADD DUP6 SSTORE DUP3 ISZERO PUSH3 0x1C3 JUMPI SWAP2 DUP3 ADD JUMPDEST DUP3 DUP2 GT ISZERO PUSH3 0x1C2 JUMPI DUP3 MLOAD DUP3 SSTORE SWAP2 PUSH1 0x20 ADD SWAP2 SWAP1 PUSH1 0x1 ADD SWAP1 PUSH3 0x1A5 JUMP JUMPDEST JUMPDEST POP SWAP1 POP PUSH3 0x1D2 SWAP2 SWAP1 PUSH3 0x1D6 JUMP JUMPDEST POP SWAP1 JUMP JUMPDEST JUMPDEST DUP1 DUP3 GT ISZERO PUSH3 0x1F1 JUMPI PUSH1 0x0 DUP2 PUSH1 0x0 SWAP1 SSTORE POP PUSH1 0x1 ADD PUSH3 0x1D7 JUMP JUMPDEST POP SWAP1 JUMP JUMPDEST PUSH1 0x0 PUSH1 0x2 DUP3 DIV SWAP1 POP PUSH1 0x1 DUP3 AND DUP1 PUSH3 0x20E JUMPI PUSH1 0x7F DUP3 AND SWAP2 POP JUMPDEST PUSH1 0x20 DUP3 LT DUP2 EQ ISZERO PUSH3 0x225 JUMPI PUSH3 0x224 PUSH3 0x22B JUMP JUMPDEST JUMPDEST POP SWAP2 SWAP1 POP JUMP JUMPDEST PUSH32 0x4E487B7100000000000000000000000000000000000000000000000000000000 PUSH1 0x0 MSTORE PUSH1 0x22 PUSH1 0x4 MSTORE PUSH1 0x24 PUSH1 0x0 REVERT JUMPDEST PUSH2 0x80D DUP1 PUSH3 0x26A PUSH1 0x0 CODECOPY PUSH1 0x0 RETURN INVALID PUSH1 0x80 PUSH1 0x40 MSTORE CALLVALUE DUP1 ISZERO PUSH2 0x10 JUMPI PUSH1 0x0 DUP1 REVERT JUMPDEST POP PUSH1 0x4 CALLDATASIZE LT PUSH2 0x57 JUMPI PUSH1 0x0 CALLDATALOAD PUSH1 0xE0 SHR DUP1 PUSH4 0x7DA3EAE EQ PUSH2 0x5C JUMPI DUP1 PUSH4 0x492BFA18 EQ PUSH2 0x7A JUMPI DUP1 PUSH4 0x5CE25353 EQ PUSH2 0x98 JUMPI DUP1 PUSH4 0x712F4602 EQ PUSH2 0xC8 JUMPI DUP1 PUSH4 0x82180568 EQ PUSH2 0xE6 JUMPI JUMPDEST PUSH1 0x0 DUP1 REVERT JUMPDEST PUSH2 0x64 PUSH2 0x102 JUMP JUMPDEST PUSH1 0x40 MLOAD PUSH2 0x71 SWAP2 SWAP1 PUSH2 0x5D0 JUMP JUMPDEST PUSH1 0x40 MLOAD DUP1 SWAP2 SUB SWAP1 RETURN JUMPDEST PUSH2 0x82 PUSH2 0x118 JUMP JUMPDEST PUSH1 0x40 MLOAD PUSH2 0x8F SWAP2 SWAP1 PUSH2 0x5AE JUMP JUMPDEST PUSH1 0x40 MLOAD DUP1 SWAP2 SUB SWAP1 RETURN JUMPDEST PUSH2 0xB2 PUSH1 0x4 DUP1 CALLDATASIZE SUB DUP2 ADD SWAP1 PUSH2 0xAD SWAP2 SWAP1 PUSH2 0x3BA JUMP JUMPDEST PUSH2 0x1A6 JUMP JUMPDEST PUSH1 0x40 MLOAD PUSH2 0xBF SWAP2 SWAP1 PUSH2 0x571 JUMP JUMPDEST PUSH1 0x40 MLOAD DUP1 SWAP2 SUB SWAP1 RETURN JUMPDEST PUSH2 0xD0 PUSH2 0x1FF JUMP JUMPDEST PUSH1 0x40 MLOAD PUSH2 0xDD SWAP2 SWAP1 PUSH2 0x58C JUMP JUMPDEST PUSH1 0x40 MLOAD DUP1 SWAP2 SUB SWAP1 RETURN JUMPDEST PUSH2 0x100 PUSH1 0x4 DUP1 CALLDATASIZE SUB DUP2 ADD SWAP1 PUSH2 0xFB SWAP2 SWAP1 PUSH2 0x3BA JUMP JUMPDEST PUSH2 0x28D JUMP JUMPDEST STOP JUMPDEST PUSH1 0x0 PUSH1 0x1 DUP1 SLOAD PUSH2 0x111 SWAP1 PUSH2 0x6F1 JUMP JUMPDEST SWAP1 POP SWAP1 POP SWAP1 JUMP JUMPDEST PUSH1 0x0 DUP1 SLOAD PUSH2 0x125 SWAP1 PUSH2 0x6F1 JUMP JUMPDEST DUP1 PUSH1 0x1F ADD PUSH1 0x20 DUP1 SWAP2 DIV MUL PUSH1 0x20 ADD PUSH1 0x40 MLOAD SWAP1 DUP2 ADD PUSH1 0x40 MSTORE DUP1 SWAP3 SWAP2 SWAP1 DUP2 DUP2 MSTORE PUSH1 0x20 ADD DUP3 DUP1 SLOAD PUSH2 0x151 SWAP1 PUSH2 0x6F1 JUMP JUMPDEST DUP1 ISZERO PUSH2 0x19E JUMPI DUP1 PUSH1 0x1F LT PUSH2 0x173 JUMPI PUSH2 0x100 DUP1 DUP4 SLOAD DIV MUL DUP4 MSTORE SWAP2 PUSH1 0x20 ADD SWAP2 PUSH2 0x19E JUMP JUMPDEST DUP3 ADD SWAP2 SWAP1 PUSH1 0x0 MSTORE PUSH1 0x20 PUSH1 0x0 KECCAK256 SWAP1 JUMPDEST DUP2 SLOAD DUP2 MSTORE SWAP1 PUSH1 0x1 ADD SWAP1 PUSH1 0x20 ADD DUP1 DUP4 GT PUSH2 0x181 JUMPI DUP3 SWAP1 SUB PUSH1 0x1F AND DUP3 ADD SWAP2 JUMPDEST POP POP POP POP POP DUP2 JUMP JUMPDEST PUSH1 0x0 DUP2 PUSH1 0x40 MLOAD PUSH1 0x20 ADD PUSH2 0x1B9 SWAP2 SWAP1 PUSH2 0x543 JUMP JUMPDEST PUSH1 0x40 MLOAD PUSH1 0x20 DUP2 DUP4 SUB SUB DUP2 MSTORE SWAP1 PUSH1 0x40 MSTORE DUP1 MLOAD SWAP1 PUSH1 0x20 ADD KECCAK256 PUSH1 0x0 PUSH1 0x40 MLOAD PUSH1 0x20 ADD PUSH2 0x1E1 SWAP2 SWAP1 PUSH2 0x55A JUMP JUMPDEST PUSH1 0x40 MLOAD PUSH1 0x20 DUP2 DUP4 SUB SUB DUP2 MSTORE SWAP1 PUSH1 0x40 MSTORE DUP1 MLOAD SWAP1 PUSH1 0x20 ADD KECCAK256 EQ SWAP1 POP SWAP2 SWAP1 POP JUMP JUMPDEST PUSH1 0x1 DUP1 SLOAD PUSH2 0x20C SWAP1 PUSH2 0x6F1 JUMP JUMPDEST DUP1 PUSH1 0x1F ADD PUSH1 0x20 DUP1 SWAP2 DIV MUL PUSH1 0x20 ADD PUSH1 0x40 MLOAD SWAP1 DUP2 ADD PUSH1 0x40 MSTORE DUP1 SWAP3 SWAP2 SWAP1 DUP2 DUP2 MSTORE PUSH1 0x20 ADD DUP3 DUP1 SLOAD PUSH2 0x238 SWAP1 PUSH2 0x6F1 JUMP JUMPDEST DUP1 ISZERO PUSH2 0x285 JUMPI DUP1 PUSH1 0x1F LT PUSH2 0x25A JUMPI PUSH2 0x100 DUP1 DUP4 SLOAD DIV MUL DUP4 MSTORE SWAP2 PUSH1 0x20 ADD SWAP2 PUSH2 0x285 JUMP JUMPDEST DUP3 ADD SWAP2 SWAP1 PUSH1 0x0 MSTORE PUSH1 0x20 PUSH1 0x0 KECCAK256 SWAP1 JUMPDEST DUP2 SLOAD DUP2 MSTORE SWAP1 PUSH1 0x1 ADD SWAP1 PUSH1 0x20 ADD DUP1 DUP4 GT PUSH2 0x268 JUMPI DUP3 SWAP1 SUB PUSH1 0x1F AND DUP3 ADD SWAP2 JUMPDEST POP POP POP POP POP DUP2 JUMP JUMPDEST DUP1 PUSH1 0x0 SWAP1 DUP1 MLOAD SWAP1 PUSH1 0x20 ADD SWAP1 PUSH2 0x2A3 SWAP3 SWAP2 SWAP1 PUSH2 0x2A7 JUMP JUMPDEST POP POP JUMP JUMPDEST DUP3 DUP1 SLOAD PUSH2 0x2B3 SWAP1 PUSH2 0x6F1 JUMP JUMPDEST SWAP1 PUSH1 0x0 MSTORE PUSH1 0x20 PUSH1 0x0 KECCAK256 SWAP1 PUSH1 0x1F ADD PUSH1 0x20 SWAP1 DIV DUP2 ADD SWAP3 DUP3 PUSH2 0x2D5 JUMPI PUSH1 0x0 DUP6 SSTORE PUSH2 0x31C JUMP JUMPDEST DUP3 PUSH1 0x1F LT PUSH2 0x2EE JUMPI DUP1 MLOAD PUSH1 0xFF NOT AND DUP4 DUP1 ADD OR DUP6 SSTORE PUSH2 0x31C JUMP JUMPDEST DUP3 DUP1 ADD PUSH1 0x1 ADD DUP6 SSTORE DUP3 ISZERO PUSH2 0x31C JUMPI SWAP2 DUP3 ADD JUMPDEST DUP3 DUP2 GT ISZERO PUSH2 0x31B JUMPI DUP3 MLOAD DUP3 SSTORE SWAP2 PUSH1 0x20 ADD SWAP2 SWAP1 PUSH1 0x1 ADD SWAP1 PUSH2 0x300 JUMP JUMPDEST JUMPDEST POP SWAP1 POP PUSH2 0x329 SWAP2 SWAP1 PUSH2 0x32D JUMP JUMPDEST POP SWAP1 JUMP JUMPDEST JUMPDEST DUP1 DUP3 GT ISZERO PUSH2 0x346 JUMPI PUSH1 0x0 DUP2 PUSH1 0x0 SWAP1 SSTORE POP PUSH1 0x1 ADD PUSH2 0x32E JUMP JUMPDEST POP SWAP1 JUMP JUMPDEST PUSH1 0x0 PUSH2 0x35D PUSH2 0x358 DUP5 PUSH2 0x610 JUMP JUMPDEST PUSH2 0x5EB JUMP JUMPDEST SWAP1 POP DUP3 DUP2 MSTORE PUSH1 0x20 DUP2 ADD DUP5 DUP5 DUP5 ADD GT ISZERO PUSH2 0x379 JUMPI PUSH2 0x378 PUSH2 0x7B7 JUMP JUMPDEST JUMPDEST PUSH2 0x384 DUP5 DUP3 DUP6 PUSH2 0x6AF JUMP JUMPDEST POP SWAP4 SWAP3 POP POP POP JUMP JUMPDEST PUSH1 0x0 DUP3 PUSH1 0x1F DUP4 ADD SLT PUSH2 0x3A1 JUMPI PUSH2 0x3A0 PUSH2 0x7B2 JUMP JUMPDEST JUMPDEST DUP2 CALLDATALOAD PUSH2 0x3B1 DUP5 DUP3 PUSH1 0x20 DUP7 ADD PUSH2 0x34A JUMP JUMPDEST SWAP2 POP POP SWAP3 SWAP2 POP POP JUMP JUMPDEST PUSH1 0x0 PUSH1 0x20 DUP3 DUP5 SUB SLT ISZERO PUSH2 0x3D0 JUMPI PUSH2 0x3CF PUSH2 0x7C1 JUMP JUMPDEST JUMPDEST PUSH1 0x0 DUP3 ADD CALLDATALOAD PUSH8 0xFFFFFFFFFFFFFFFF DUP2 GT ISZERO PUSH2 0x3EE JUMPI PUSH2 0x3ED PUSH2 0x7BC JUMP JUMPDEST JUMPDEST PUSH2 0x3FA DUP5 DUP3 DUP6 ADD PUSH2 0x38C JUMP JUMPDEST SWAP2 POP POP SWAP3 SWAP2 POP POP JUMP JUMPDEST PUSH2 0x40C DUP2 PUSH2 0x699 JUMP JUMPDEST DUP3 MSTORE POP POP JUMP JUMPDEST PUSH1 0x0 PUSH2 0x41D DUP3 PUSH2 0x656 JUMP JUMPDEST PUSH2 0x427 DUP2 DUP6 PUSH2 0x66C JUMP JUMPDEST SWAP4 POP PUSH2 0x437 DUP2 DUP6 PUSH1 0x20 DUP7 ADD PUSH2 0x6BE JUMP JUMPDEST PUSH2 0x440 DUP2 PUSH2 0x7C6 JUMP JUMPDEST DUP5 ADD SWAP2 POP POP SWAP3 SWAP2 POP POP JUMP JUMPDEST PUSH1 0x0 PUSH2 0x456 DUP3 PUSH2 0x661 JUMP JUMPDEST PUSH2 0x460 DUP2 DUP6 PUSH2 0x67D JUMP JUMPDEST SWAP4 POP PUSH2 0x470 DUP2 DUP6 PUSH1 0x20 DUP7 ADD PUSH2 0x6BE JUMP JUMPDEST PUSH2 0x479 DUP2 PUSH2 0x7C6 JUMP JUMPDEST DUP5 ADD SWAP2 POP POP SWAP3 SWAP2 POP POP JUMP JUMPDEST PUSH1 0x0 PUSH2 0x48F DUP3 PUSH2 0x661 JUMP JUMPDEST PUSH2 0x499 DUP2 DUP6 PUSH2 0x68E JUMP JUMPDEST SWAP4 POP PUSH2 0x4A9 DUP2 DUP6 PUSH1 0x20 DUP7 ADD PUSH2 0x6BE JUMP JUMPDEST DUP1 DUP5 ADD SWAP2 POP POP SWAP3 SWAP2 POP POP JUMP JUMPDEST PUSH1 0x0 DUP2 SLOAD PUSH2 0x4C2 DUP2 PUSH2 0x6F1 JUMP JUMPDEST PUSH2 0x4CC DUP2 DUP7 PUSH2 0x68E JUMP JUMPDEST SWAP5 POP PUSH1 0x1 DUP3 AND PUSH1 0x0 DUP2 EQ PUSH2 0x4E7 JUMPI PUSH1 0x1 DUP2 EQ PUSH2 0x4F8 JUMPI PUSH2 0x52B JUMP JUMPDEST PUSH1 0xFF NOT DUP4 AND DUP7 MSTORE DUP2 DUP7 ADD SWAP4 POP PUSH2 0x52B JUMP JUMPDEST PUSH2 0x501 DUP6 PUSH2 0x641 JUMP JUMPDEST PUSH1 0x0 JUMPDEST DUP4 DUP2 LT ISZERO PUSH2 0x523 JUMPI DUP2 SLOAD DUP2 DUP10 ADD MSTORE PUSH1 0x1 DUP3 ADD SWAP2 POP PUSH1 0x20 DUP2 ADD SWAP1 POP PUSH2 0x504 JUMP JUMPDEST DUP4 DUP9 ADD SWAP6 POP POP POP JUMPDEST POP POP POP SWAP3 SWAP2 POP POP JUMP JUMPDEST PUSH2 0x53D DUP2 PUSH2 0x6A5 JUMP JUMPDEST DUP3 MSTORE POP POP JUMP JUMPDEST PUSH1 0x0 PUSH2 0x54F DUP3 DUP5 PUSH2 0x484 JUMP JUMPDEST SWAP2 POP DUP2 SWAP1 POP SWAP3 SWAP2 POP POP JUMP JUMPDEST PUSH1 0x0 PUSH2 0x566 DUP3 DUP5 PUSH2 0x4B5 JUMP JUMPDEST SWAP2 POP DUP2 SWAP1 POP SWAP3 SWAP2 POP POP JUMP JUMPDEST PUSH1 0x0 PUSH1 0x20 DUP3 ADD SWAP1 POP PUSH2 0x586 PUSH1 0x0 DUP4 ADD DUP5 PUSH2 0x403 JUMP JUMPDEST SWAP3 SWAP2 POP POP JUMP JUMPDEST PUSH1 0x0 PUSH1 0x20 DUP3 ADD SWAP1 POP DUP2 DUP2 SUB PUSH1 0x0 DUP4 ADD MSTORE PUSH2 0x5A6 DUP2 DUP5 PUSH2 0x412 JUMP JUMPDEST SWAP1 POP SWAP3 SWAP2 POP POP JUMP JUMPDEST PUSH1 0x0 PUSH1 0x20 DUP3 ADD SWAP1 POP DUP2 DUP2 SUB PUSH1 0x0 DUP4 ADD MSTORE PUSH2 0x5C8 DUP2 DUP5 PUSH2 0x44B JUMP JUMPDEST SWAP1 POP SWAP3 SWAP2 POP POP JUMP JUMPDEST PUSH1 0x0 PUSH1 0x20 DUP3 ADD SWAP1 POP PUSH2 0x5E5 PUSH1 0x0 DUP4 ADD DUP5 PUSH2 0x534 JUMP JUMPDEST SWAP3 SWAP2 POP POP JUMP JUMPDEST PUSH1 0x0 PUSH2 0x5F5 PUSH2 0x606 JUMP JUMPDEST SWAP1 POP PUSH2 0x601 DUP3 DUP3 PUSH2 0x723 JUMP JUMPDEST SWAP2 SWAP1 POP JUMP JUMPDEST PUSH1 0x0 PUSH1 0x40 MLOAD SWAP1 POP SWAP1 JUMP JUMPDEST PUSH1 0x0 PUSH8 0xFFFFFFFFFFFFFFFF DUP3 GT ISZERO PUSH2 0x62B JUMPI PUSH2 0x62A PUSH2 0x783 JUMP JUMPDEST JUMPDEST PUSH2 0x634 DUP3 PUSH2 0x7C6 JUMP JUMPDEST SWAP1 POP PUSH1 0x20 DUP2 ADD SWAP1 POP SWAP2 SWAP1 POP JUMP JUMPDEST PUSH1 0x0 DUP2 SWAP1 POP DUP2 PUSH1 0x0 MSTORE PUSH1 0x20 PUSH1 0x0 KECCAK256 SWAP1 POP SWAP2 SWAP1 POP JUMP JUMPDEST PUSH1 0x0 DUP2 MLOAD SWAP1 POP SWAP2 SWAP1 POP JUMP JUMPDEST PUSH1 0x0 DUP2 MLOAD SWAP1 POP SWAP2 SWAP1 POP JUMP JUMPDEST PUSH1 0x0 DUP3 DUP3 MSTORE PUSH1 0x20 DUP3 ADD SWAP1 POP SWAP3 SWAP2 POP POP JUMP JUMPDEST PUSH1 0x0 DUP3 DUP3 MSTORE PUSH1 0x20 DUP3 ADD SWAP1 POP SWAP3 SWAP2 POP POP JUMP JUMPDEST PUSH1 0x0 DUP2 SWAP1 POP SWAP3 SWAP2 POP POP JUMP JUMPDEST PUSH1 0x0 DUP2 ISZERO ISZERO SWAP1 POP SWAP2 SWAP1 POP JUMP JUMPDEST PUSH1 0x0 DUP2 SWAP1 POP SWAP2 SWAP1 POP JUMP JUMPDEST DUP3 DUP2 DUP4 CALLDATACOPY PUSH1 0x0 DUP4 DUP4 ADD MSTORE POP POP POP JUMP JUMPDEST PUSH1 0x0 JUMPDEST DUP4 DUP2 LT ISZERO PUSH2 0x6DC JUMPI DUP1 DUP3 ADD MLOAD DUP2 DUP5 ADD MSTORE PUSH1 0x20 DUP2 ADD SWAP1 POP PUSH2 0x6C1 JUMP JUMPDEST DUP4 DUP2 GT ISZERO PUSH2 0x6EB JUMPI PUSH1 0x0 DUP5 DUP5 ADD MSTORE JUMPDEST POP POP POP POP JUMP JUMPDEST PUSH1 0x0 PUSH1 0x2 DUP3 DIV SWAP1 POP PUSH1 0x1 DUP3 AND DUP1 PUSH2 0x709 JUMPI PUSH1 0x7F DUP3 AND SWAP2 POP JUMPDEST PUSH1 0x20 DUP3 LT DUP2 EQ ISZERO PUSH2 0x71D JUMPI PUSH2 0x71C PUSH2 0x754 JUMP JUMPDEST JUMPDEST POP SWAP2 SWAP1 POP JUMP JUMPDEST PUSH2 0x72C DUP3 PUSH2 0x7C6 JUMP JUMPDEST DUP2 ADD DUP2 DUP2 LT PUSH8 0xFFFFFFFFFFFFFFFF DUP3 GT OR ISZERO PUSH2 0x74B JUMPI PUSH2 0x74A PUSH2 0x783 JUMP JUMPDEST JUMPDEST DUP1 PUSH1 0x40 MSTORE POP POP POP JUMP JUMPDEST PUSH32 0x4E487B7100000000000000000000000000000000000000000000000000000000 PUSH1 0x0 MSTORE PUSH1 0x22 PUSH1 0x4 MSTORE PUSH1 0x24 PUSH1 0x0 REVERT JUMPDEST PUSH32 0x4E487B7100000000000000000000000000000000000000000000000000000000 PUSH1 0x0 MSTORE PUSH1 0x41 PUSH1 0x4 MSTORE PUSH1 0x24 PUSH1 0x0 REVERT JUMPDEST PUSH1 0x0 DUP1 REVERT JUMPDEST PUSH1 0x0 DUP1 REVERT JUMPDEST PUSH1 0x0 DUP1 REVERT JUMPDEST PUSH1 0x0 DUP1 REVERT JUMPDEST PUSH1 0x0 PUSH1 0x1F NOT PUSH1 0x1F DUP4 ADD AND SWAP1 POP SWAP2 SWAP1 POP JUMP INVALID LOG2 PUSH5 0x6970667358 0x22 SLT KECCAK256 EXTCODECOPY CHAINID DIV ADDMOD 0xB0 0xD9 EQ 0xD9 AND 0x27 CALLDATALOAD 0xEB SWAP1 0xE2 0xD2 CODESIZE MOD PUSH21 0x97E9ACF94123EBCEA02FFF9097BE64736F6C634300 ADDMOD SMOD STOP CALLER "
				},
				"gasEstimates": {
					"creation": {
						"codeDepositCost": "412200",
						"executionCost": "infinite",
						"totalCost": "infinite"
					},
					"external": {
						"compareTwoStrings(string)": "infinite",
						"getBytesLength()": "2551",
						"myBytes()": "infinite",
						"myString()": "infinite",
						"setMyString(string)": "infinite"
					}
				},
				"methodIdentifiers": {
					"compareTwoStrings(string)": "5ce25353",
					"getBytesLength()": "07da3eae",
					"myBytes()": "712f4602",
					"myString()": "492bfa18",
					"setMyString(string)": "82180568"
				}
			},
			"storageLayout": {
				"storage": [
					{
						"astId": 4,
						"contract": "contracts/ExampleStrings.sol:ExampleStrings",
						"label": "myString",
						"offset": 0,
						"slot": "0",
						"type": "t_string_storage"
					},
					{
						"astId": 7,
						"contract": "contracts/ExampleStrings.sol:ExampleStrings",
						"label": "myBytes",
						"offset": 0,
						"slot": "1",
						"type": "t_bytes_storage"
					}
				],
				"types": {
					"t_bytes_storage": {
						"encoding": "bytes",
						"label": "bytes",
						"numberOfBytes": "32"
					},
					"t_string_storage": {
						"encoding": "bytes",
						"label": "string",
						"numberOfBytes": "32"
					}
				}
			},
			"userdoc": {
				"kind": "user",
				"methods": {},
				"version": 1
			}
		}
	}
}